:020000040800F2
:10000000480B0020ED010008433E00082D36000893
:10001000413E0008AD0A00089552000800000000AB
:100020000000000000000000000000005B4100082C
:10003000530B000800000000453E00085D41000829
:10004000070200080702000807020008070200086C
:10005000070200080702000807020008070200085C
:10006000070200080702000807020008070200084C
:10007000070200080702000807020008070200083C
:10008000070200080000000007020008070200083D
:10009000070200080702000807020008070200081C
:1000A000070200080702000807020008070200080C
:1000B00051420008070200085D42000807020008DC
:1000C00007020008070200080702000807020008EC
:1000D000070200088952000807020008070200080A
:1000E00007020008070200080702000807020008CC
:1000F00007020008070200080702000800000000CD
:1001000000000000070200080000000007020008CD
:1001100007020008000000000702000807020008AC
:10012000070200080702000807020008070200088B
:10013000070200080000000000000000070200089D
:10014000070200080702000800000000000000008D
:10015000000000000000000000000000000000009F
:10016000000000000000000000000000070200087E
:10017000070200080000000000000000000000006E
:10018000000000000702000800000000000000005E
:10019000000000000000000000000000000000005F
:1001A000000000000000000007020008070200082D
:1001B000070200080702000807020008000000000C
:1001C000000000000702000800000000000000001E
:1001D0000702000807020008DFF80CD000F06EFBF1
:1001E0000048004719640008480B00200648804773
:1001F00006480047FEE7FEE7FEE7FEE7FEE7FEE70C
:10020000FEE7FEE7FEE7FEE741420008D9010008ED
:100210002DE9F05F0546002092469B46884606463B
:10022000814640241BE0284641464746224600F0CE
:1002300097F853465A46C01A914110D311461846B2
:10024000224600F07EF82D1A67EB01084F46224641
:100250000120002100F075F817EB00094E41201E27
:10026000A4F10104DFDC484631462A464346BDE896
:10027000F09FD2B201E000F8012B491EFBD270477B
:100280000022F6E710B513460A4604461946FFF762
:10029000F0FF204610BD0EB5C10F80EAE0700844A3
:1002A000CA07002140F233438DE80E000A460B4690
:1002B00000F0ACF803B000BD00F0004230F00040A8
:1002C0000AD0C10D01F56071C0F3160042EA015178
:1002D000C20840071143704700200146704701F0F3
:1002E000004330B421F0004150EA010206D00A0D6B
:1002F000A2F56072C1F31301002A02DC30BC0020B9
:100300007047440F44EAC104C100E01830BC00EB60
:10031000C25000F035B830B50B460146002020220F
:10032000012409E021FA02F59D4205D303FA02F502
:10033000491B04FA02F52844151EA2F10102F1DC62
:1003400030BD202A04DB203A00FA02F10020704779
:100350009140C2F1200320FA03F319439040704703
:10036000202A04DB203A21FA02F00021704721FA0A
:1003700002F3D040C2F12002914008431946704771
:100380000029A8BF7047401C490008BF20F00100A9
:10039000704710B4B0FA80FC00FA0CF050EA010487
:1003A00004BF10BC704749B1CCF1200421FA04F419
:1003B00011FA0CF118BF012121430843A3EB0C01F2
:1003C000CB1D4FEA00614FEA102042BF002010BC55
:1003D000704700EBC35010440029A4BF10BC704705
:1003E000401C490008BF20F0010010BC704710B548
:1003F000141E73F1000408DA401C41F10001921848
:100400005B411A4301D120F0010010BD2DE9F04DF0
:1004100092469B4611B1B1FA81F202E0B0FA80F245
:1004200020329046FFF78DFF04460F4640EA0A004F
:1004300041EA0B0153465A46084313D0114653EA8A
:10044000010019D0C8F140025046FFF789FF054668
:100450000E46504659464246FFF773FF084305D003
:10046000012004E020463946BDE8F08D0020054318
:1004700046EAE0762C4337430A986305E40AA0EB8A
:1004800008000022FD0A44EA47540A3002D5002041
:100490000146E9E7010510196941DDE90845001940
:1004A0006941BDE8F04DA2E72DE9FE4F804681EAA3
:1004B0000300C00F0C46009021F0004123F00045DE
:1004C000B8EB0200A94105D24046214690461C46A1
:1004D0000B46024623F00040104347D0270DC7F3D8
:1004E0000A00C3F30A510290401A019040286BDAC7
:1004F000C3F3130040F4801B0098924620B1002300
:10050000D2EB030A63EB0B0B01985946C0F1400292
:100510005046FFF716FF06460D4650465946019ACB
:1005200000F0DEF910EB08006141002487EA115267
:1005300084EAE7731A4340D0009A62B3019A012A11
:100540004FEA075215DC001B61EB02014FF000423D
:1005500002EA0752CDE90042001C41F58011324603
:100560002B46FFF753FF03B0BDE8F08F404621460E
:10057000F9E7001B61EB0201001C41F58013001834
:100580005B412018A2F5001747EB030140EAD57044
:10059000B6196D4111E06D084FEA360645EAC0759F
:1005A0004FEA0752001B61EB0201001C41F580116C
:1005B00049084FEA30000019514132462B4603B03A
:1005C000BDE8F04FFFF713BF009801224000002361
:1005D000D0EB020263EBE073009821464FEAE0742F
:1005E000B8EB000061EB0401E9E783F000435BE74F
:1005F00081F0004158E72DE9FE4F81EA030404F041
:10060000004421F0004100944FF0000B23F0004320
:1006100050EA01045ED052EA03045BD0C3F30A54EB
:10062000C1F30A552C44A4F2F3340194A0FB025404
:10063000C1F3130141F48011C3F3130343F4801396
:1006400001FB024400FB034E840A970A44EA8154EA
:1006500047EA8357A4FB076802958D0A05FB0785C7
:100660004FEA932C04FB0C542705029D4FEA0658D1
:1006700047EA1637B5EB08056EEB070C870E920EAE
:1006800047EA811742EA8312A7FB0201B6EB0B018E
:1006900064EB00042B0D43EA0C335E1844EB1C5052
:1006A000DA465146E7FB0201C5F313044FEA0B3368
:1006B00043EA14534FEA0432019C43EA0603A4F1CF
:1006C0000C040294009CCDE900B4FFF79FFE03B038
:1006D000BDE8F08F00200146F9E72DE9F04D81EAF1
:1006E000030404F0004B21F0004514464FF0000ACB
:1006F00023F0004150EA050220D054EA01021DD047
:10070000C5F30A570246C5F31303C1F31300C1F33F
:100710000A5640F4801543F48013A7EB0608101B1B
:10072000D64608F2FD3873EB050002D308F1010844
:1007300001E092185B41B8F1000F03DA0020014696
:10074000BDE8F08D00204FF48011064684460EE08F
:10075000171B73EB050705D3121B63EB0503064359
:100760004CEA010C49084FEA300092185B4150EA0C
:100770000107EDD152EA030012D082EA040083EAB5
:100780000501084305D0101BAB4106D2012200230E
:1007900006E000224FF0004302E06FF00102531028
:1007A0001AEB06004CEB085110EB0A0041EB0B0171
:1007B000BDE8F04DFFF71BBE2DE9F04D00231A46B2
:1007C0001B1A8A4103DB00200146BDE8F08DC1F30E
:1007D0000A52C1F3130141F480154FF0000BD10709
:1007E00002D100186D41521E0027044640F2FF114D
:1007F000384601EB620A3E468046024600204FF42E
:100800008011FFF7ADFDC2197141BB1846EB010025
:10081000B4EB030C75EB000C04D3E41A65EB000594
:1008200017460E46241908F101006D418046342810
:10083000E3DDF91946EB0600091BA84103D24FF08E
:10084000FF32134601E0002213461BEB070046EB84
:100850000A51BDE8F04DFFF7CABDC1F30A52C1F31A
:10086000130140F2FF3341F480119A4202DA002072
:100870000146704740F233439A42A2F2334202DC0F
:100880005242FFF76DBDFFF75CBD000030B5041E9E
:1008900071F1000404DB4FF00044404264EB0101BD
:1008A000141E73F1000405DB1C464FF00043524256
:1008B00063EB0403994208BF904230BD064C074DDC
:1008C00006E0E06840F0010394E807009847103420
:1008D000AC42F6D3FFF784FC087D0008287D0008B1
:1008E000202A06DBCB17203A41FA02F043EAE073F4
:1008F00006E041FA02F3D040C2F1200291400843E1
:100900001946704710B5846AE16D11F0500F06D09A
:10091000E16DC90625D5204600F08AFB10BDE06DCB
:1009200040F40070E06520680168090716D503F0FF
:1009300059F878B12068C068800400280ADBE06DAF
:1009400020F48070E065E06DC00403D4E06D40F0F9
:100950000100E065204600F069FB10BDC06880071B
:10096000EBE7616D496BBDE81040084710B5806A40
:10097000C16D41F04001C165016E41F004010166A5
:1009800000F056FB10BD10B5806A00F050FB10BDA2
:1009900070B50446006881688268C1F3400112F0B6
:1009A000010F28D039BB816801F00D01012914D154
:1009B0008168124A1140891C816021680320086007
:1009C00000F05AFF054612E000F056FF401B0228D7
:1009D0000DD920688068C00709D0E06D40F0100094
:1009E000E065206E40F001002066012070BD2068A7
:1009F0008068C007E8D1002070BD0000C0FFFF7F05
:100A0000F8B50446002000902068816811F0010FBD
:100A100041D18168214A11422ED18168D5432940B4
:100A2000491C81601E48806800F0E07000020DD50E
:100A30001C481D490068B0FBF1F0401C00EB400071
:100A4000800000E0401E00900028FBD100F014FF61
:100A500006461BE0816811F0010F03D1816829402F
:100A6000491C816000F008FF801B02280ED9206815
:100A70000068C043C00709D0E06D40F01000E06599
:100A8000206E40F0010020660120F8BD206801685A
:100A9000C943C907DED10020F8BD00003F00008037
:100AA0000003005094000020400D0300FEE700000A
:100AB0000D4902688A4201D20C4901E00B492031FC
:100AC000D2B21423083AB2FBF3F2436C02F01F02D5
:100AD00023F003031944816404498031C164012176
:100AE0009140016570470000080402400008024080
:100AF0000179074A02EB81024265054A4432491EE8
:100B0000826501F01F0201219140C165704700001C
:100B1000FC08024030B5D0E913456560446D14B15E
:100B2000D0E91645656090F8444004F01F050124A3
:100B3000AC40056C6C60046863608368102B0368CC
:100B400003D099600068C26030BD9A600068C160DF
:100B500030BD7047002240F6B83306E00021491C42
:100B600089B29942FBD3521C92B28242F6D37047AB
:100B700072B6FEE7F8B500260446009690F85800D5
:100B80000D4601280BD0012084F858002046FFF7BD
:100B9000FFFE0100E06D04D040F010002AE00220CA
:100BA000F8BD20F4885040F00200E06520688268BB
:100BB000134B1A4005F080431A4342F00042826012
:100BC000104A20680EE0009B5B1C0093934209D3FF
:100BD000E06D20F0020040F01000E06584F85860FD
:100BE0000120F8BD8368DB0FEDD1E06D20F002003D
:100BF00040F00100E06584F858600846F8BD000048
:100C0000C0FFFF3F02DE04002DE9F84F0027044635
:100C1000009790F85800DFF8E0930D46B846012899
:100C200011D0012684F85860206802F0D7FE60B128
:100C3000E06D40F02000E0655FF0010784F8588027
:100C40003846BDE8F88F0220FBE7D5E900210C23E8
:100C5000206803EA91131844036B01F01F014FF061
:100C60001F0C0CFA01FCC2F3846223EA0C038A40D5
:100C700013430363206802F0B1FE8246206802F04D
:100C8000A9FE5AEA00003CD1AA6829682068B2F19E
:100C9000004F37D002F0AEFE2068416921F00041DC
:100CA000416120686969C268C2F3C1025200914083
:100CB0002A69042A31D000EB82002B68026EDFF82B
:100CC0003CC303F0F84302EA0C020B431A4342F020
:100CD0000041016620682A69A96900EB8200026E62
:100CE00022F080720A430266297F2268286901295E
:100CF00010D0002102EB8000026E22F000720A4345
:100D000002667DE0002202F075FE2068416941F034
:100D10000041C5E74FF00071ECE7002102F054FEFE
:100D2000400320684FF0000172D002F04DFE90FAAF
:100D3000A0F0B0FA80F1286842036ED090FAA0F0DB
:100D4000B0FA80F0814204D100221146206802F0FE
:100D500060FE0121206802F037FE400320684FF05A
:100D600001015DD002F030FE90FAA0F0B0FA80F1FF
:100D70002868420359D090FAA0F0B0FA80F081427E
:100D800004D100220121206802F043FE02212068E4
:100D900002F01AFE400320684FF0020148D002F032
:100DA00013FE90FAA0F0B0FA80F12868420344D014
:100DB00090FAA0F0B0FA80F0814204D10022022122
:100DC000206802F026FE0321206802F0FDFD4003AA
:100DD00020684FF0030133D002F0F6FD90FAA0F046
:100DE000B0FA80F1286842032FD090FAA0F0B0FA50
:100DF00080F0814204D100220321206802F009FE24
:100E00002068816811F0010F22D0ACE000E004E01E
:100E100002F0DAFDC0F384618DE7C0F3846091E7EE
:100E200002F0D2FDC0F38461A2E7C0F38460A6E7BC
:100E300002F0CAFDC0F38461B7E7C0F38460BBE78A
:100E400002F0C2FDC0F38461CCE7C0F38460D0E758
:100E50002A7B296850F8B03FC1F3120C23EA0C0337
:100E600002F0180C664A22FA0CF20A40134303609F
:100E7000E968494577D1286841031CD090FAA0F170
:100E8000B1FA81F1491C01F01F0109294FEA4031F3
:100E900032D8002912D000BF90FAA0F1B1FA81F146
:100EA00001F1010101F01F0106FA01F609D100BFAD
:100EB000C0F3846109E0C0F38461E3E7C0F38461B7
:100EC000EEE790FAA0F1B1FA81F101F1010101F030
:100ED0001F0146EA816102D1C0F3846003E090FA09
:100EE000A0F0B0FA80F000F1010000F01F0000EB6C
:100EF000400041EA005132E000290ED090FAA0F102
:100F0000B1FA81F101F1010101F01F0106FA01F6C8
:100F100006D100BFC0F3846106E0C0F38461F1E74D
:100F200090FAA0F1B1FA81F101F1010101F01F0184
:100F300046EA816102D1C0F3846003E090FAA0F038
:100F4000B0FA80F000F1010000F01F002D4A00EB24
:100F5000400002EB005041EA000141F00071AA6834
:100F6000206802F047FD28482A6802423FF466AE36
:100F700026488168264B01F0E0719A4202D0254B49
:100F80009A421CD10B021AD42268B2F1A04F7FF40E
:100F900055AE826841F4000122F0E0720A4382609B
:100FA0001D481E490068B0FBF1F0401C00EB4000FA
:100FB000800000E0401E00900028FBD13EE6184D66
:100FC000184BAA4207D1CD0105D422689A42F5D028
:100FD00041F0807109E0144DAA42EFD14A02EDD4EC
:100FE00022689A42EAD041F48001826822F0E072DD
:100FF0000A43826022E6000000007F4000F0FF0309
:10100000FFFF0700000020FE0000088000030050E2
:10101000000021C31000C09094000020400D030088
:10102000000052C700010050000084CB7047704799
:1010300070470000F8B54FF0000504002E460095FB
:1010400002D0E06D10B107E00120F8BD204600F0AD
:10105000EBF8266684F8586020688168C1F3407117
:1010600019B18168684A1140816020688168C1F3C4
:10107000007189B98168654A114041F080518160F1
:10108000634864490068B0FBF1F04000801C00E058
:10109000401E00900028FBD120688168C1F30071D8
:1010A00041B9E16D41F01001E165216E41F00101AE
:1010B0002166012502F092FCE16DC90600D430B131
:1010C000E06D40F01000E06501252846F8BDE06DB8
:1010D00020F4807040F00200E0652068806810F025
:1010E000010F11D14FF0A04080684B4900F0010082
:1010F000896801F00101084306D1484861688268A7
:1011000022F47C120A438260E168E06B627F08434C
:10111000A16841EA4231084394F8241040EA0140B2
:10112000012904D1218D3E4A02EB41410843E16A85
:1011300029B101F47871226B014342EA010022686F
:10114000D168384B19400143D16020680169626B56
:1011500021F0406111430161206802F03BFC70BB4B
:10116000207F94F83810800340EA41022168C86863
:1011700044F2020398431043C860206900282068A5
:1011800001690AD041F480310161206850F8C01F24
:1011900022696FF30D01114307E021F480310161F1
:1011A000206850F8C01F6FF30D01016094F84000F3
:1011B00001280CD02068016921F0010101616069FA
:1011C00001282068016B21F00F0111D013E0D4E950
:1011D00011010843D4E913121143084321680A6935
:1011E00040F2FC739A43104340F001000861E6E7C7
:1011F000226A521E11430163E06D20F0020040F0AC
:101200000100E06561E70000C0FFFF5FC0FFFF7FF6
:1012100094000020400D0300000100500003005026
:101220000000FEFF0740F0FF70B598B0054614219E
:1012300011A8FFF725F844216846FFF721F8214956
:10124000286888423BD1C401400500940F9068464D
:1012500000F010FC08B1FFF78BFC1B49C86C40F490
:101260000050C864C86C00F400501690C86C40F080
:101270000200C864C86C002600F00200169003202B
:101280001396CDE9114011A9104800F0C7F9114C8F
:101290000F4820602420C4E901068020C4E90360CF
:1012A000800060614000A0612020C4E9070620465C
:1012B00000F0FCF808B1FFF75BFC6C65A56218B0A4
:1012C00070BD000000010050001002400004004802
:1012D00008000240340100202DE9F0410446344862
:1012E00017468846806800F01F05206802F076FBEC
:1012F00000285AD194F85800012856D0012084F8CB
:101300005800002625B1052D02D0092D00D003E09C
:101310002046FFF775FB18B184F85860BDE8F081EE
:10132000E06D40F60161884340F48070E06521493A
:101330002068884202D14FF0A04100E0014681427E
:1013400000D01DB9E06D20F48010E065E06DC004B0
:1013500004D5206E20F00600206600E02666616D50
:101360001548C862616D15480863616D144848638B
:1013700021681C20086084F858602068416841F0AA
:10138000100141602068C16841F00101C16021681D
:101390003B4642464031606D00F0E8F821688A68BB
:1013A000084B1A40121D8A60B8E70220B6E7000019
:1013B00000030050000100500509000887090008DB
:1013C0006D090008C0FFFF7F10B590F8253000219F
:1013D0000122022B03D00421C163012122E0036812
:1013E0001C6824F00E041C60836C1C6824F4807458
:1013F0001C6003681C6824F001041C6090F84430F1
:10140000046C03F01F0302FA03F36360D0E91334A2
:101410005C60436D33B11C6824F480741C60D0E9B7
:1014200016345C6080F82520002280F824200846CD
:1014300010BD70B590F82520002401212346022A12
:1014400007D00422C26380F8251080F824300124DC
:1014500029E00268156825F00E0515600268156818
:1014600025F001051560826C156825F480751560FE
:1014700090F84420056C02F01F0201FA02F26A6043
:10148000D0E913255560426D32B1156825F4807599
:101490001560D0E91625556080F8251080F82430B5
:1014A000816B01B18847204670BD000070B5040013
:1014B0000CD02B4A21681420914209D2294A0A44AF
:1014C000B2FBF0F08000606427480AE0012070BDA4
:1014D000234A52420A44B2FBF0F080006064204884
:1014E00008382064022084F825000A6847F6F07066
:1014F0008243D4E902031843D4E904352B4318434B
:10150000A3691843E3691843236A1843104308602A
:101510002046FFF7CDFAA0680025B0F5804F00D136
:101520006560A16C20790860D4E9130141606068AE
:10153000401E032808D82046FFF7DAFA606D0560E0
:10154000D4E91601416002E06565A565E565E563DE
:10155000012084F8250084F82450002070BD00008C
:1015600008040240F8FFFDBF0000024070B50446C9
:1015700090F82400002501280CD0012084F82400D4
:1015800094F825600020012E06D084F8240002255E
:10159000284670BD022070BD022684F82560E063F5
:1015A0002068066826F0010606602046FFF7B2FABA
:1015B000206B00282068016802D041F00E0106E08F
:1015C00021F0040101602068016841F00A01016016
:1015D000A06C0168C90303D5016841F48071016002
:1015E000606D18B1016841F4807101602068016884
:1015F00041F001010160CBE770B5044600F03CF911
:101600000546601C02D004484068044400F034F9E8
:10161000401BA042FAD370BD880000202DE9F04F96
:10162000DFF82092002301260324A9F1040B85B0E2
:101630000F2709F1040AABF1040EFAE006FA03F5EC
:101640002A407CD091F804C00CF0030CBCF1010FCF
:1016500002D0BCF1020F26D1D0F808C0CDF800C0EE
:101660004FEA430C04FA0CF8CDF810C0DDF800C0C6
:101670002CEA080CCDF800C0D1F80C80DDF810C0C1
:1016800008FA0CF8DDF800C048EA0C08C0F8088039
:10169000D0F804C02CEA050C0D79C5F300159D4067
:1016A00045EA0C0545600D79ED43AD070ED0C568E0
:1016B0004FEA430804FA08FC25EA0C05D1F808C0F3
:1016C0000CFA08FC4CEA050CC0F80CC00D7905F0CA
:1016D0000305022D16D1DD0800EB850CCDF808C0FE
:1016E000DCF820805D074FEAD56C07FA0CF528EA94
:1016F00005080D6905FA0CF5DDF808C045EA08058E
:10170000CCF8205005684FEA430CCDF808C004FA25
:101710000CFC25EA0C0591F804C00CF00308DDF878
:1017200008C008FA0CF848EA0508C0F800804D68BF
:1017300015F4403F7CD0444DD5F860C000E077E020
:101740004CF0010CC5F860C02D6E23F0030C05F0C1
:10175000010500953D4D65440295AD684FEA837CD7
:101760004FEA1C7807FA08FC25EA0C05B0F1904F07
:1017700006D0DFF8DCC0604505D14FF0010C20E059
:101780004FF0000C1DE0DFF8CCC0604502D14FF0F7
:10179000020C16E0DFF8C0C0604502D14FF0030C28
:1017A0000FE0DFF8B8C0604502D14FF0040C08E04C
:1017B000DFF8ACC0604502D14FF0050C01E04FF0FE
:1017C000060C0CFA08FC4CEA050C029DC5F808C092
:1017D000D9F80050CC46D1F8048095435FEAC82878
:1017E00000D51543CCF80050DAF80050D446D1F8B3
:1017F000048095435FEA882800D51543CCF8005053
:10180000DBF80050DC46D1F8048095435FEA883865
:1018100000D51543CCF80050DEF80050F446D1F85E
:10182000048095435FEAC83800D51543CCF80050D2
:101830005B1C0A6832FA03F57FF400AF05B0BDE81F
:10184000F08F000008040140001002400000014039
:101850000004004800080048000C00480010004840
:10186000001400480069084000D0012070470AB108
:10187000816170478162704701488068704700004D
:1018800088000020024881684268114481607047E6
:101890008800002010B50024032000F073F80F200A
:1018A00000F008F808B1012401E000F025F8204616
:1018B00010BD000070B50E4E05460024706898B14A
:1018C0004FF47A71B1FBF0F00A490968B1FBF0F00E
:1018D00000F060FD40B9102D06D200222946501EAE
:1018E00000F030F8356000E00124204670BD0000B3
:1018F00088000020940000200A4882B0016E41F068
:1019000001010166016E01F001010091816D41F05C
:1019100080518165806D00F08050009002B000F031
:10192000A1B8000000100240002809DB00F01F02EF
:10193000012191404009800000F1E020C0F8001131
:1019400070470000F0B40E4B1B680C46C3F3022333
:10195000C3F10705042D00D90425191D072901D25B
:10196000002300E0DB1E012606FA05F1491E214096
:1019700099409E40761E16403143F0BC03F0B0BC47
:101980000CED00E0064900F0070208684FF6FF037F
:10199000184040EA0220034A1043086070470000E4
:1019A0000CED00E00000FA052B492C4B0A683221AF
:1019B0004A432B4940B1B0F5007F086829D020F494
:1019C000C06040F480602CE00868C0F34120022829
:1019D00004D051F8800F20F4807022E0D1F880000C
:1019E00020F48070C1F88000086820F4C06040F4E2
:1019F00000700860B2FBF3F0401C00E0401E4A6932
:101A0000520501D50028F9D1486940050AD50320BF
:101A10007047C0F34120022806D051F8800F40F4EF
:101A20008070086000207047D1F8800040F480701A
:101A3000C1F88000086820F4C06040F400700860BD
:101A4000B2FBF3F0401C00E0401E4A695205DBD5B2
:101A50000028F9D1D8E700009400002040420F0090
:101A6000007000400248816841F480418160704705
:101A7000007000402DE9F8430446006800269D4DA3
:101A800000035ED5A86D0027C00008D4A86D40F003
:101A90008050A865A86D012700F080500090DFF805
:101AA0005892D9F8001041F48071C9F80010FFF77E
:101AB000E3FE804606E000BFFFF7DEFEA0EB080075
:101AC00002282BD8D9F80000C005F5D5D5F890002C
:101AD00010F4407014D0216C814211D0D5F89000E0
:101AE000D5F8901020F4407041F48031C5F8901082
:101AF000D5F8901021F48031C5F89010C5F8900009
:101B0000C00711D0FFF7B8FE804641F2883907E0E0
:101B1000FFF7B2FEA0EB0801494501D903260BE00F
:101B2000D5F890008007F3D5D5F89000216C20F40B
:101B300040700843C5F890001FB1A86D20F0805098
:101B4000A8652078C00707D0D5F88800616820F024
:101B500003000843C5F888002078800707D5D5F82A
:101B60008800A16820F00C000843C5F888002078A0
:101B7000400707D5D5F88800E16820F03000084319
:101B8000C5F888002078000707D5D5F888002169B6
:101B900020F0C0000843C5F888002078800607D5EB
:101BA000D5F88800616920F440600843C5F88800D2
:101BB0002078400607D5D5F88800A16920F4405068
:101BC0000843C5F888002078000607D5D5F88800B6
:101BD000E16920F440400843C5F888002088C0052A
:101BE00007D5D5F88800216A20F440300843C5F8AD
:101BF00088002088800507D5D5F88800616A20F420
:101C000040200843C5F88800208840050FD5D5F846
:101C10008800A16A20F440100843C5F88800A06A33
:101C2000B0F5801F03D1E86840F48010E860208898
:101C300000050FD5D5F88800E16A20F4400008437C
:101C4000C5F88800E06AB0F5800F03D1E86840F479
:101C50008010E8602088C0040FD5D5F88800216B7B
:101C600020F040700843C5F88800206BB0F1807FF9
:101C700003D1E86840F48010E86020884FF00061EC
:101C800080040ED5D5F88800626B20F040601043C8
:101C9000C5F88800606B884203D1E86840F4801082
:101CA000E860208840040ED5D5F88800A26B20F0AB
:101CB00040601043C5F88800A06B884203D1E868F3
:101CC00040F48010E860208800040FD5D5F8880023
:101CD000E16B20F040500843C5F88800E06BB0F19C
:101CE000805F03D1E86840F48030E8603046BDE8AA
:101CF000F883000000100240007000402DE9F0471A
:101D00000E4605004FF0000725D0DFF8AC81D8F86B
:101D1000000000F00F00B0420CD2D8F8001021F003
:101D20000F013143C8F80010D8F8000000F00F0090
:101D3000B04210D12968614CC80741F2883A5AD0A4
:101D40006868DFF87C91032808D0022820682DD02D
:101D5000400500282CDB0120BDE8F08720688001C9
:101D6000F9D5E06800F00302E068C0F30310401CFE
:101D7000032A19D0534A00BFB2FBF0F0E268C2F365
:101D800006225043E268C2F34162521C5200B0FB8B
:101D9000F2F0484517D9A06810F0F00F0CD0880772
:101DA00011D5A86840B10EE0474AE5E78003D0E7C7
:101DB00000F0B6F8484506D9A06820F0F00040F0E1
:101DC0008000A0608027A068696820F003000843B5
:101DD000A060FFF751FD814606E000BFFFF74CFD14
:101DE000A0EB090151453AD8A068696800F00C00E1
:101DF000B0EB810FF2D12868810714D5400703D5D5
:101E0000A06840F4E060A0602878000705D5A068CD
:101E100020F4605040F4E060A060A068A96820F061
:101E2000F000084304E0802F03D1A06820F0F00008
:101E3000A060D8F80010404601F00F01B14216D959
:101E4000016821F00F0131430160FFF715FD0746DE
:101E500007E000BFFFF710FDC11B514501D903206A
:101E60007AE7D8F8000000F00F00B042F2D12878ED
:101E7000400705D5A068E96820F4E0600843A06049
:101E80002878000706D5A068296920F4605040EA48
:101E9000C100A06000F044F8A1680C4AC1F303112E
:101EA000515C01F01F01C8400949086009480068F9
:101EB000BDE8F047FFF7FEBC0020024000100240E2
:101EC00000B4C4040024F40000366E01206B000846
:101ED00094000020880000200548064900688968B1
:101EE000054AC1F30221515C01F01F01C84070474F
:101EF0009400002000100240306B0008054806499D
:101F000000688968054AC1F3C221515C01F01F01D4
:101F1000C84070479400002000100240306B000859
:101F2000184910B58868C0F381021748012A0BD000
:101F30008A68164BC2F38102022A06D08A68C2F36D
:101F40008102032A03D0002010BD184610BDCA68C4
:101F500002F00304CA68C2F30312521C032C02D01D
:101F6000B0FBF2F001E0B3FBF2F0CA68C968C2F35B
:101F700006225043C1F34161491C4900B0FBF1F016
:101F800010BD0000001002400024F40000366E0175
:101F90002DE9F84304007AD02078F84DC00747D0E7
:101FA000A868E96800F00C0001F003010C2802D0D9
:101FB000082817D001E0032914D06068B0F5803FED
:101FC00017D0B0F5A02F286817D020F480302860F3
:101FD000286820F4802028606068E0B1FFF74CFC9E
:101FE000064614E02868800322D560680028D2D015
:101FF0001EE0286840F48030EDE740F4802028603F
:10200000F7E700BFFFF738FC801B642870D828680A
:102010008003F7D50CE0FFF72FFC064605E000BF74
:10202000FFF72AFC801B6428F0D828688003F7D4C7
:10203000207880074CD5A868E96800F00C0001F012
:1020400003010C2802D004280DD001E002290AD097
:10205000E068002828682BD040F480702860FFF7E3
:102060000BFC064619E02868400502D5E068002808
:1020700091D06868217C20F0FE4040EA01606860F1
:10208000BF480068FFF716FC002800D120E072E18D
:10209000FFF7F2FB801B0228B8D828684005F7D567
:1020A0006868217C20F0FE4040EA016068600FE033
:1020B00020F480702860FFF7DFFB064605E000BFD4
:1020C000FFF7DAFB801B0228A0D828684005F7D468
:1020D0002078000729D560690028D5F8940013D02E
:1020E00040F00100C5F89400FFF7C6FB064606E085
:1020F00090E000BFFFF7C0FB801B022886D8D5F810
:1021000094008007F6D510E020F00100C5F8940097
:10211000FFF7B2FB064604E0FFF7AEFB801B022888
:1021200078D8D5F894008007F6D42078400761D598
:10213000A86D0026C00008D4A86D40F08050A865A6
:10214000A86D012600F0805000908E480168C905F6
:1021500011D40168804641F480710160FFF78CFB67
:10216000074604E0FFF788FBC01B022852D8D8F8C6
:102170000000C005F6D5A068012815D00528D5F8BF
:10218000900016D020F00100C5F89000D5F890001E
:1021900020F00400C5F89000A06841F28838B8B17A
:1021A000FFF76AFB07460EE0D5F8900040F001000B
:1021B000F0E740F00400C5F89000F5E7FFF75CFB9E
:1021C000C11B414526D8D5F890008007F6D50CE014
:1021D000FFF752FB074604E0FFF74EFBC11B4145EA
:1021E00018D8D5F890008007F6D41EB1A86D20F05D
:1021F0008050A8652078800629D5A0690028D5F8E8
:10220000980013D040F00100C5F89800FFF734FBA8
:10221000064606E075E000BFFFF72EFB801B022894
:102220006FD8D5F898008007F6D510E020F00100AF
:10223000C5F89800FFF720FB064604E0FFF71CFBFB
:10224000801B02285DD8D5F898008007F6D4E06995
:10225000F0B3A968C1F3810103295DD00228286881
:1022600020F08070286003D0FFF706FB04464BE0A7
:10227000FFF702FB064604E0FFF7FEFA801B022888
:102280003FD828688001F7D4F4E908016FF00F0205
:1022900002EB01110843218A5204490802EB415123
:1022A000A26841EA02210843217D4FF07E4249089D
:1022B00002EB41610843217B40EAC160E968324A90
:1022C00011400843E860286840F08070286000E012
:1022D0005EE0E86840F08070E860FFF7CDFA044601
:1022E00005E000BFFFF7C8FA001B022809D82868DC
:1022F0008001F7D54CE000BFFFF7BEFA001B0228B3
:1023000002D90320BDE8F88328688001F4D4E86886
:102310001E490840E8603BE00128F3D0E868226AE3
:1023200000F00301914226D1616A00F0F002090138
:10233000103991421FD1A26A00F4FE41B1EB022F85
:1023400019D194F82C2000F07841B1EBC26F12D172
:10235000218E00F4C00249084905A1F500119142FF
:1023600009D194F8341000F0C06049084906A1F181
:10237000007181420CD00120C4E70000001002402F
:1023800088000020007000400C809F01FCFFEEFEE2
:102390000020B7E710B5401EB0F1807F01D30120C7
:1023A00010BD4FF0E02460610F21601702F098FF2C
:1023B0000020A06107202061002010BD70477047F9
:1023C0007047000030B590F83C20012A42D001222D
:1023D00080F83C20CA688B6822F440721A434B682C
:1023E00022F480621A430B6822F400621A430B69DC
:1023F00022F480521A434B6922F400521A430B6BA9
:1024000022F480421A430B8B22F4702242EA0342E8
:10241000CB6922F080521A430F4D03680024AB426F
:1024200002D00E4DAB4210D10D8D22F4700242EA63
:1024300005520D6A22F080722A434D6A22F0007222
:102440002A43C96A22F000520A435A6480F83C4089
:10245000002030BD022030BD002C0140003401407E
:102460007047704770470000F0B590F83C20012A93
:102470003AD0012580F83C50022280F83D200368C4
:102480005A689C68194E1A4FB34201D0BB4204D11E
:1024900022F4700C4A6842EA0C02DFF858C002EAE3
:1024A0000C02D1F800C04CEA020CC3F804C0026868
:1024B000B2420DD0B2F1804F0AD00F4B9A4207D0F2
:1024C0000E4B9A4204D0BA4202D00D4B9A4204D12C
:1024D000896824F080031943916080F83D50002101
:1024E00080F83C100846F0BD0220F0BD002C0140F1
:1024F000003401408FFFFFFD000400400008004051
:1025000000400140704710B5040003D094F83D002E
:1025100010B107E0012010BD002084F83C002046E7
:1025200000F022F8022084F83D00211D206801F00F
:102530009BFE012084F8480084F83E0084F83F00A8
:1025400084F8400084F8410084F8420084F8430095
:1025500084F8440084F8450084F8460084F8470075
:1025600084F83D00002010BD10B586B0044614214B
:102570006846FDF785FE21682A48B1F1804F0AD0F0
:10258000294A91422DD1816D41F002018165806D12
:1025900000F0020044E0816D41F001018165816D30
:1025A00001F001010591C16C41F00101C164C06CF1
:1025B000694600F0010005904FF4004000900220B1
:1025C0000190002002900390012004904FF0904071
:1025D000FFF724F8002211461C20FFF7B3F91C2056
:1025E00010E0124A914211D1816D41F004018165E0
:1025F000806D002200F00400059011461E20FFF7B8
:10260000A1F91E20FFF790F906B010BD084A9142CB
:10261000FAD1016E41F480210166006E00F4802041
:102620000590F1E70010024000040040000800405F
:102630000048014090F83D10012901D00120704769
:10264000022180F83D100168CA6842F00102CA60A8
:102650000068104988420ED0B0F1804F0BD00E496F
:10266000884208D00D49884205D00D49884202D0E1
:102670000C49884207D181680B4A1140062906D0CF
:10268000B1F5803F03D0016841F0010101600020F5
:1026900070470000002C014000040040000800408A
:1026A00000340140004001400700010070B50446BD
:1026B00090F83C000025012814D0012684F83C60E5
:1026C000022084F83D0022689068364B184020F4C0
:1026D0007F409060086870282ED010DC10F00F0F3B
:1026E00003D021E04FF0020070BD4FEA2012072A0C
:1026F0001AD2DFE802F0525252524A3840002A4BB6
:10270000C21A984249D009DCB0F5805F0DD0B0F50F
:10271000005F1CD0B0F1101F06D13EE0102A3CD063
:10272000202A3AD0502A38D0012584F83D60002074
:1027300084F83C00284670BDCB68D1E901212068AF
:1027400001F0FDFD2068816841F0770109E0CB6868
:10275000D1E90121206801F0F2FD2068816841F48F
:1027600080418160E1E7CA684968206801F092FF12
:102770005021206806E0CA684968206801F0D2FF4D
:102780006021206801F0E6FDCFE7CA68496820684B
:1027900001F080FF40212068F4E7226801461046DE
:1027A000F0E7000088FFCEFF2000100010B50068A1
:1027B000B0F1804F27D10021134800F00DFC1349E0
:1027C00048B100EE100ADFED120AB8EE400A80EEC2
:1027D000801A81ED051A0F4A4869904202DA9FED8E
:1027E0000E0A04E00D4A904203DD9FED0D0A81EDD3
:1027F000050A05490020096848620146BDE8104005
:10280000014800F0D3B810BDC40100202000002012
:10281000002474490000C8430000C84300409C469F
:1028200000409C462DE9F041054690F83C0000260A
:102830000C46012810D0012085F83C0072B1042A12
:102840001CD0082A2CD00C2A50D00126002085F854
:102850003C003046BDE8F0810220FBE7D4E90012DD
:10286000E368286801F028FF2868816921F00C01DD
:10287000816128688169A26811430FE0D4E90012E0
:10288000E368286801F060FF2868816921F44061ED
:10289000816128688169A26841EA02218161D5E7E6
:1028A0002868D4E9002C277B036A016A21F480712F
:1028B0000162C16923F4206321F0030141EA0C01A4
:1028C00021F0F00C39074FF420674CEA116107EA58
:1028D00002221A43C16102622868C16921F00C0119
:1028E000C1612868C169A26811432BE02868D4E956
:1028F0000021E768036AD0F820C02CF4805CC0F89F
:1029000020C0D0F81CC023F420432CF4407C4CEAB7
:10291000012121F4704C4FF6FF7101EA07314FF4A9
:10292000204741EA0C0107EA02321A43C161026200
:102930002868C16921F44061C1612868C169A26841
:1029400041EA0221C16181E710B5040003D094F887
:102950003D0010B107E0012010BD002084F83C00CC
:10296000204600F022F8022084F83D00211D206856
:1029700001F07AFC012084F8480084F83E0084F8D5
:102980003F0084F8400084F8410084F8420084F855
:10299000430084F8440084F8450084F8460084F835
:1029A000470084F83D00002010BD704730B5044654
:1029B000002571B1042911D0082914D00C2917D091
:1029C000102918D094F8430094F84720012817D113
:1029D00014E094F83E0094F84420F7E794F83F00A0
:1029E00094F84520F2E794F8400094F84620EDE78B
:1029F00094F84100E8E794F84200E5E7012A01D0A5
:102A0000012030BD022079B1042916D008291DD03B
:102A10000C2949D010294AD084F8430084F8470093
:102A20000C2947D001253DE084F83E0084F844009D
:102A30002068C26842F0020210E084F83F0084F887
:102A400045002068C26842F0040207E084F84000B4
:102A500084F846002068C26842F00802C260012281
:102A6000206801F05FFC1649206888420ED0B0F162
:102A7000804F0BD01349884208D01349884205D0B3
:102A80001249884202D01249884207D18168114A0E
:102A90001140062906D0B1F5803F03D0016841F00E
:102AA00001010160284630BD84F84100B6E784F892
:102AB0004200B3E72068C26842F01002CEE700008F
:102AC000002C014000040040000800400034014098
:102AD00000400140070001002DE9F0410446006874
:102AE000C66805694FF00007A90713D5B10711D5CE
:102AF000F91E016101202077206880698007204647
:102B000002D0FFF753FE04E000F0F4F8204600F096
:102B1000B6F92777680716D5700714D521686FF0C6
:102B200004000861022020772068806910F4407F4B
:102B3000204602D0FFF73AFE04E000F0DBF8204622
:102B400000F09DF92777280715D5300713D52168A0
:102B50006FF008000861042020772068C0698007B2
:102B6000204602D0FFF722FE04E000F0C3F8204622
:102B700000F085F92777E80616D5F00614D5216808
:102B80006FF010000861082020772068C06910F4F9
:102B9000407F204602D0FFF709FE04E000F0AAF8CB
:102BA000204600F06CF92777E80708D0F00706D038
:102BB00021686FF001000861204600F0DFF9280667
:102BC00001D4A80408D5300606D521686FF4025058
:102BD00008612046FFF7F3FBE80508D5300606D567
:102BE00021686FF4807008612046FFF7E7FB6806F4
:102BF00008D5700606D521686FF0400008612046B0
:102C000000F0FFF9A80608D5B00606D521686FF0D8
:102C1000200008612046FFF7D3FBE80208D5F00248
:102C200006D521686FF4801008612046FFF719FC73
:102C3000A80208D5B00206D521686FF4001008611B
:102C40002046FFF70DFC680208D5700206D5216802
:102C50006FF4800008612046FFF704FC28020AD5C3
:102C6000300208D521686FF4000008612046BDE8F5
:102C7000F041FFF747BCBDE8F081000030B587B0F8
:102C8000044614216846FDF7FBFA2468164D00231C
:102C9000164902224FF09040AC420ED1CC6C44F069
:102CA0000104CC64C96C01F00101059140218DE85B
:102CB0000E00CDE90332694611E00D4DAC4210D152
:102CC000CC6C44F00104CC64C96C01F001010591A5
:102CD00080218DE80E000121CDE903316946FEF720
:102CE0009DFC07B030BD0000000400400010024011
:102CF00000480140704770B5044690F83C0000263B
:102D00000D4601280BD0012084F83C000C2A4AD043
:102D100007DC82B1042A20D0082A06D131E0022043
:102D200070BD102A53D0142A63D00126002084F8E5
:102D30003C00304670BD206801F016FB20688169B8
:102D400041F0080181612068816921F004018161FD
:102D5000206881692A69114311E0206801F052FB63
:102D60002068816941F4006181612068816921F4F2
:102D700080618161206881692A6941EA022181615B
:102D8000D4E7206801F086FB2068C16941F00801A2
:102D9000C1612068C16921F00401C1612068C16975
:102DA0002A69114311E0206801F0BCFB2068C16969
:102DB00041F40061C1612068C16921F48061C16191
:102DC0002068C1692A6941EA0221C161AEE7206831
:102DD00001F0F0FB2068016D41F0080101652068F9
:102DE000016D21F0040101652068016D2A6911431C
:102DF00011E0206801F016FC2068016D41F40061CB
:102E000001652068016D21F4806101652068016D14
:102E10002A6941EA0221016588E710B5040003D060
:102E200094F83D0010B107E0012010BD002084F8A7
:102E30003C00204600F022F8022084F83D00211DCD
:102E4000206801F011FA012084F8480084F83E005F
:102E500084F83F0084F8400084F8410084F8420080
:102E600084F8430084F8440084F8450084F8460060
:102E700084F8470084F83D00002010BD704770477B
:102E800030B50446022269B1042912D0082917D0AE
:102E90000C291CD0102921D094F84300012824D0FB
:102EA000012030BD94F83E000128F9D184F83E207D
:102EB0001DE094F83F000128F2D184F83F2016E08D
:102EC00094F840000128EBD184F840200FE094F8FA
:102ED00041000128E4D184F8412008E094F8420040
:102EE0000128DDD184F8422001E084F8432001224A
:102EF000206801F017FA194B20681949194A9842BD
:102F000009D0884207D0904205D0174DA84202D080
:102F1000164DA84203D1456C45F400454564206830
:102F200098420CD0B0F1804F09D0114B984206D096
:102F3000104B984203D0884201D0904207D181685B
:102F40000D4A1140062906D0B1F5803F03D0016833
:102F500041F001010160002030BD0000002C014063
:102F6000003401400040014000440140004801405D
:102F700000040040000800400700010010B5006890
:102F80001149884216D102F0E1FE10480022017872
:102F90000F4859B18168491C8160142907D30D4934
:102FA00082600B7883F001030B7000E0826001788F
:102FB00009B1C26010BDC168491CC1607D29F9D347
:102FC0000121C260017010BD000800400600002011
:102FD00020000020050000200246002041B1042905
:102FE00009D008290AD00C2901D11068006C70475B
:102FF0001068406B70471068806B70471068C06B3A
:103000007047704790F88410012918D0012180F88A
:1030100084102421C0F8881001680A680B6823F026
:1030200001030B6022F00051002242660368196020
:103030002021C0F8881080F88420104670470220B4
:1030400070477047704770B5044690F884000128B7
:103050001DD0012084F884002420C4F88800206852
:103060000568026822F0010202602068826822F08E
:1030700060620A438260204601F082FB206805609E
:103080002020C4F88800002084F8840070BD02204D
:1030900070BD70B5044690F8840001281DD0012051
:1030A00084F884002420C4F8880020680568026839
:1030B00022F0010202602068826822F060420A4326
:1030C0008260204601F05CFB206805602020C4F887
:1030D0008800002084F8840070BD022070BD704715
:1030E000704770472DE9F04103680446D8691968B4
:1030F0009A6840F60F0528424FF000054FF002068F
:103100000AD187067ED501F0200702F0805C57EADD
:103110000C0777D0616F3AE1B24FDFF8CCC21740AD
:1031200001EA0C0C57EA0C0C6CD05FEAC07C0CD0A6
:103130005FEAC15C09D54FF0010CC3F820C0D4F898
:10314000903043F00103C4F89030830709D5D307CA
:1031500007D023681E62D4F8903043F00403C4F80B
:10316000903043070AD5D30708D02668042333627A
:10317000D4F8903043F00203C4F8903003070CD524
:1031800001F020033B4308D0266808233362D4F8BB
:10319000903043F00803C4F8903003050BD54B0181
:1031A00009D526684FF400633362D4F8903043F0B9
:1031B0002003C4F89030D4F89030002B3DD0800626
:1031C00009D501F0200002F08051084303D0616F5F
:1031D00009B120468847D4F89000216889684906DB
:1031E00002D410F0280F2AD0204601F0AFFB20684F
:1031F000806840061ED52068083050E8001F21F086
:10320000400100E021E040E80012002AF3D1D4F8A8
:10321000800078B175498163D4F88000FEF709F920
:1032200000280AD0D4F88000816B00E02046BDE879
:10323000F04108472046FFF754FFBDE8F0812046E3
:10324000FFF74FFFC4F89050F7E7D4F86CC0202781
:10325000BCF1010F7ED15FEAC06C7BD55FEAC16C27
:1032600078D51020186220688068400645D5D4F8CB
:103270008010086840680004000CDED0B4F85C20C0
:103280008242DAD9A4F85E000868006880062CD46F
:10329000216851E8000F20F4807041E80002002A04
:1032A000F6D12068083050E8001F21F0010140E805
:1032B0000012002AF5D12068083050E8001F21F0E4
:1032C000400140E80012002AF5D1C4F88C70E56690
:1032D000206850E8001F21F0100140E80012002A89
:1032E000F6D1D4F88000FEF76FF82667B4F85C00DA
:1032F000B4F85E10401A81B230E0B4F85C00B4F863
:103300005E10401A81B2B4F85E00002895D0002902
:1033100093D0226852E8000F20F4907042E8000336
:10332000002BF6D12F4BDB432068083050E8002FEC
:103330001A4040E8002CBCF1000FF5D1C4F88C70A5
:10334000E5666567226852E8000F20F0100042E849
:10335000000300E006E0002BF4D126672046FFF7CB
:1033600070FE6AE7C60209D5560207D54FF48010F1
:1033700018622046BDE8F041FFF7B2BE03060AD549
:1033800001F0800302F40002134304D0A16F00296E
:103390007FF44CAF51E7420611D54A060FD52046BF
:1033A000026852E8001F21F0400142E80013002BA0
:1033B000F6D1C0F88870856700F037F93DE7020262
:1033C00006D54A0004D52046BDE8F041FFF787BE88
:1033D000C001C6D50029C4DA2046BDE8F041FFF798
:1033E00031BE00000100001020010004394900082E
:1033F00010B5040003D0D4F8880010B107E0012014
:1034000010BD002084F88400204600F027F8242016
:10341000C4F888002068016821F001010160A06AF9
:1034200010B1204601F0CEF9204601F021FD01281F
:10343000E6D02068416821F49041416020688168AD
:1034400021F02A0181602068016841F001010160DA
:103450002046BDE8104001F019BA000010B598B040
:103460000446142111A8FCF70BFF44216846FCF721
:1034700007FF1B492068884230D101200024CDE994
:1034800000046846FEF7F6FA08B1FDF771FB15482F
:10349000016E41F480410166016E01F48041169194
:1034A000C16C41F00101C164C06C11A900F00100C0
:1034B00016904FF4C06011900220CDE9120407204D
:1034C000CDE914404FF09040FEF7A8F800221146D5
:1034D0002520FEF737FA2520FEF726FA18B010BD92
:1034E000003801400010024030B4D0F88C30202B5E
:1034F00002D0022030BC7047A9B1A2B10023C3663C
:103500000A4C0368A3420BD05B681B0208D5046811
:1035100054E8003F43F0806344E80035002DF6D1C5
:1035200030BC01F0DFBD0120E4E700000080004076
:103530001148002190F87920782A07D380F8791073
:1035400080F87B1080F87A10C16705E0012280F8CE
:103550007A20C16780F87B1090F8792090F8781075
:10356000815410F8791F0122491C017002497831F9
:1035700001F10800FFF7B8BFF40200202DE9F8437D
:103580000446D0F88800984616460D46202802D0FA
:103590000220BDE8F883A5B19EB10020C4F89000D8
:1035A0002120C4F888001834FEF766F9A687814602
:1035B000E68754F8100C2027183CB0F5805F02D045
:1035C00003E00120E5E7206910B12E46002510E058
:1035D00000260EE08021204601F00CFEC0B9DEB1CD
:1035E00016F8010B21688862B4F85600401EA4F852
:1035F0005600B4F856004B464FF00002CDF800805C
:103600000028E7D14FF04001204601F0F3FD40B122
:10361000C4F888700320BCE735F8020BC0F308003B
:10362000E0E7C4F888700020B3E77047FEE70000C9
:1036300000B585B014216846FCF722FE4FF6FF70F6
:10364000009000200321CDE9020101906946024863
:10365000FDF7E4FF05B000BD0008004800B585B0E7
:1036600014216846FCF70CFE4FF6FF700090012015
:103670000190032003900020029069460248FDF764
:10368000CDFF05B000BD00000008004870B5002463
:1036900006462146204600F0FBF800F031F94FF4D1
:1036A0009635304600F000F9641CAC42F9D370BD89
:1036B00070B586B014216846FCF7E2FD1E48C16C67
:1036C00041F00401C164C16C01F004010591C16CB9
:1036D00041F00101C164C16C01F001010591C16CAF
:1036E00041F00201C164C06C032500F002000590A6
:1036F0004FF448700124002603958DE85100694677
:103700000E48FDF78BFF200203958DE851004FF026
:10371000904469462046FDF781FFFFF79FFFA069AF
:1037200040F48070A06105481830016841F40871C8
:10373000016006B070BD00000010024000040048A7
:10374000203AD2B2034B02EB420203EB021200F02A
:1037500019B80000386B0008F0B50E460746002582
:1037600040F23F1407E021463846FFF7E9FF103CDE
:103770006D1CA4B2761C3278002A01D0142DF2D32D
:10378000F0BD00002DE9F04791468A460026044628
:1037900000F07EF8DFF84080012700BF00F0B0F8AD
:1037A0005FF0000539F8160007FA05F108424046B7
:1037B00001D1808800E0408800F076F86D1C102D63
:1037C000F0D3641CE4B25146204600F061F8761C48
:1037D000182EE3D3BDE8F0879800002010B5FFF75E
:1037E00067FF002000F014F8084CE080E088A0F5A6
:1037F0000241303906D000F0AFFB002000F008F89D
:10380000E08010BD00F01FFBF7E7000098000020EB
:1038100070B51D490A6842F400720A600A6842F4F1
:1038200080720A60184C103C226842F0200222602C
:10383000164A1060086840F02000086000BF00BF12
:1038400000BF206840F020002060206840F48070B5
:103850002060FFF7EDFE4FF09041886A40F48070E1
:10386000886200BF00BF00BF0848001F006885B223
:10387000886940F480708861FFF7F0FE206840F4AA
:1038800000702060284670BD2804004814080048D5
:1038900010B50C460146202000F060F82146BDE836
:1038A0001040212000F05AB8134A116841F4007109
:1038B0001160114910390B6843F480730B600B6879
:1038C00043F020030B600D4B1860106840F020009F
:1038D000106000BF00BF00BF086840F02000086013
:1038E000086840F48070086000BF00BF00BF08682F
:1038F00040F400700860704728040048140800482D
:103900001449086840F400700860086840F480704A
:10391000086010481038026842F0200202600E4B26
:1039200022221A600A6842F020020A6000BF00BF2B
:1039300000BF016841F020010160016841F480711D
:10394000016000BF00BF00BF016841F40071016069
:10395000704700002804004814080048184B10B5B0
:103960001A6842F400721A601A6842F480721A608F
:10397000134A103A146844F020041460114C20607B
:10398000186840F02000186000BF00BF00BF10683A
:1039900040F020001060106840F4807010602160DA
:1039A000186840F02000186000BF00BF00BF10681A
:1039B00040F020001060106840F48070106010BD6E
:1039C000280400481408004800EB8100006E00F055
:1039D000F84070478068C0F3C00070478068C0F34B
:1039E00080007047C06810F4406F01D0002070471D
:1039F00001207047042303EAD15310B518444369EA
:103A0000C1F3045107248C40A3438A40134343610C
:103A100010BD00EB8100016E21F0004111430166F1
:103A20007047000030B589B020216846FCF728FCBB
:103A300019481849002401604902C0E90114C46012
:103A400004250461C0E9054504770121417701623D
:103A500080F82440C462046380F83810C46380F89E
:103A60004040FDF7E7FA08B1FDF782F80B480090F7
:103A70000620CDE901047F200594CDE903056946C0
:103A80000548FDF7C1F8002801D0FDF771F809B02D
:103A900030BD000000010050C80000200080F03E52
:103AA000094808B5816C41F004018164816C01F022
:103AB00004010091816C41F001018164806C00F08F
:103AC0000100009008BD000000100240F0B587B072
:103AD00014216846FCF7D4FB2D48C16C41F0040169
:103AE000C164C16C01F004010591C16C41F0200179
:103AF000C164C16C01F020010591C16C41F001016C
:103B0000C164C16C01F001010591C16C41F0020179
:103B1000C164C16C01F002010591C16C41F0080162
:103B2000C164C06C1B4E00F008004FF47F44059048
:103B3000012221463046FDF79AFE174F002204214C
:103B40003846FDF794FE0125CDE900450024029496
:103B5000694630460394FDF761FDCDE9005469469E
:103B60004FF090400294FDF759FD0720CDE9000485
:103B700069460A480294FDF751FD04200090CDE902
:103B80000154694638460394FDF748FD07B0F0BD7F
:103B90000010024000080048000C004800040048E3
:103BA00010B594B01C210DA8FCF76AFB34216846BF
:103BB000FCF766FB20481F49002401600921C0E989
:103BC000011440F2CF71C0E9031444618461FEF72F
:103BD0009AFC08B1FCF7CCFF1748FFF71EF908B1B3
:103BE000FCF7C6FF60200D904FF47A70CDE90E040B
:103BF00010941194129400220DA90F481394FFF70A
:103C00007AF808B1FCF7B4FF00944FF40050CDE906
:103C100004400194029403940694694606480C9467
:103C2000FEF7D0FB08B1FCF7A3FF0348FFF726F827
:103C300014B010BD00480140A802002010B58CB09F
:103C400000240594214804940694079408940A9447
:103C500009940094019402944FF080410394016010
:103C60004F21C0E90114611EC0E903148461FEF70D
:103C70004AFC08B1FCF77CFF4FF48050049004A983
:103C80001248FEF713FD08B1FCF772FF0F48FEF76C
:103C90005BFE08B1FCF76CFF089408A90B480A9476
:103CA000FEF7E2FB08B1FCF763FF0120CDE900401D
:103CB00002940022694605480394FEF7B3FD0028EC
:103CC00001D0FCF755FF0CB010BD0000C40100206E
:103CD00010B58EB000240794089409940A940B94AC
:103CE0000C941C2168460D94FCF7CAFA1F481E4923
:103CF00001600921C0E9011440F2CF71C0E9031449
:103D00008461FEF700FC08B1FCF732FF4FF48050ED
:103D1000079007A91548FEF7C9FC08B1FCF728FF72
:103D20001248FFF77AF808B1FCF722FF0B940BA9B1
:103D30000E480D94FEF798FB08B1FCF719FF6020C0
:103D400000904FF47A70CDE90104002269460748DB
:103D50000494FEF7D0FF08B1FCF70AFF0348FEF712
:103D60008DFF0EB010BD00000004004010020020C6
:103D700010B588B00024174800940194029403946D
:103D8000049405941249069401604F21C0E901147E
:103D900042F20F71C0E903148461FEF7B4FB08B16D
:103DA000FCF7E6FE4FF48050009069460948FEF7A4
:103DB0007DFC08B1FCF7DCFE049404A905480694D8
:103DC000FEF752FB002801D0FCF7D2FE08B010BD70
:103DD000000800405C020020184810B51649016038
:103DE0004FF416514160002181600C22C160C0E98E
:103DF00004128161C161016241628162FFF7F8FAD8
:103E000008B1FCF7B5FE00210C48FFF742F908B1F4
:103E1000FCF7AEFE00210948FFF715F908B1FCF7E1
:103E2000A7FE0648FFF7EEF8002803D0BDE81040D3
:103E3000FCF79EBE10BD0000003801407403002056
:103E4000FEE7FEE7704730B501210020FFF786FD51
:103E50004FF47A70FCF77EFE00210120FFF77EFD13
:103E600041F290711020FFF779FD4FF41C51602052
:103E7000FFF774FD01216120FFF770FD022146204C
:103E8000FFF76CFD48F210011320FFF767FD48F2C1
:103E9000FE011220FFF762FD4FF4A0610220FFF740
:103EA0005DFD41F230010320FFF758FD40F203347D
:103EB00021463020FFF752FD21463120FFF74EFD0D
:103EC00021463220FFF74AFDE51E29463320FFF741
:103ED00045FD03213420FFF741FD21463520FFF742
:103EE0003DFD14213620FFF739FD21463720FFF72D
:103EF00035FD21463820FFF731FD21463920FFF7F7
:103F00002DFD29463A20FFF729FD03213B20FFF72D
:103F100025FD21463C20FFF721FD4FF4A0513D2017
:103F2000FFF71CFD4FF400719220FFF717FD2146AB
:103F30009320FFF713FD40F60D019020FFF70EFDD3
:103F400041F218010320FFF709FDBDE8304040F2BF
:103F500073110720FFF702BD10B543F20801E320FB
:103F6000FFF7FCFC1221E720FFF7F8FC41F23121BA
:103F7000EF20FFF7F3FC00210120FFF7EFFC4FF4E7
:103F8000E0610220FFF7EAFC41F230010320FFF775
:103F9000E5FC00210420FFF7E1FC40F207210820A6
:103FA000FFF7DCFC00210920FFF7D8FC00210A20E4
:103FB000FFF7D4FC00210C20FFF7D0FC00210D20DE
:103FC000FFF7CCFC00210F20FFF7C8FC00211020D8
:103FD000FFF7C4FC07211120FFF7C0FC00211220CD
:103FE000FFF7BCFC00211320FFF7B8FCC820FDF749
:103FF00003FB41F290611020FFF7B0FC40F2272153
:104000001120FFF7ABFC3220FDF7F6FA1D2112203C
:10401000FFF7A4FC3220FDF7EFFA4FF40061132004
:10402000FFF79CFC14212920FFF798FC0B212B2083
:10403000FFF794FC3220FDF7DFFA00212020FFF784
:104040008DFC00212120FFF789FC07213020FFF79C
:1040500085FC40F207713120FFF780FC06213220F9
:10406000FFF77CFC40F204713520FFF777FC41F646
:1040700004713620FFF772FC04213720FFF76EFC35
:1040800000213820FFF76AFC40F206713920FFF763
:1040900065FC40F201713C20FFF760FC0F213D20E0
:1040A000FFF75CFC00215020FFF758FCEF21512066
:1040B000FFF754FC00215220FFF750FC40F23F1163
:1040C0005320FFF74BFC4FF41C516020FFF746FCD8
:1040D00001216120FFF742FC00216A20FFF73EFC2E
:1040E00000218020FFF73AFC00218120FFF736FCF9
:1040F00000218220FFF732FC00218320FFF72EFCF5
:1041000000218420FFF72AFC00218520FFF726FCF0
:1041100010219020FFF722FC00219220FFF71EFCC7
:1041200003219320FFF71AFC4FF488719520FFF7C5
:1041300015FC00219720FFF711FC00219820FFF7C4
:104140000DFC41F218010320FFF708FCBDE8104008
:1041500040F273110720FFF701BC704710B5FDF75F
:1041600091FB02F0B3FB16480021012283685B1C1F
:104170008360C82B02D3134B81601A70C3685B1C29
:10418000C360142B02D3104BC1601A7043685B1CD0
:104190004360322B02D30D4B41601A7003685B1CE5
:1041A0000360322B02D30A4B01601A7003695B1C57
:1041B0000361142B02D301610648027010BD000098
:1041C00074000020020000200300002001000020F5
:1041D000000000200400002010B594B0382168468B
:1041E000FCF74EF814210EA8FCF74AF84FF40070C3
:1041F000FDF7DAFB01200090000401900220032467
:10420000CDE907041421CDE90A100C900D90099412
:104210006846FDF7BDFE08B172B6FEE70F20CDE996
:104220000E04002010901190129002210EA8FDF7AC
:1042300065FD002801D072B6FEE714B010BD000085
:104240000248016841F470010160704788ED00E0A8
:104250000148FEF741BC0000C40100200148FEF700
:104260003BBC00005C0200202DE9F0430268264BB5
:10427000264D274E274C4FF08049984207D048459D
:1042800005D0A84203D0B04201D0A04203D122F011
:1042900070074A683A43204FDFF880C0DFF880801B
:1042A00098420DD048450BD0A84209D0B04207D063
:1042B000A04205D0B84203D0604501D0404503D1AB
:1042C00022F44075CA682A434D6922F080022A43CD
:1042D00002608A68C2620A688262984207D0A0427D
:1042E00005D0B84203D0604501D0404501D10969ED
:1042F0000163012141610169C90703D0016921F00E
:1043000001010161BDE8F083002C01400004004080
:1043100000080040003401400040014000440140DA
:104320000048014010B501F01F030121046A9940C3
:104330008C430462016A9A401143016210BD10B5BA
:10434000846842EA032224F47F440A4322438260C1
:1043500010BD00008268034B1A400A4342F0070177
:10436000816070478FFFCFFF2DE9F043056A026A35
:1043700022F001020262436882691C4C25F00205AA
:1043800022400C6822F0030214438A68194E2A4323
:10439000174D194FDFF864C0DFF86490A84207D0CA
:1043A000B04205D0B84203D0604501D0484506D19F
:1043B00022F00808CA6842EA080222F00402A84271
:1043C00007D0B04205D0B84203D0604501D048457F
:1043D00005D14D6923F440731D438B692B43436022
:1043E0008461496841630262BDE8F0838FFFFEFF8C
:1043F000002C0140003401400040014000440140D5
:1044000000480140F0B5056A026A22F0100202621B
:1044100042688369194C1B4E23400C6823F4407397
:1044200043EA042425F020038D6843EA0513144D64
:10443000A84201D0B04206D1CF6823F0800343EAFE
:10444000071323F04003A8420AD0B04208D00E4D13
:10445000A84205D00D4DA84202D00D4DA84207D16B
:104460004D6922F4406242EA85028D6942EA850282
:1044700042608461496881630362F0BDFF8FFFFE83
:10448000002C014000340140004001400044014044
:1044900000480140F0B5056A026A22F480720262A7
:1044A0004368C269194C1B4E22400C6822F003027B
:1044B000144325F400728D6842EA0522144DA84287
:1044C00001D0B04206D1CF6822F4006242EA07224E
:1044D00022F48062A8420AD0B04208D00E4DA84211
:1044E00005D00E4DA84202D00D4DA84207D14D690E
:1044F00023F4405343EA05138D6943EA05134360EF
:10450000C4614968C1630262F0BD00008FFFFEFF15
:10451000002C0140003401400040014000440140B3
:1045200000480140F0B5056A026A22F48052026236
:104530004268C369194C1B4E23400C6823F4407336
:1045400043EA042425F400538D6843EA0533144DEF
:10455000A84201D0B04206D1CF6823F4004343EA19
:10456000073323F48043A8420AD0B04208D00E4D4E
:10457000A84205D00D4DA84202D00D4DA84207D14A
:104580004D6922F4404242EA85128D6942EA851261
:104590004260C461496801640362F0BDFF8FFFFEA1
:1045A000002C014000340140004001400044014023
:1045B0000048014030B5056A026A22F48032026286
:1045C0004268036D114C23400C681C4325F40033F2
:1045D0000D8943EA05430E4DA8420BD00D4DA8426C
:1045E00008D00D4DA84205D00C4DA84202D00C4D6C
:1045F000A84204D14D6922F4803242EA0522426089
:10460000046549688164036230BD00008FFFFEFFCE
:10461000002C0140003401400040014000440140B2
:104620000048014030B5046A026A22F48012026236
:104630004268036D114D24F400142B400D6843EAC9
:1046400005230D8944EA05540D4DA8420BD00D4DAC
:10465000A84208D00C4DA84205D00C4DA84202D06B
:104660000B4DA84204D14D6922F4802242EA8522F2
:10467000426003654968C164046230BDFF8FFFFE7C
:10468000002C014000340140004001400044014042
:104690000048014010B5036A046A24F00104046272
:1046A000846924F0F00444EA021423F00A020A4365
:1046B0008461026210BD000070B5056A046A24F0CE
:1046C000010404628469124EB0420ED0B0F1804FF2
:1046D0000BD0104EB04208D00F4EB04205D00F4E56
:1046E000B04202D00E4EB04203D124F00304144372
:1046F00001E044F001041A0724F0F00444EA1262D5
:1047000025F00A0301F00A0119438261016270BDBC
:10471000002C01400004004000080040003401402B
:104720000040014010B5036A046A24F010040462DA
:10473000846923F0A00324F4704444EA023243EA7B
:1047400001118261016210BD30B5046A056A25F06D
:1047500010050562856925F4407545EA022222F4B8
:1047600070454FF6FF7202EA033224F0A0032A4399
:10477000A02404EA011119438261016230BD0000E6
:1047800030B5416EB9B1026891689268C1F3426177
:104790000B4B520F9C5CE50003F10804A25CB5FBD7
:1047A000F2F2A0F86A205A5C615CD200B2FBF1F12F
:1047B000A0F8681030BD0121A0F86A10F8E70000E9
:1047C000106B000890F82810090706D501684A68A0
:1047D000836B22F400421A434A6090F82810C907FC
:1047E00006D001684A68C36A22F400321A434A605C
:1047F00090F82810890706D501684A68036B22F4EF
:1048000080321A434A6090F82810490706D501689B
:104810004A68436B22F480221A434A6090F82810B9
:10482000C90606D501688A68C36B22F480521A4310
:104830008A6090F82810890606D501688A68036C9A
:1048400022F400521A438A6090F82810490611D5C4
:1048500001684A68436C22F480121A434A60416C32
:10486000B1F5801F06D101684A68836C22F4C0024A
:104870001A434A6090F82810090606D501684A686C
:10488000C06C22F4002202434A6070472DE9F843CD
:1048900000260446C0F89060FCF7EEFF80462068D2
:1048A00000684FF0200500076FF07E4713D54346A0
:1048B000002229042046009700F09CFC58B1216892
:1048C00051E8000F20F0800041E80002002AF6D1F4
:1048D000C4F8885021E020680068400722D543468C
:1048E00000224FF480012046009700F083FCC8B1FD
:1048F000216851E8000F20F4907041E80002002A7E
:10490000F6D12068083050E8001F21F0010140E88E
:104910000012002AF5D1C4F88C5084F8846003207A
:10492000BDE8F883C4F88850C4F88C5044F86C6F24
:10493000666026760020F3E710B5806A0021A0F8B3
:104940005E10A0F85610FEF7CCFB10BD10B5026843
:1049500052E8001F21F4907142E80013002BF6D1B9
:104960000E4B0268083252E8001F194042E800145A
:10497000002CF6D1C16E012908D1016851E8002F41
:1049800022F0100241E80023002BF6D12021C0F8CC
:104990008C100021C166416710BD0000FEFFFFEFD3
:1049A00010B5B0F86020D0F88C300168222B04D00C
:1049B000886940F00800886110BD496A836D114024
:1049C0001980816D891C8165B0F85E10491EA0F8C0
:1049D0005E10B0F85E100029EED1026852E8001FA8
:1049E00021F4907142E80013002BF6D101680831E0
:1049F00051E8002F22F0010241E80023002BF5D1FD
:104A00002021C0F88C10002141670167154B026816
:104A10009A420BD05268120208D5036853E8002F5F
:104A200022F0806243E80024002CF6D1C26E012AF5
:104A300002D0FEF77DFD10BDC166026852E8001F7E
:104A400021F0100142E80013002BF6D10168CA6979
:104A5000D243D20601D410220A62B0F85C10FEF7ED
:104A6000F0FA10BD008000402DE9F0470446B0F890
:104A700060600068C569D0F800A0D0F80880D4F85C
:104A80008C10222905D0816941F008018161BDE8BF
:104A9000F087B4F868704FF0000975E02068406A4C
:104AA000A16D30400880A06D801CA065B4F85E0048
:104AB000401EA4F85E002068C569690730D0E90788
:104AC0000AD05FEACA5107D501210162D4F89000EB
:104AD00040F00100C4F89000A8070BD55FEAC87049
:104AE00008D0216802200862D4F8900040F0040049
:104AF000C4F8900068070BD55FEAC87008D0216839
:104B000004200862D4F8900040F00200C4F890003D
:104B1000D4F8900020B12046FEF7E3FAC4F8909054
:104B2000B4F85E0080BB216851E8000F20F480706B
:104B300041E80002002AF6D1304A2068083050E8E7
:104B4000001F114040E80013002BF6D12020C4F8CC
:104B50008C00C4F874904946C4F87090284A2068C4
:104B600090420BD04068000208D5226852E8000F3E
:104B700020F0806342E800300028F6D1E06E012882
:104B800025D02046FEF7D4FC0FB1A80686D4B4F891
:104B90005E0000283FF47BAFB4F8681081427FF6D6
:104BA00076AF2068083050E8001F21F0805140E8BF
:104BB0000012002AF5D113486067216851E8000F00
:104BC00040F0200041E80002002AF6D15FE7E166EC
:104BD000216851E8000F20F0100041E80002002A8F
:104BE000F6D12068C169C943C90601D41021016208
:104BF000B4F85C102046FEF724FAC5E7FEFFFFEF8D
:104C000000800040A149000810B5B0F86020D0F83D
:104C10008C300168222B04D0886940F0080088613C
:104C200010BD496A1140826D1170816D491C81650A
:104C3000B0F85E10491EA0F85E10B0F85E100029B2
:104C4000EED1016851E8002F22F4907241E8002370
:104C5000002BF6D10168083151E8002F22F0010243
:104C600041E80023002BF5D12021C0F88C10002151
:104C700041670167154B02689A420BD052681202D5
:104C800008D5036853E8002F22F0806243E800242F
:104C9000002CF6D1C26E012A02D0FEF749FC10BDED
:104CA000C166026852E8001F21F0100142E80013BB
:104CB000002BF6D10168CA69D243D20601D4102272
:104CC0000A62B0F85C10FEF7BCF910BD008000402D
:104CD0002DE9F0470446B0F860600068C569D0F877
:104CE00000A0D0F80880D4F88C10222905D0816962
:104CF00041F008018161BDE8F087B4F868704FF0B9
:104D0000000975E02068406AA16D30400870A06D10
:104D1000401CA065B4F85E00401EA4F85E00206848
:104D2000C569690730D0E9070AD05FEACA5107D5DB
:104D300001210162D4F8900040F00100C4F8900015
:104D4000A8070BD55FEAC87008D021680220086266
:104D5000D4F8900040F00400C4F8900068070BD528
:104D60005FEAC87008D0216804200862D4F8900077
:104D700040F00200C4F89000D4F8900020B1204622
:104D8000FEF7AFF9C4F89090B4F85E0080BB2168DC
:104D900051E8000F20F4807041E80002002AF6D1AB
:104DA000304A2068083050E8001F114040E80013E6
:104DB000002BF6D12020C4F88C00C4F874904A4629
:104DC000C4F870902849206888420BD040680002DF
:104DD00008D5216851E8000F20F0806041E8000309
:104DE000002BF6D1E06E012825D02046FEF7A0FB6F
:104DF0000FB1A80686D4B4F85E0000283FF47BAF5C
:104E0000B4F8681081427FF676AF2068083050E829
:104E1000001F21F0805140E80012002AF5D113480C
:104E20006067206850E8001F41F0200140E8001250
:104E3000002AF6D15FE7E266216851E8000F20F012
:104E4000100041E80002002AF6D12068C169C94378
:104E5000C90601D410210162B4F85C102046FEF7A7
:104E6000F0F8C5E7FEFFFFEF00800040094C0008A6
:104E70002DE9F0410446016880682269E369104326
:104E8000626900251A431043DFF82CC20A688B4B75
:104E90001A4002430A6020684168E26821F44051E8
:104EA000114341602168A069614501D0226A104325
:104EB0008A68834B1A4002438A602068C16A626A2A
:104EC00021F00F011143C1627E4923687E488B4265
:104ED0000DD1D0F8880010F0030006D0012855D07D
:104EE000022842D003283FD152E001203DE077491B
:104EF0008B420BD1D0F8880010F00C0035D004287C
:104F000033D0082840D00C282ED141E070498B4284
:104F10000BD1D0F8880010F0300026D0102835D002
:104F2000202831D030281FD132E06A498B420BD182
:104F3000D0F8880010F0C00017D0402826D0802874
:104F400022D0C02810D123E063450DD1D0F88800CD
:104F500010F4406009D0B0F5806F17D0B0F5006F45
:104F600012D0B0F5406F13D010205B495B4F002684
:104F70004FF4004263453BD160B1022813D00428AE
:104F80000BD0082872D10DE00220EEE70420ECE7F8
:104F90000820EAE7FCF7A0FF01E0FCF7C1FF0100F1
:104FA00001D17CE01146606A37F810206768B1FBD8
:104FB000F2F007EB4703834270D8B0EB073F6DD8A0
:104FC000002308461946FBF723F9090241EA10615C
:104FD00002027808101871413A460023FBF718F9CD
:104FE0003F4AA0F54071914258D82168C86056E008
:104FF000E3694FF6EF7893422CD109284ED2DFE8CF
:1050000000F00508114D0D4D4D4D1000FCF764FFEB
:1050100001E0FCF773FF010004D140E0FCF780FFE2
:10502000F9E71146606A37F81000B1FBF0F0410073
:10503000606801EB5001B1FBF0F0A0F110014145B7
:105040002CD84FF6F0710140C0F3420001432068B4
:10505000C16024E0092821D2DFE800F00509122010
:105060000E2020201100FCF737FF02E016E0FCF7CD
:1050700045FF010004D112E0FCF752FFF9E71146A9
:10508000606A37F81000B1FBF0F1606801EB500185
:10509000B1FBF0F0A0F1100141450AD90125012032
:1050A000A4F86A0024F8680F2846E6602661BDE887
:1050B000F08180B299E7000000800040F369FFCFE3
:1050C000FFF4FF110038014000100240004400408E
:1050D00000480040004C00400024F400F86A00083A
:1050E000FFFC0F0070B58165A0F85C20A0F85E2081
:1050F0000023436781684FF48056FF24B14204D1F6
:105100000169F9B940F2FF1122E07F25C1B1B1F187
:10511000805F1AD0A0F86030C0F890302221C0F82B
:105120008C100168083151E8003F43F0010341E869
:105130000034002CF5D1416EB1F1005F0ED031E0AA
:10514000016941B9A0F86040E6E7016919B13F2162
:10515000A0F86010E0E7A0F86050DDE7B0F8681054
:1051600091421FD88168B14201D10169B9B11D498D
:105170004167016941B1026852E8001F41F4807142
:1051800042E80013002BF6D10168083151E8002FE6
:1051900042F0805241E80023002BF5D120E0124973
:1051A0004167F1E78168B14201D1016969B10F49F5
:1051B0004167016959B1026852E8001F41F49071DA
:1051C00042E80013002BF6D10AE009494167026862
:1051D00052E8001F41F0200142E80013002BF6D1F5
:1051E000002070BDD14C0008694A0008094C000835
:1051F000A14900082DE9F047994617460D46044697
:105200004FF00008089E33E0701C31D0FCF734FBEF
:10521000A0EB0900B04218D8BEB120680168490768
:1052200026D5802D24D0402D22D0C169C94309073D
:105230000DD4082505622046FFF788FBC4F890507E
:1052400084F884800120BDE8F0870320FBE7C06973
:10525000C04300050CD421684FF40060086220466A
:10526000FFF774FB2020C4F8900084F88480ECE7FA
:105270002068C06935EA000004D00020B842C3D0DD
:105280000020E0E70120F9E70148FDF72BBF00000F
:1052900074030020FEE700000FB4054B10B503A90E
:1052A000044A029800F040F910BC5DF814FB0000BD
:1052B000295D0008C00000200FB4084B10B504A9F8
:1052C00002AA039800F030F9044602A9002000F079
:1052D000C2FC204610BC5DF814FB0000575C0008BF
:1052E0000907090E002804DB00F1E02080F8001413
:1052F000704700F00F0000F1E02080F8141D7047A7
:1053000000B52DED048BB0EE409AF0EE609A83B0BC
:1053100051EC190BFBF750FA41EC180B18EE100A80
:1053200018EE901A8DED008B002818BF012008435D
:1053300020F00040C0F17F6000F1E040C00F14D0C9
:1053400019EE101A19EE900A8DED009B002918BF76
:105350000121084320F00040C0F17F6000F1E040EF
:10536000C00F04BF012000F017F8B0EE480A03B0E8
:10537000F0EE680ABDEC048B00BD02E008C8121F05
:1053800008C1002AFAD170477047002001E001C12E
:10539000121F002AFBD170470149086070470000C6
:1053A000C40000202DE9FF5F82B00021DDE9043058
:1053B000020DDDF840B0034318D044F61050A2F2BD
:1053C000FF3242431514119801281FD0A5EB0B00A2
:1053D000401C5FEA000A4FF000064E4FDFF838919C
:1053E000B046504615D5CAF1000413E011980124C7
:1053F0004AA3012801D16FEA0B010298119AC0E972
:105400000031C0E9024206B0BDE8F09FCBF10000D8
:10541000DFE704460021404A491842EB0450CDE939
:10542000001012E0E00707D032463B4640464946AE
:10543000FBF7E1F88046894632463B46104619465E
:10544000FBF7D9F806460F466410002CEAD1DDE9D7
:105450000401DDE90023BAF1000F06DAFBF7CBF80F
:1054600042464B46FBF7C7F805E0FBF736F94246E4
:105470004B46FBF732F904460E460022284BFBF759
:1054800005FA03D84FF0FF30014607E00022254B14
:1054900020463146FBF708F8FBF7DFF9102409E056
:1054A000002C0ADB0A220023FAF7B2FE039B3032FB
:1054B0001A55641E50EA0102F2D1641C039AC4F129
:1054C00011031444119A012A03D0012208430DD17B
:1054D0000AE0084304D000204FF0110B119072E74E
:1054E000A3EB0B056D1E0DE05B4504DD4FF00002E4
:1054F00005F1010504E003DA4FF00002A5F1010512
:10550000002AECD002981199C0E90231C0E90045A7
:1055100079E70000000014400000F03F3000000078
:105520000000F0430000E03F2DE9FF4F95B09B469F
:105530008946064600250FE2252877D10024274614
:10554000F84A0121059400E0044316F8013F203B8E
:1055500001FA03F01042F7D130782A2811D06FF009
:105560002F033078A0F13002092A16D8059A44F0AA
:10557000020402EB820203EB42021044761C059007
:10558000EFE759F8042B0592002A03DA504244F45D
:105590000054059044F00204761C30782E2816D171
:1055A00016F8010F44F004042A280DD06FF02F02E2
:1055B0003078A0F13003092B09D807EB870302EB01
:1055C0004303C718761CF3E759F8047B761C307840
:1055D0006C280FD006DC4C2817D068280DD06A281C
:1055E00014D104E0742810D07A280FD10DE044F4CF
:1055F00000140AE044F4801401E044F4401472788A
:10560000824202D104F58014761C761C307866281C
:105610000BD013DC582877D009DC002875D045283A
:10562000F6D04628F4D047281AD19DE118E0632827
:1056300035D0642879D0652812D195E1702873D0CF
:1056400008DC6728F1D069286FD06E280DD06F284C
:1056500006D1B5E073282CD0752875D0782874D081
:105660005A46179990476D1C75E1C4F30250022801
:1056700009D003280DD0D9F8001004280DD00D60F2
:1056800009F1040967E1D9F80010EA17C1E90052ED
:10569000F6E7D9F800100D80F2E70D70F0E719F881
:1056A000041B8DF8001000208DF80100EA4601204F
:1056B00003E059F804AB4FF0FF3061074FF00001F1
:1056C00002D40DE008F101018846B9420FDA8045A5
:1056D000F8DB1AF808100029F4D108E008F10101FC
:1056E00088468142FADB1AF808100029F6D105989D
:1056F0005B46A0EB080721463846179A00F094FA5B
:10570000284400EB080507E04DE029E10DE01AF818
:10571000010B5A4617999047B8F10108F7D25B463A
:1057200021463846179A13E142E00A220092C4F358
:1057300002524FF0000A022A08D059F804CB032A7B
:105740004FEAEC710AD00DE029E02AE009F10701E7
:1057500021F00702F2E802C1914609E00FFA8CFC41
:105760004FEAEC71042A03D14FFA8CFC4FEAEC713A
:10577000002907DA0A460021DCF1000C61EB020186
:105780002D2202E0220504D52B228DF804200122CF
:1057900003E0E20701D02022F7E7904659E00A2112
:1057A00002E010220DE010214FF0000A00910BE002
:1057B00010224FF0000A44F004040827009203E08E
:1057C00008224FF0000A0092C4F30252022A05D0C8
:1057D00059F804CB0021032A08D009E009F1070198
:1057E00021F00702F2E802C1914605E01FFA8CFCA5
:1057F000042A01D10CF0FF0C4FF00008220728D535
:10580000702806D0009B83F0100353EA0A0305D0EA
:105810000EE040228DF80420012208E05CEA01023B
:1058200006D030228DF804208DF805000222904623
:10583000009B83F0080353EA0A030AD15CEA0102E1
:1058400001D1620705D530228DF804204FF0010800
:105850007F1E582804D034A003900EA802900DE0BB
:1058600036A0F9E753466046009AFAF7D1FC844621
:105870000398825C0298401E029002705CEA01006C
:10588000F0D1029806A9081A00F1200A600702D593
:1058900024F4803400E00127574502DDA7EB0A001D
:1058A00000E0002000EB0A01009005984144401AF6
:1058B0000590E00306D45B462146179A059800F050
:1058C000B3F90544002706E001A85A46C05D1799C0
:1058D00090476D1C7F1C4745F6DBE0030CD55B460B
:1058E0002146179A059800F09FF9054404E03020FE
:1058F0005A46179990476D1C0099481E0090002940
:10590000F5DC08E0029802995A460078491C029199
:10591000179990476D1CBAF10001AAF1010AF1DC58
:1059200065E1000009280100303132333435363763
:1059300038396162636465660000000030313233DB
:10594000343536373839414243444546000000007B
:1059500000F058F90544761C307800287FF4ECAD4F
:1059600019B02846BDE8F08F620700D4062709F178
:10597000070222F0070CFCE80223E14603F000488E
:105980005FEA080C02D00FF2702C0DE05FEA045CB5
:1059900002D50FF2682C07E05FEAC47C02D00FF258
:1059A000602C01E0AFF2700C4FF0FF3823F00043A1
:1059B000CDF850C065280CD006DC452809D0462813
:1059C0001DD047283DD13DE0662818D067287ED1FC
:1059D00038E00021112F01DB112000E0781CCDE917
:1059E000000106A90EA8FFF7DDFCDDE90F010E9A04
:1059F00003910021009207F1010A04914DE04FF05C
:105A000000400097CDE9011006A90EA8FFF7CAFCD7
:105A1000DDE90F0203920E9B11990022DDF80CA024
:105A20000093049211B9791C00EB010AB7EB0A004C
:105A300004D4C0F1FF3007F1010A0490AAEB07007B
:105A4000019044E0012F00DA01270021112F01DD30
:105A5000112000E03846CDE9000106A90EA8FFF7A5
:105A6000A1FCDDE90F010E9A03910021049100923F
:105A7000BA4621070CD40399514500DA8A46BAF197
:105A8000010F05DD009AAAF10101515C302908D00F
:105A9000B84202DA10F1040F06DA0121CDE9011053
:105AA00015E0AAF10101E9E7002805DC04990144A9
:105AB0000491AAEB000102E0411C514500DD8A4639
:105AC0000499401A401C01904FF0004002902007BA
:105AD00004D40198504501DBCDF8048000208DF8F6
