:020000040800F2
:1000000080060020ED010008BB3400088D2D00089B
:10001000B934000841090008CB3D00080000000089
:10002000000000000000000000000000D3370008BE
:10003000E709000800000000BD340008D5370008BB
:10004000070200080702000807020008070200086C
:10005000070200080702000807020008070200085C
:10006000070200080702000807020008070200084C
:10007000070200080702000807020008070200083C
:10008000070200080000000007020008070200083D
:10009000070200080702000807020008070200081C
:1000A000070200080702000807020008070200080C
:1000B000070200089D380008A93800080702000858
:1000C00007020008070200080702000807020008EC
:1000D00007020008070200080702000807020008DC
:1000E00007020008070200080702000807020008CC
:1000F00007020008070200080702000800000000CD
:1001000000000000070200080000000007020008CD
:1001100007020008000000000702000807020008AC
:10012000070200080702000807020008070200088B
:10013000070200080000000000000000070200089D
:10014000070200080702000800000000000000008D
:10015000000000000000000000000000000000009F
:10016000000000000000000000000000070200087E
:10017000070200080000000000000000000000006E
:10018000000000000702000800000000000000005E
:10019000000000000000000000000000000000005F
:1001A000000000000000000007020008070200082D
:1001B000070200080702000807020008000000000C
:1001C000000000000702000800000000000000001E
:1001D0000702000807020008DFF80CD000F03CFA24
:1001E00000480047194D0008800600200648804757
:1001F00006480047FEE7FEE7FEE7FEE7FEE7FEE70C
:10020000FEE7FEE7FEE7FEE78D380008D9010008AB
:10021000D2B201E000F8012B491EFBD27047002248
:10022000F6E710B513460A4604461946FFF7F0FFF5
:10023000204610BD00F0004230F000400AD0C10D51
:1002400001F56071C0F3160042EA0151C20840078F
:100250001143704700200146704730B50B460146F8
:1002600000202022012409E021FA02F59D4205D355
:1002700003FA02F5491B04FA02F52844151EA2F1FF
:100280000102F1DC30BD2DE9F05F05460020924609
:100290009B4688460646814640241BE02846414648
:1002A0004746224600F0F9F953465A46C01A914192
:1002B00010D311461846224600F0E0F92D1A67EBDC
:1002C00001084F4622460120002100F0D7F917EB24
:1002D00000094E41201EA4F10104DFDC48463146EE
:1002E0002A464346BDE8F09F2DE9FE4F804681EA4D
:1002F0000300C00F0C46009021F0004123F00045A0
:10030000B8EB0200A94105D24046214690461C4662
:100310000B46024623F00040104347D0270DC7F399
:100320000A00C3F30A510290401A019040286BDA88
:10033000C3F3130040F4801B0098924620B10023C1
:10034000D2EB030A63EB0B0B01985946C0F1400254
:10035000504600F093F906460D4650465946019A1C
:1003600000F0ABF910EB08006141002487EA11525C
:1003700084EAE7731A4340D0009A62B3019A012AD3
:100380004FEA075215DC001B61EB02014FF00042FF
:1003900002EA0752CDE90042001C41F580113246C5
:1003A0002B4600F0ABF903B0BDE8F08F4046214684
:1003B000F9E7001B61EB0201001C41F580130018F6
:1003C0005B412018A2F5001747EB030140EAD57006
:1003D000B6196D4111E06D084FEA360645EAC07561
:1003E0004FEA0752001B61EB0201001C41F580112E
:1003F00049084FEA30000019514132462B4603B0FC
:10040000BDE8F04F00F06BB90098012240000023D6
:10041000D0EB020263EBE073009821464FEAE074F0
:10042000B8EB000061EB0401E9E783F000435BE710
:1004300081F0004158E72DE9FE4F81EA030404F002
:10044000004421F0004100944FF0000B23F00043E2
:1004500050EA01045ED052EA03045BD0C3F30A54AD
:10046000C1F30A552C44A4F2F3340194A0FB0254C6
:10047000C1F3130141F48011C3F3130343F4801358
:1004800001FB024400FB034E840A970A44EA8154AC
:1004900047EA8357A4FB076802958D0A05FB078589
:1004A0004FEA932C04FB0C542705029D4FEA065893
:1004B00047EA1637B5EB08056EEB070C870E920E70
:1004C00047EA811742EA8312A7FB0201B6EB0B0150
:1004D00064EB00042B0D43EA0C335E1844EB1C5014
:1004E000DA465146E7FB0201C5F313044FEA0B332A
:1004F00043EA14534FEA0432019C43EA0603A4F191
:100500000C040294009CCDE900B400F0F7F803B0AD
:10051000BDE8F08F00200146F9E72DE9F04D81EAB2
:10052000030404F0004B21F0004514464FF0000A8C
:1005300023F0004150EA050220D054EA01021DD008
:10054000C5F30A570246C5F31303C1F31300C1F301
:100550000A5640F4801543F48013A7EB0608101BDD
:10056000D64608F2FD3873EB050002D308F1010806
:1005700001E092185B41B8F1000F03DA0020014658
:10058000BDE8F08D00204FF48011064684460EE051
:10059000171B73EB050705D3121B63EB050306431B
:1005A0004CEA010C49084FEA300092185B4150EACE
:1005B0000107EDD152EA030012D082EA040083EA77
:1005C0000501084305D0101BAB4106D201220023D0
:1005D00006E000224FF0004302E06FF001025310EA
:1005E0001AEB06004CEB085110EB0A0041EB0B0133
:1005F000BDE8F04D00F073B8C1F30A52C1F3130126
:1006000040F2FF3341F480119A4202DA00200146A1
:10061000704740F233439A42A2F2334202DC524224
:1006200000F03BB800F02AB830B5041E71F10004A8
:1006300004DB4FF00044404264EB0101141E73F1EF
:10064000000405DB1C464FF00043524263EB0403F9
:10065000994208BF904230BD064C074D06E0E06865
:1006600040F0010394E8070098471034AC42F6D3F9
:10067000FFF7B6FD9C600008BC600008202A04DB80
:10068000203A00FA02F1002070479140C2F12003A5
:1006900020FA03F3194390407047202A04DB203AE4
:1006A00021FA02F00021704721FA02F3D040C2F192
:1006B00020029140084319467047202A06DBCB17D9
:1006C000203A41FA02F043EAE07306E041FA02F30D
:1006D000D040C2F12002914008431946704710B53E
:1006E000141E73F1000408DA401C41F10001921855
:1006F0005B411A4301D120F0010010BD2DE9F04DFE
:1007000092469B4611B1B1FA81F202E0B0FA80F252
:1007100020329046FFF7B2FF04460F4640EA0A0037
:1007200041EA0B0153465A46084313D0114653EA97
:10073000010019D0C8F140025046FFF7AEFF054650
:100740000E46504659464246FFF798FF084305D0EB
:10075000012004E020463946BDE8F08D0020054325
:1007600046EAE0762C4337430A986305E40AA0EB97
:1007700008000022FD0A44EA47540A3002D500204E
:100780000146E9E7010510196941DDE9084500194D
:100790006941BDE8F04DA2E710B5846AE16D11F042
:1007A000500F06D0E16DC90625D5204600F08AFB22
:1007B00010BDE06D40F40070E06520680168090735
:1007C00016D502F0CDFC78B12068C06880040028FE
:1007D0000ADBE06D20F48070E065E06DC00403D4B6
:1007E000E06D40F00100E065204600F069FB10BDBF
:1007F000C0688007EBE7616D496BBDE810400847B2
:1008000010B5806AC16D41F04001C165016E41F0D3
:100810000401016600F056FB10BD10B5806A00F0BF
:1008200050FB10BD70B50446006881688268C1F352
:10083000400112F0010F28D039BB816801F00D0191
:10084000012914D18168124A1140891C81602168F4
:100850000320086000F0E8FE054612E000F0E4FE28
:10086000401B02280DD920688068C00709D0E06DC0
:1008700040F01000E065206E40F00100206601208D
:1008800070BD20688068C007E8D1002070BD0000FE
:10089000C0FFFF7FF8B50446002000902068816803
:1008A00011F0010F41D18168214A11422ED1816896
:1008B000D5432940491C81601E48806800F0E070E3
:1008C00000020DD51C481D490068B0FBF1F0401C2A
:1008D00000EB4000800000E0401E00900028FBD1AB
:1008E00000F0A2FE06461BE0816811F0010F03D163
:1008F00081682940491C816000F096FE801B022817
:100900000ED920680068C043C00709D0E06D40F0F0
:100910001000E065206E40F0010020660120F8BD67
:1009200020680168C943C907DED10020F8BD000076
:100930003F0000800003005058000020400D0300DD
:10094000FEE700000D4902688A4201D20C4901E02D
:100950000B492031D2B21423083AB2FBF3F2436CB4
:1009600002F01F0223F0030319448164044980311B
:10097000C1640121914001657047000008040240F4
:10098000000802400179074A02EB81024265054AEC
:100990004432491E826501F01F0201219140C16568
:1009A00070470000FC08024030B5D0E9134565608F
:1009B000446D14B1D0E91645656090F8444004F0E8
:1009C0001F050124AC40056C6C600468636083689B
:1009D000102B036803D099600068C26030BD9A6034
:1009E0000068C16030BD7047002240F6B83306E0B1
:1009F0000021491C89B29942FBD3521C92B2824217
:100A0000F6D3704772B6FEE7F8B5002604460096A6
:100A100090F858000D4601280BD0012084F85800AA
:100A20002046FFF7FFFE0100E06D04D040F010000B
:100A30002AE00220F8BD20F4885040F00200E06572
:100A400020688268134B1A4005F080431A4342F035
:100A500000428260104A20680EE0009B5B1C0093FD
:100A6000934209D3E06D20F0020040F01000E065F1
:100A700084F858600120F8BD8368DB0FEDD1E06D8C
:100A800020F0020040F00100E06584F8586008465C
:100A9000F8BD0000C0FFFF3F02DE04002DE9F84F63
:100AA00000270446009790F85800DFF8E0930D46C1
:100AB000B846012811D0012684F85860206802F059
:100AC0004BFB60B1E06D40F02000E0655FF0010796
:100AD00084F858803846BDE8F88F0220FBE7D5E956
:100AE00000210C23206803EA91131844036B01F0E2
:100AF0001F014FF01F0C0CFA01FCC2F3846223EAC1
:100B00000C038A4013430363206802F025FB8246EE
:100B1000206802F01DFB5AEA00003CD1AA6829684F
:100B20002068B2F1004F37D002F022FB2068416903
:100B300021F00041416120686969C268C2F3C102C5
:100B4000520091402A69042A31D000EB82002B68C0
:100B5000026EDFF83CC303F0F84302EA0C020B43D9
:100B60001A4342F00041016620682A69A96900EB36
:100B70008200026E22F080720A430266297F226898
:100B80002869012910D0002102EB8000026E22F0BA
:100B900000720A4302667DE0002202F0E9FA206852
:100BA000416941F00041C5E74FF00071ECE70021D9
:100BB00002F0C8FA400320684FF0000172D002F042
:100BC000C1FA90FAA0F0B0FA80F1286842036ED022
:100BD00090FAA0F0B0FA80F0814204D100221146D0
:100BE000206802F0D4FA0121206802F0ABFA400339
:100BF00020684FF001015DD002F0A4FA90FAA0F055
:100C0000B0FA80F12868420359D090FAA0F0B0FA07
:100C100080F0814204D100220121206802F0B7FA5D
:100C20000221206802F08EFA400320684FF0020192
:100C300048D002F087FA90FAA0F0B0FA80F1286864
:100C4000420344D090FAA0F0B0FA80F0814204D17F
:100C500000220221206802F09AFA0321206802F0A3
:100C600071FA400320684FF0030133D002F06AFAB2
:100C700090FAA0F0B0FA80F1286842032FD090FAE1
:100C8000A0F0B0FA80F0814204D100220321206854
:100C900002F07DFA2068816811F0010F22D0ACE0EB
:100CA00000E004E002F04EFAC0F384618DE7C0F387
:100CB000846091E702F046FAC0F38461A2E7C0F3D2
:100CC0008460A6E702F03EFAC0F38461B7E7C0F3A0
:100CD0008460BBE702F036FAC0F38461CCE7C0F36E
:100CE0008460D0E72A7B296850F8B03FC1F3120C2A
:100CF00023EA0C0302F0180C664A22FA0CF20A40AE
:100D000013430360E968494577D1286841031CD043
:100D100090FAA0F1B1FA81F1491C01F01F010929F3
:100D20004FEA403132D8002912D000BF90FAA0F12A
:100D3000B1FA81F101F1010101F01F0106FA01F69A
:100D400009D100BFC0F3846109E0C0F38461E3E727
:100D5000C0F38461EEE790FAA0F1B1FA81F101F1FC
:100D6000010101F01F0146EA816102D1C0F38460F4
:100D700003E090FAA0F0B0FA80F000F1010000F07A
:100D80001F0000EB400041EA005132E000290ED084
:100D900090FAA0F1B1FA81F101F1010101F01F0116
:100DA00006FA01F606D100BFC0F3846106E0C0F385
:100DB0008461F1E790FAA0F1B1FA81F101F101014A
:100DC00001F01F0146EA816102D1C0F3846003E0B3
:100DD00090FAA0F0B0FA80F000F1010000F01F00DE
:100DE0002D4A00EB400002EB005041EA000141F0C7
:100DF0000071AA68206802F0BBF928482A680242FC
:100E00003FF466AE26488168264B01F0E0719A42B5
:100E100002D0254B9A421CD10B021AD42268B2F19F
:100E2000A04F7FF455AE826841F4000122F0E072D9
:100E30000A4382601D481E490068B0FBF1F0401C67
:100E400000EB4000800000E0401E00900028FBD135
:100E50003EE6184D184BAA4207D1CD0105D42268B1
:100E60009A42F5D041F0807109E0144DAA42EFD1C9
:100E70004A02EDD422689A42EAD041F480018268A5
:100E800022F0E0720A43826022E6000000007F4008
:100E900000F0FF03FFFF0700000020FE00000880B5
:100EA00000030050000021C31000C0905800002033
:100EB000400D0300000052C700010050000084CB29
:100EC0007047704770470000F8B54FF00005040008
:100ED0002E46009502D0E06D10B107E00120F8BD6C
:100EE000204600F0EBF8266684F858602068816898
:100EF000C1F3407119B18168684A1140816020686E
:100F00008168C1F3007189B98168654A114041F077
:100F100080518160634864490068B0FBF1F0400093
:100F2000801C00E0401E00900028FBD120688168F2
:100F3000C1F3007141B9E16D41F01001E165216E2D
:100F400041F001012166012502F006F9E16DC906B3
:100F500000D430B1E06D40F01000E0650125284676
:100F6000F8BDE06D20F4807040F00200E06520687C
:100F7000806810F0010F11D14FF0A04080684B49FC
:100F800000F00100896801F00101084306D14848DA
:100F90006168826822F47C120A438260E168E06B37
:100FA000627F0843A16841EA4231084394F8241063
:100FB00040EA0140012904D1218D3E4A02EB414122
:100FC0000843E16A29B101F47871226B014342EAD6
:100FD00001002268D168384B19400143D160206874
:100FE0000169626B21F0406111430161206802F0E8
:100FF000AFF870BB207F94F83810800340EA4102BC
:101000002168C86844F2020398431043C86020690D
:101010000028206801690AD041F48031016120680C
:1010200050F8C01F22696FF30D01114307E021F44E
:1010300080310161206850F8C01F6FF30D0101601D
:1010400094F8400001280CD02068016921F00101CA
:101050000161606901282068016B21F00F0111D046
:1010600013E0D4E911010843D4E9131211430843F2
:1010700021680A6940F2FC739A43104340F0010072
:101080000861E6E7226A521E11430163E06D20F019
:10109000020040F00100E06561E70000C0FFFF5F73
:1010A000C0FFFF7F58000020400D030000010050EA
:1010B000000300500000FEFF0740F0FF70B598B03D
:1010C0000546142111A8FFF7AAF844216846FFF746
:1010D000A6F82149286888423BD1C4014005009404
:1010E0000F90684600F09EFB08B1FFF78BFC1B4990
:1010F000C86C40F40050C864C86C00F400501690EE
:10110000C86C40F00200C864C86C002600F0020001
:10111000169003201396CDE9114011A9104800F054
:1011200055F9114C0F4820602420C4E901068020A5
:10113000C4E90360400060618000A0612020C4E930
:101140000706204600F08AF808B1FFF75BFC6C65E3
:10115000A56218B070BD00000001005000100240F0
:101160000004004808000240E80000202DE9F0419A
:101170000446344817468846806800F01F052068FA
:1011800001F0EAFF00285AD194F85800012856D0FF
:10119000012084F85800002625B1052D02D0092D24
:1011A00000D003E02046FFF775FB18B184F85860C3
:1011B000BDE8F081E06D40F60161884340F4807045
:1011C000E06521492068884202D14FF0A04100E04B
:1011D0000146814200D01DB9E06D20F48010E06529
:1011E000E06DC00404D5206E20F00600206600E00B
:1011F0002666616D1548C862616D15480863616DAA
:101200001448486321681C20086084F858602068EE
:10121000416841F0100141602068C16841F001015E
:10122000C16021683B4642464031606D00F076F86F
:1012300021688A68084B1A40121D8A60B8E70220AC
:10124000B6E70000000300500001005099070008B5
:101250001B08000801080008C0FFFF7F70B50400EC
:101260000CD02B4A21681420914209D2294A0A4401
:10127000B2FBF0F08000606427480AE0012070BDF6
:10128000234A52420A44B2FBF0F0800060642048D6
:1012900008382064022084F825000A6847F6F070B8
:1012A0008243D4E902031843D4E904352B4318439D
:1012B000A3691843E3691843236A1843104308607D
:1012C0002046FFF73FFBA0680025B0F5804F00D116
:1012D0006560A16C20790860D4E913014160606801
:1012E000401E032808D82046FFF74CFB606D0560C0
:1012F000D4E91601416002E06565A565E565E56331
:10130000012084F8250084F82450002070BD0000DE
:1013100008040240F8FFFDBF0000024070B504461B
:1013200090F82400002501280CD0012084F8240026
:1013300094F825600020012E06D084F824000225B0
:10134000284670BD022070BD022684F82560E06347
:101350002068066826F0010606602046FFF724FB99
:10136000206B00282068016802D041F00E0106E0E1
:1013700021F0040101602068016841F00A01016068
:10138000A06C0168C90303D5016841F48071016054
:10139000606D18B1016841F48071016020680168D6
:1013A00041F001010160CBE770B5044600F03CF963
:1013B0000546601C02D004484068044400F034F93B
:1013C000401BA042FAD370BD4C0000202DE9F04F25
:1013D000DFF82092002301260324A9F1040B85B035
:1013E0000F2709F1040AABF1040EFAE006FA03F53F
:1013F0002A407CD091F804C00CF0030CBCF1010F22
:1014000002D0BCF1020F26D1D0F808C0CDF800C040
:101410004FEA430C04FA0CF8CDF810C0DDF800C018
:101420002CEA080CCDF800C0D1F80C80DDF810C013
:1014300008FA0CF8DDF800C048EA0C08C0F808808B
:10144000D0F804C02CEA050C0D79C5F300159D40B9
:1014500045EA0C0545600D79ED43AD070ED0C56832
:101460004FEA430804FA08FC25EA0C05D1F808C045
:101470000CFA08FC4CEA050CC0F80CC00D7905F01C
:101480000305022D16D1DD0800EB850CCDF808C050
:10149000DCF820805D074FEAD56C07FA0CF528EAE6
:1014A00005080D6905FA0CF5DDF808C045EA0805E0
:1014B000CCF8205005684FEA430CCDF808C004FA78
:1014C0000CFC25EA0C0591F804C00CF00308DDF8CB
:1014D00008C008FA0CF848EA0508C0F800804D6812
:1014E00015F4403F7CD0444DD5F860C000E077E073
:1014F0004CF0010CC5F860C02D6E23F0030C05F014
:10150000010500953D4D65440295AD684FEA837C29
:101510004FEA1C7807FA08FC25EA0C05B0F1904F59
:1015200006D0DFF8DCC0604505D14FF0010C20E0AB
:101530004FF0000C1DE0DFF8CCC0604502D14FF049
:10154000020C16E0DFF8C0C0604502D14FF0030C7A
:101550000FE0DFF8B8C0604502D14FF0040C08E09E
:10156000DFF8ACC0604502D14FF0050C01E04FF050
:10157000060C0CFA08FC4CEA050C029DC5F808C0E4
:10158000D9F80050CC46D1F8048095435FEAC828CA
:1015900000D51543CCF80050DAF80050D446D1F805
:1015A000048095435FEA882800D51543CCF80050A5
:1015B000DBF80050DC46D1F8048095435FEA8838B8
:1015C00000D51543CCF80050DEF80050F446D1F8B1
:1015D000048095435FEAC83800D51543CCF8005025
:1015E0005B1C0A6832FA03F57FF400AF05B0BDE872
:1015F000F08F00000804014000100240000001408C
:101600000004004800080048000C00480010004892
:10161000001400480069084000D0012070470AB15A
:10162000816170478162704701488068704700009F
:101630004C00002002488168426811448160704774
:101640004C00002010B50024032000F073F80F2098
:1016500000F008F808B1012401E000F025F8204668
:1016600010BD000070B50E4E05460024706898B19C
:101670004FF47A71B1FBF0F00A490968B1FBF0F060
:1016800000F03CFD40B9102D06D200222946501E24
:1016900000F030F8356000E00124204670BD000005
:1016A0004C000020580000200A4882B0016E41F032
:1016B00001010166016E01F001010091816D41F0AF
:1016C00080518165806D00F08050009002B000F084
:1016D000A1B8000000100240002809DB00F01F0242
:1016E000012191404009800000F1E020C0F8001184
:1016F00070470000F0B40E4B1B680C46C3F3022386
:10170000C3F10705042D00D90425191D072901D2AD
:10171000002300E0DB1E012606FA05F1491E2140E8
:1017200099409E40761E16403143F0BC02F062BBE9
:101730000CED00E0064900F0070208684FF6FF03D1
:10174000184040EA0220034A104308607047000036
:101750000CED00E00000FA052B492C4B0A68322101
:101760004A432B4940B1B0F5007F086829D020F4E6
:10177000C06040F480602CE00868C0F3412002287B
:1017800004D051F8800F20F4807022E0D1F880005E
:1017900020F48070C1F88000086820F4C06040F434
:1017A00000700860B2FBF3F0401C00E0401E4A6984
:1017B000520501D50028F9D1486940050AD5032012
:1017C0007047C0F34120022806D051F8800F40F442
:1017D0008070086000207047D1F8800040F480706D
:1017E000C1F88000086820F4C06040F40070086010
:1017F000B2FBF3F0401C00E0401E4A695205DBD505
:101800000028F9D1D8E700005800002040420F001E
:10181000007000400248816841F480418160704757
:10182000007000402DE9F8430446006800269D4DF5
:1018300000035ED5A86D0027C00008D4A86D40F055
:101840008050A865A86D012700F080500090DFF857
:101850005892D9F8001041F48071C9F80010FFF7D0
:10186000E3FE804606E000BFFFF7DEFEA0EB0800C7
:1018700002282BD8D9F80000C005F5D5D5F890007E
:1018800010F4407014D0216C814211D0D5F8900032
:10189000D5F8901020F4407041F48031C5F89010D4
:1018A000D5F8901021F48031C5F89010C5F890005B
:1018B000C00711D0FFF7B8FE804641F2883907E033
:1018C000FFF7B2FEA0EB0801494501D903260BE062
:1018D000D5F890008007F3D5D5F89000216C20F45E
:1018E00040700843C5F890001FB1A86D20F08050EB
:1018F000A8652078C00707D0D5F88800616820F077
:1019000003000843C5F888002078800707D5D5F87C
:101910008800A16820F00C000843C5F888002078F2
:10192000400707D5D5F88800E16820F0300008436B
:10193000C5F888002078000707D5D5F88800216908
:1019400020F0C0000843C5F888002078800607D53D
:10195000D5F88800616920F440600843C5F8880024
:101960002078400607D5D5F88800A16920F44050BA
:101970000843C5F888002078000607D5D5F8880008
:10198000E16920F440400843C5F888002088C0057C
:1019900007D5D5F88800216A20F440300843C5F8FF
:1019A00088002088800507D5D5F88800616A20F472
:1019B00040200843C5F88800208840050FD5D5F899
:1019C0008800A16A20F440100843C5F88800A06A86
:1019D000B0F5801F03D1E86840F48010E8602088EB
:1019E00000050FD5D5F88800E16A20F440000843CF
:1019F000C5F88800E06AB0F5800F03D1E86840F4CC
:101A00008010E8602088C0040FD5D5F88800216BCD
:101A100020F040700843C5F88800206BB0F1807F4B
:101A200003D1E86840F48010E86020884FF000613E
:101A300080040ED5D5F88800626B20F0406010431A
:101A4000C5F88800606B884203D1E86840F48010D4
:101A5000E860208840040ED5D5F88800A26B20F0FD
:101A600040601043C5F88800A06B884203D1E86845
:101A700040F48010E860208800040FD5D5F8880075
:101A8000E16B20F040500843C5F88800E06BB0F1EE
:101A9000805F03D1E86840F48030E8603046BDE8FC
:101AA000F883000000100240007000402DE9F0476C
:101AB0000E4605004FF0000725D0DFF8AC81D8F8BE
:101AC000000000F00F00B0420CD2D8F8001021F056
:101AD0000F013143C8F80010D8F8000000F00F00E3
:101AE000B04210D12968614CC80741F2883A5AD0F7
:101AF0006868DFF87C91032808D0022820682DD080
:101B0000400500282CDB0120BDE8F087206880011B
:101B1000F9D5E06800F00302E068C0F30310401C50
:101B2000032A19D0534A00BFB2FBF0F0E268C2F3B7
:101B300006225043E268C2F34162521C5200B0FBDD
:101B4000F2F0484517D9A06810F0F00F0CD08807C4
:101B500011D5A86840B10EE0474AE5E78003D0E719
:101B600000F092F8484506D9A06820F0F00040F057
:101B70008000A0608027A068696820F00300084307
:101B8000A060FFF751FD814606E000BFFFF74CFD66
:101B9000A0EB090151453AD8A068696800F00C0033
:101BA000B0EB810FF2D12868810714D5400703D527
:101BB000A06840F4E060A0602878000705D5A06820
:101BC00020F4605040F4E060A060A068A96820F0B4
:101BD000F000084304E0802F03D1A06820F0F0005B
:101BE000A060D8F80010404601F00F01B14216D9AC
:101BF000016821F00F0131430160FFF715FD074631
:101C000007E000BFFFF710FDC11B514501D90320BC
:101C10007AE7D8F8000000F00F00B042F2D128783F
:101C2000400705D5A068E96820F4E0600843A0609B
:101C30002878000706D5A068296920F4605040EA9A
:101C4000C100A06000F020F8A1680C4AC1F30311A4
:101C5000515C01F01F01C84009490860094800684B
:101C6000BDE8F047FFF7FEBC002002400010024034
:101C700000B4C4040024F40000366E01BC4E000819
:101C8000580000204C000020184910B58868C0F3A7
:101C900081021748012A0BD08A68164BC2F38102D1
:101CA000022A06D08A68C2F38102032A03D00020E8
:101CB00010BD184610BDCA6802F00304CA68C2F31A
:101CC0000312521C032C02D0B0FBF2F001E0B3FB74
:101CD000F2F0CA68C968C2F306225043C1F34161F9
:101CE000491C4900B0FBF1F010BD0000001002409B
:101CF0000024F40000366E012DE9F84304007AD088
:101D00002078F84DC00747D0A868E96800F00C00BB
:101D100001F003010C2802D0082817D001E00329A4
:101D200014D06068B0F5803F17D0B0F5A02F2868B8
:101D300017D020F480302860286820F480202860A4
:101D40006068E0B1FFF770FC064614E02868800385
:101D500022D560680028D2D01EE0286840F4803088
:101D6000EDE740F480202860F7E700BFFFF75CFC58
:101D7000801B642870D828688003F7D50CE0FFF733
:101D800053FC064605E000BFFFF74EFC801B6428AD
:101D9000F0D828688003F7D4207880074CD5A8684D
:101DA000E96800F00C0001F003010C2802D00428BF
:101DB0000DD001E002290AD0E068002828682BD065
:101DC00040F480702860FFF72FFC064619E0286871
:101DD000400502D5E068002891D06868217C20F099
:101DE000FE4040EA01606860BF480068FFF73AFCC7
:101DF000002800D120E072E1FFF716FC801B0228CA
:101E0000B8D828684005F7D56868217C20F0FE40E6
:101E100040EA016068600FE020F480702860FFF7FE
:101E200003FC064605E000BFFFF7FEFB801B02280F
:101E3000A0D828684005F7D42078000729D5606924
:101E40000028D5F8940013D040F00100C5F89400A4
:101E5000FFF7EAFB064606E090E000BFFFF7E4FB71
:101E6000801B022886D8D5F894008007F6D510E0AC
:101E700020F00100C5F89400FFF7D6FB064604E009
:101E8000FFF7D2FB801B022878D8D5F89400800792
:101E9000F6D42078400761D5A86D0026C00008D48C
:101EA000A86D40F08050A865A86D012600F0805014
:101EB00000908E480168C90511D40168804641F43C
:101EC00080710160FFF7B0FB074604E0FFF7ACFB51
:101ED000C01B022852D8D8F80000C005F6D5A0686B
:101EE000012815D00528D5F8900016D020F0010063
:101EF000C5F89000D5F8900020F00400C5F89000D7
:101F0000A06841F28838B8B1FFF78EFB07460EE0B3
:101F1000D5F8900040F00100F0E740F00400C5F86B
:101F20009000F5E7FFF780FBC11B414526D8D5F8A7
:101F300090008007F6D50CE0FFF776FB074604E03B
:101F4000FFF772FBC11B414518D8D5F890008007F8
:101F5000F6D41EB1A86D20F08050A86520788006C8
:101F600029D5A0690028D5F8980013D040F00100C9
:101F7000C5F89800FFF758FB064606E075E000BF7D
:101F8000FFF752FB801B02286FD8D5F89800800716
:101F9000F6D510E020F00100C5F89800FFF744FBEB
:101FA000064604E0FFF740FB801B02285DD8D5F809
:101FB00098008007F6D4E069F0B3A968C1F3810105
:101FC00003295DD00228286820F08070286003D0A3
:101FD000FFF72AFB04464BE0FFF726FB064604E02A
:101FE000FFF722FB801B02283FD828688001F7D426
:101FF000F4E908016FF00F0202EB01110843218A96
:102000005204490802EB4151A26841EA0221084307
:10201000217D4FF07E42490802EB41610843217B5C
:1020200040EAC160E968324A11400843E860286824
:1020300040F08070286000E05EE0E86840F080706A
:10204000E860FFF7F1FA044605E000BFFFF7ECFA9D
:10205000001B022809D828688001F7D54CE000BF92
:10206000FFF7E2FA001B022802D90320BDE8F8833B
:1020700028688001F4D4E8681E490840E8603BE025
:102080000128F3D0E868226A00F00301914226D1CA
:10209000616A00F0F0020901103991421FD1A26A71
:1020A00000F4FE41B1EB022F19D194F82C2000F07E
:1020B0007841B1EBC26F12D1218E00F4C002490801
:1020C0004905A1F50011914209D194F8341000F0AE
:1020D000C06049084906A1F1007181420CD001207D
:1020E000C4E70000001002404C00002000700040D7
:1020F0000C809F01FCFFEEFE0020B7E710B5401EEC
:10210000B0F1807F01D3012010BD4FF0E024606169
:102110000F21601701F06EFE0020A06107202061F2
:10212000002010BD70477047704770477047704778
:10213000F0B590F83C20012A3AD0012580F83C50B7
:10214000022280F83D2003685A689C68194E1A4F95
:10215000B34201D0BB4204D122F4700C4A6842EA77
:102160000C02DFF858C002EA0C02D1F800C04CEAB9
:10217000020CC3F804C00268B2420DD0B2F1804F25
:102180000AD00F4B9A4207D00E4B9A4204D0BA4263
:1021900002D00D4B9A4204D1896824F08003194380
:1021A000916080F83D50002180F83C100846F0BD59
:1021B0000220F0BD002C0140003401408FFFFFFDE4
:1021C000000400400008004000400140704710B586
:1021D000040003D094F83D0010B107E0012010BDC9
:1021E000002084F83C00204600F022F8022084F809
:1021F0003D00211D206801F05DFB012084F84800AE
:1022000084F83E0084F83F0084F8400084F84100E0
:1022100084F8420084F8430084F8440084F84500C0
:1022200084F8460084F8470084F83D00002010BD83
:1022300010B586B0044614216846FDF7F0FF21680A
:102240002448B1F1804F26D0234A91422DD1816D8F
:1022500041F002018165816D01F002010591C16CBF
:1022600041F00101C164C06C002100F00100059043
:10227000802000900220CDE90101CDE903106946DC
:102280004FF09040FFF7A2F8002211461D20FFF703
:1022900031FA1D201AE0816D41F001018165806DE8
:1022A00000F00100059006B010BD0C4A9142FAD131
:1022B000816D41F004018165806D002200F0040011
:1022C000059011461E20FFF715FA1E20FFF704FAAD
:1022D000E9E7000000100240000400400008004050
:1022E00090F83D10012901D001207047022180F8AB
:1022F0003D100168CA6842F00102CA6000681049D6
:1023000088420ED0B0F1804F0BD00E49884208D0E1
:102310000D49884205D00D49884202D00C498842B7
:1023200007D181680B4A1140062906D0B1F5803FDC
:1023300003D0016841F001010160002070470000F6
:10234000002C01400004004000080040003401401F
:10235000004001400700010070B5044690F83C00C1
:102360000025012814D0012684F83C60022084F85E
:102370003D0022689068364B184020F47F40906002
:10238000086870282ED010DC10F00F0F03D021E069
:102390004FF0020070BD4FEA2012072A1AD2DFE880
:1023A00002F0525252524A3840002A4BC21A984206
:1023B00049D009DCB0F5805F0DD0B0F5005F1CD0CE
:1023C000B0F1101F06D13EE0102A3CD0202A3AD0AE
:1023D000502A38D0012584F83D60002084F83C0064
:1023E000284670BDCB68D1E90121206801F0CDFA03
:1023F0002068816841F0770109E0CB68D1E90121CB
:10240000206801F0C2FA2068816841F4804181604F
:10241000E1E7CA684968206801F062FC5021206841
:1024200006E0CA684968206801F0A2FC60212068C3
:1024300001F0B6FACFE7CA684968206801F050FC9D
:1024400040212068F4E7226801461046F0E70000CA
:1024500088FFCEFF2000100010B5154A0168914298
:1024600024D1144C617900294FF0040103D000F00D
:1024700077FC606216E000F073FCA062616A88423B
:10248000A0EB010002D84FF6FF710844E06248B1AA
:1024900000EE100ADFED080AB8EE400A80EE801A5E
:1024A00084ED081A607980F00100607110BD0000B1
:1024B0000004004010000020002474492DE9F04180
:1024C000054690F83C0000260C46012810D001205B
:1024D00085F83C0072B1042A1CD0082A2CD00C2AA2
:1024E00050D00126002085F83C003046BDE8F08140
:1024F0000220FBE7D4E90012E368286801F002FC3F
:102500002868816921F00C01816128688169A268CD
:1025100011430FE0D4E90012E368286801F03AFCA7
:102520002868816921F44061816128688169A26815
:1025300041EA02218161D5E72868D4E9002C277B94
:10254000036A016A21F480710162C16923F4206386
:1025500021F0030141EA0C0121F0F00C39074FF49E
:1025600020674CEA116107EA02221A43C161026244
:102570002868C16921F00C01C1612868C169A2689D
:1025800011432BE02868D4E90021E768036AD0F8FA
:1025900020C02CF4805CC0F820C0D0F81CC023F40C
:1025A00020432CF4407C4CEA012121F4704C4FF67E
:1025B000FF7101EA07314FF4204741EA0C0107EAB5
:1025C00002321A43C16102622868C16921F4406184
:1025D000C1612868C169A26841EA0221C16181E73D
:1025E00010B5040003D094F83D0010B107E00120BD
:1025F00010BD002084F83C00204600F022F80220A4
:1026000084F83D00211D206801F054F9012084F870
:10261000480084F83E0084F83F0084F8400084F8C5
:10262000410084F8420084F8430084F8440084F8B0
:10263000450084F8460084F8470084F83D000020F7
:1026400010BD704730B50446002571B1042911D082
:10265000082914D00C2917D0102918D094F8430059
:1026600094F84720012817D114E094F83E0094F81C
:102670004420F7E794F83F0094F84520F2E794F8F7
:10268000400094F84620EDE794F84100E8E794F81C
:102690004200E5E7012A01D0012030BD022079B1D6
:1026A000042916D008291DD00C2949D010294AD058
:1026B00084F8430084F847000C2947D001253DE009
:1026C00084F83E0084F844002068C26842F00202A8
:1026D00010E084F83F0084F845002068C26842F0AA
:1026E000040207E084F8400084F846002068C268CD
:1026F00042F00802C2600122206801F039F916494F
:10270000206888420ED0B0F1804F0BD01349884228
:1027100008D01349884205D01249884202D0124994
:10272000884207D18168114A1140062906D0B1F5C7
:10273000803F03D0016841F001010160284630BDAF
:1027400084F84100B6E784F84200B3E72068C26825
:1027500042F01002CEE70000002C014000040040CF
:102760000008004000340140004001400700010023
:102770002DE9F04104460068C66805694FF000077E
:10278000A90713D5B10711D5F91E016101202077E2
:10279000206880698007204602D0FFF75DFE04E0D4
:1027A00000F0DEF8204600F0A0F92777680716D57C
:1027B000700714D521686FF00400086102202077AB
:1027C0002068806910F4407F204602D0FFF744FE65
:1027D00004E000F0C5F8204600F087F927772807C5
:1027E00015D5300713D521686FF008000861042063
:1027F00020772068C0698007204602D0FFF72CFEB2
:1028000004E000F0ADF8204600F06FF92777E80605
:1028100016D5F00614D521686FF010000861082065
:1028200020772068C06910F4407F204602D0FFF76F
:1028300013FE04E000F094F8204600F056F92777E4
:10284000E80708D0F00706D021686FF001000861A2
:10285000204600F0C9F9280601D4A80408D530069E
:1028600006D521686FF4025008612046FFF75BFC33
:10287000E80508D5300606D521686FF48070086138
:102880002046FFF74FFC680608D5700606D521687C
:102890006FF040000861204600F077FAA80608D5DE
:1028A000B00606D521686FF0200008612046FFF7CA
:1028B0003BFCE80208D5F00206D521686FF48010D1
:1028C00008612046FFF732FCA80208D5B00206D501
:1028D00021686FF4001008612046FFF726FC6802AB
:1028E00008D5700206D521686FF480000861204683
:1028F000FFF71DFC28020AD5300208D521686FF4C5
:10290000000008612046BDE8F041FFF75FBCBDE86C
:10291000F081000010B586B0044614216846FDF72A
:102920007EFC2068B0F1804F15D10C48C16C41F09D
:102930000101C164C06C694600F0010005900220ED
:1029400000900190002002900390012004904FF02D
:102950009040FEF73BFD06B010BD000000100240A5
:10296000704770B5044690F83C0000260D460128DB
:102970000BD0012084F83C000C2A4AD007DC82B13D
:10298000042A20D0082A06D131E0022070BD102A86
:1029900053D0142A63D00126002084F83C0030462E
:1029A00070BD206801F006F82068816941F00801D7
:1029B00081612068816921F0040181612068816959
:1029C0002A69114311E0206801F042F8206881690A
:1029D00041F4006181612068816921F48061816135
:1029E000206881692A6941EA02218161D4E720686F
:1029F00001F076F82068C16941F00801C1612068E2
:102A0000C16921F00401C1612068C1692A691143CB
:102A100011E0206801F0ACF82068C16941F4006160
:102A2000C1612068C16921F48061C1612068C16908
:102A30002A6941EA0221C161AEE7206801F0E0F8AD
:102A40002068016D41F0080101652068016D21F0E9
:102A5000040101652068016D2A69114311E02068B5
:102A600001F006F92068016D41F4006101652068FC
:102A7000016D21F4806101652068016D2A6941EAD8
:102A80000221016588E710B5040003D094F83D00E9
:102A900010B107E0012010BD002084F83C00204662
:102AA00000F022F8022084F83D00211D206800F08B
:102AB00001FF012084F8480084F83E0084F83F00BC
:102AC00084F8400084F8410084F8420084F8430010
:102AD00084F8440084F8450084F8460084F84700F0
:102AE00084F83D00002010BD7047704730B50446A3
:102AF000022269B1042912D0082917D00C291CD050
:102B0000102921D094F84300012824D0012030BDA1
:102B100094F83E000128F9D184F83E201DE094F895
:102B20003F000128F2D184F83F2016E094F84000DD
:102B30000128EBD184F840200FE094F841000128EF
:102B4000E4D184F8412008E094F842000128DDD166
:102B500084F8422001E084F843200122206800F03C
:102B600007FF194B20681949194A984209D0884231
:102B700007D0904205D0174DA84202D0164DA8426A
:102B800003D1456C45F400454564206898420CD05B
:102B9000B0F1804F09D0114B984206D0104B9842AB
:102BA00003D0884201D0904207D181680D4A11407C
:102BB000062906D0B1F5803F03D0016841F001013C
:102BC0000160002030BD0000002C014000340140B5
:102BD0000040014000440140004801400004004022
:102BE00000080040070001002DE9F0470068504947
:102BF00088427BD101F0DCFD4E4C00250127207876
:102C0000002875D0A0694C4E401C0A21B0FBF1F29F
:102C100001FB1201A06119B9317881F00201317014
:102C20001921B0FBF1F201FB1200DFED440A9FED28
:102C3000441ADFF81091DFF8108190BB98F800007B
:102C4000DFED421A94ED070A002810EE100A0DD0AD
:102C50003F49884217DD30EE610A10EE100A84ED1C
:102C6000070A88420FDAC4ED070A0CE039498842A6
:102C700009DA30EE210A10EE100A84ED070A8842C4
:102C800001DD84ED071A99ED000ABCEEC00A10EED2
:102C9000101A94ED070ABCEEC00A10EE100A02F0FA
:102CA0007FF8A069B0F5FA7F23D3A561257030784D
:102CB00020F00200307098F8001021B1C4ED070A2E
:102CC00088F8005003E084ED071A88F8007099ED49
:102CD000000ABCEEC00A10EE101A94ED070ABCEE12
:102CE000C00A10EE100A02F05BF802E01EE0FFE7F7
:102CF000A561607858B92069401C2061C82806D3B6
:102D000067702561144894ED020A80ED000AA078EE
:102D100000280BD16069401C6061C82806D3A770E9
:102D200065610E4894ED030A80ED000ABDE8F08766
:102D300000080040100000200300002000007A4539
:102D40000000FA450C0000205D0000200000484310
:102D500000007A450000FA45680000206C00002061
:102D60000246002041B1042909D008290AD00C29C3
:102D700001D11068006C70471068406B7047106894
:102D8000806B70471068C06B70477047FEE70000AB
:102D900000B585B014216846FDF741FA4FF6FF7083
:102DA000009000200321CDE902010190694602480C
:102DB000FEF70CFB05B000BD0008004800B585B06B
:102DC00014216846FDF72BFA4FF6FF7000900120A2
:102DD0000190032003900020029069460248FEF70C
:102DE000F5FA05B000BD00000008004870B50024E9
:102DF00006462146204600F0FBF800F037F94FF474
:102E00009635304600F000F9641CAC42F9D370BD31
:102E100070B586B014216846FDF701FA1E48C16CF2
:102E200041F00401C164C16C01F004010591C16C61
:102E300041F00101C164C16C01F001010591C16C57
:102E400041F00201C164C06C032500F0020005904E
:102E50004FF448700124002603958DE8510069461F
:102E60000E48FEF7B3FA200203958DE851004FF0AB
:102E7000904469462046FEF7A9FAFFF79FFFA06934
:102E800040F48070A06105481830016841F4087171
:102E9000016006B070BD0000001002400004004850
:102EA000203AD2B2034B02EB420203EB021200F0D3
:102EB00019B80000CC4E0008F0B50E4607460025B4
:102EC00040F23F1407E021463846FFF7E9FF103C87
:102ED0006D1CA4B2761C3278002A01D0142DF2D3D6
:102EE000F0BD00002DE9F04791468A4600260446D1
:102EF00000F07EF8DFF84080012700BF00F0B6F850
:102F00005FF0000539F8160007FA05F1084240465F
:102F100001D1008900E0C08800F076F86D1C102D0A
:102F2000F0D3641CE4B25146204600F061F8761CF0
:102F3000182EE3D3BDE8F0875C00002010B5FFF742
:102F400067FF002000F014F8084C60816089A0F54C
:102F50000241303906D000F03BFB002000F008F8B9
:102F6000608110BD00F0ABFAF7E700005C000020C4
:102F700070B51D490A6842F400720A600A6842F49A
:102F800080720A60184C103C226842F020022260D5
:102F9000164A1060086840F02000086000BF00BFBB
:102FA00000BF206840F020002060206840F480705E
:102FB0002060FFF7EDFE4FF09041886A40F480708A
:102FC000886200BF00BF00BF0848001F006885B2CC
:102FD000886940F480708861FFF7F0FE206840F453
:102FE00000702060284670BD28040048140800487E
:102FF00010B50C460146202000F06AF82146BDE8D5
:103000001040212000F064B818B5164B1968164A14
:103010000091116841F400711160134910390C6876
:1030200044F480740C600C6844F020040C60186058
:10303000106840F02000106000BF00BF00BF0868AB
:1030400040F020000860086840F48070086000BF0D
:1030500000BF00BF086840F4007008600098186066
:1030600018BD00001408004828040048164A08B596
:10307000106816490090086840F4007008600868FD
:1030800040F48070086011481038036843F0200352
:103090000360222313600B6843F020030B6000BF22
:1030A00000BF00BF016841F020010160016841F4E8
:1030B0008071016000BF00BF00BF016841F4007172
:1030C00001600098106008BD1408004828040048FA
:1030D00038B51A4C22681A4B00921A6842F40072F2
:1030E0001A601A6842F480721A60154A103A15681C
:1030F00045F0200515602060186840F02000186039
:1031000000BF00BF00BF106840F0200010601068D2
:1031100040F4807010602160186840F02000186052
:1031200000BF00BF00BF106840F0200010601068B2
:1031300040F4807010600098206038BD140800488A
:103140002804004800EB8100006E00F0F840704752
:103150008068C0F3C00070478068C0F3800070478B
:10316000C06810F4406F01D0002070470120704704
:10317000042303EAD15310B518444369C1F3045141
:1031800007248C40A3438A401343436110BD00EBE6
:103190008100016E21F0004111430166704700007B
:1031A00030B589B020216846FDF739F8194818492B
:1031B000002401604902C0E90114C46004250461CF
:1031C000C0E90545047701214177016280F8244078
:1031D000C462046380F83810C46380F84040FDF78F
:1031E00073FE08B1FDF70EFC0B4800900620CDE9F8
:1031F00001047F200594CDE9030569460548FDF7E4
:103200004DFC002801D0FDF7FDFB09B030BD0000EA
:10321000000100507C0000200080F03E094808B505
:10322000816C41F004018164816C01F00401009122
:10323000816C41F001018164806C00F0010000901C
:1032400008BD000000100240F0B587B014216846A8
:10325000FCF7E5FF2D48C16C41F00401C164C16C6D
:1032600001F004010591C16C41F02001C164C16C01
:1032700001F020010591C16C41F00101C164C16CF4
:1032800001F001010591C16C41F00201C164C16C02
:1032900001F002010591C16C41F00801C164C06CEC
:1032A0001B4E00F008004FF47F4405900122214698
:1032B0003046FEF7B4F9174F002204213846FEF7D6
:1032C000AEF90125CDE90045002402946946304657
:1032D0000394FEF77BF8CDE9005469464FF0904027
:1032E0000294FEF773F80720CDE9000469460A4806
:1032F0000294FEF76BF804200090CDE90154694672
:1033000038460394FEF762F807B0F0BD00100240A3
:1033100000080048000C00480004004810B58EB0BA
:1033200000240794089409940A940B940C941C218B
:1033300068460D94FCF773FF1E484FF08041C0E9CA
:10334000001444F61F61C0E9024104618461FEF784
:103350003EFF08B1FDF756FB4FF48050079007A9D8
:103360001448FEF7F9FF08B1FDF74CFB1148FFF7D1
:103370008AFB08B1FDF746FB0B940BA90D480D9491
:10338000FEF7D6FE08B1FDF73DFB6020009042F24B
:103390001070CDE901040422694606480494FFF741
:1033A000E0FA08B1FDF72EFB0248FFF7B3FA0EB0C2
:1033B00010BD00007801002010B58CB000240594E9
:1033C000224804940694079408940A94099400945B
:1033D000019402941C49039401604F21C0E9011437
:1033E0004FF6FF71C0E903148461FEF7F0FE08B1E7
:1033F000FDF708FB4FF48050049004A91348FEF732
:10340000ABFF08B1FDF7FEFA1048FFF7E9F808B185
:10341000FDF7F8FA089408A90C480A94FEF788FE0C
:1034200008B1FDF7EFFA0120CDE900400294042233
:10343000694606480394FFF741F8002801D0FDF7DC
:10344000E1FA0CB010BD000000040040C4010020EF
:1034500010B588B000241748009401940294039496
:10346000049405941249069401604F21C0E90114A7
:1034700042F20F71C0E903148461FEF7A8FE08B19F
:10348000FDF7C0FA4FF48050009069460948FEF7F6
:1034900063FF08B1FDF7B6FA049404A90548069441
:1034A000FEF746FE002801D0FDF7ACFA08B010BDCB
:1034B0000008004010020020FEE7FEE7704730B52C
:1034C00001210020FFF704FE4FF47A70FDF78CFA1B
:1034D00000210120FFF7FCFD41F290711020FFF761
:1034E000F7FD4FF41C516020FFF7F2FD0121612030
:1034F000FFF7EEFD02214620FFF7EAFD48F210013A
:103500001320FFF7E5FD48F2FE011220FFF7E0FD72
:103510004FF4A0610220FFF7DBFD41F230010320F0
:10352000FFF7D6FD40F2033421463020FFF7D0FDEF
:1035300021463120FFF7CCFD21463220FFF7C8FDA0
:10354000E51E29463320FFF7C3FD03213420FFF792
:10355000BFFD21463520FFF7BBFD14213620FFF7C4
:10356000B7FD21463720FFF7B3FD21463820FFF78E
:10357000AFFD21463920FFF7ABFD29463A20FFF782
:10358000A7FD03213B20FFF7A3FD21463C20FFF7C9
:103590009FFD4FF4A0513D20FFF79AFD4FF40071BD
:1035A0009220FFF795FD21469320FFF791FD40F60D
:1035B0000D019020FFF78CFD41F218010320FFF769
:1035C00087FDBDE8304040F273110720FFF780BD52
:1035D00010B543F20801E320FFF77AFD1221E7203E
:1035E000FFF776FD41F23121EF20FFF771FD002159
:1035F0000120FFF76DFD4FF4E0610220FFF768FD49
:1036000041F230010320FFF763FD00210420FFF7A2
:103610005FFD40F207210820FFF75AFD0021092035
:10362000FFF756FD00210A20FFF752FD00210C2074
:10363000FFF74EFD00210D20FFF74AFD00210F206E
:10364000FFF746FD00211020FFF742FD0721112062
:10365000FFF73EFD00211220FFF73AFD0021132065
:10366000FFF736FDC820FDF79FFE41F29061102064
:10367000FFF72EFD40F227211120FFF729FD322010
:10368000FDF792FE1D211220FFF722FD3220FDF7EB
:103690008BFE4FF400611320FFF71AFD142129203F
:1036A000FFF716FD0B212B20FFF712FD3220FDF74F
:1036B0007BFE00212020FFF70BFD00212120FFF7DA
:1036C00007FD07213020FFF703FD40F2077131208D
:1036D000FFF7FEFC06213220FFF7FAFC40F20471EE
:1036E0003520FFF7F5FC41F604713620FFF7F0FCBA
:1036F00004213720FFF7ECFC00213820FFF7E8FC1D
:1037000040F206713920FFF7E3FC40F201713C20E2
:10371000FFF7DEFC0F213D20FFF7DAFC00215020EF
:10372000FFF7D6FCEF215120FFF7D2FC00215220F9
:10373000FFF7CEFC40F23F115320FFF7C9FC4FF4D6
:103740001C516020FFF7C4FC01216120FFF7C0FC81
:1037500000216A20FFF7BCFC00218020FFF7B8FCA5
:1037600000218120FFF7B4FC00218220FFF7B0FC8C
:1037700000218320FFF7ACFC00218420FFF7A8FC88
:1037800000218520FFF7A4FC10219020FFF7A0FC6A
:1037900000219220FFF79CFC03219320FFF798FC67
:1037A0004FF488719520FFF793FC00219720FFF7D5
:1037B0008FFC00219820FFF78BFC41F218010320B9
:1037C000FFF786FCBDE8104040F273110720FFF7B9
:1037D0007FBC704710B5FDF72DFF0E480023012276
:1037E0000168491C0160642902D30B4903600A7017
:1037F0004168491C41601E2902D3084943600A7090
:103800008168491C81600A2902D3836004480270E0
:1038100010BD00004000002000000020010000203A
:103820000200002010B594B038216846FCF7F7FC80
:1038300014210EA8FCF7F3FC4FF40070FDF78CFF89
:10384000012000900004019002200324CDE9070428
:103850001421CDE90A100C900D9009946846FEF7EA
:103860004BFA08B172B6FEE70F20CDE90E04002036
:1038700010901190129002210EA8FEF717F900285F
:1038800001D072B6FEE714B010BD00000248016816
:1038900041F470010160704788ED00E00148FEF7D7
:1038A00067BF0000C40100200148FEF761BF0000AF
:1038B000100200202DE9F0430268264B264D274ECA
:1038C000274C4FF08049984207D0484505D0A84280
:1038D00003D0B04201D0A04203D122F070074A6861
:1038E0003A43204FDFF880C0DFF8808098420DD047
:1038F00048450BD0A84209D0B04207D0A04205D01D
:10390000B84203D0604501D0404503D122F4407550
:10391000CA682A434D6922F080022A4302608A68FD
:10392000C2620A688262984207D0A04205D0B842BB
:1039300003D0604501D0404501D1096901630121EF
:1039400041610169C90703D0016921F001010161E9
:10395000BDE8F083002C0140000400400008004056
:103960000034014000400140004401400048014053
:1039700010B501F01F030121046A99408C430462D1
:10398000016A9A401143016210BD10B5846842EA91
:10399000032224F47F440A432243826010BD0000C6
:1039A0008268034B1A400A4342F007018160704766
:1039B0008FFFCFFF2DE9F043056A026A22F0010272
:1039C0000262436882691C4C25F0020522400C68A3
:1039D00022F0030214438A68194E2A43174D194FE7
:1039E000DFF864C0DFF86490A84207D0B04205D089
:1039F000B84203D0604501D0484506D122F00808FE
:103A0000CA6842EA080222F00402A84207D0B04283
:103A100005D0B84203D0604501D0484505D14D6975
:103A200023F440731D438B692B43436084614968D1
:103A300041630262BDE8F0838FFFFEFF002C01406E
:103A40000034014000400140004401400048014072
:103A5000F0B5056A026A22F01002026242688369C8
:103A6000194C1B4E23400C6823F4407343EA042492
:103A700025F020038D6843EA0513144DA84201D0B8
:103A8000B04206D1CF6823F0800343EA071323F046
:103A90004003A8420AD0B04208D00E4DA84205D03B
:103AA0000D4DA84202D00D4DA84207D14D6922F418
:103AB000406242EA85028D6942EA85024260846181
:103AC000496881630362F0BDFF8FFFFE002C014057
:103AD00000340140004001400044014000480140E2
:103AE000F0B5056A026A22F4807202624368C26914
:103AF000194C1B4E22400C6822F00302144325F49B
:103B000000728D6842EA0522144DA84201D0B042ED
:103B100006D1CF6822F4006242EA072222F48062D2
:103B2000A8420AD0B04208D00E4DA84205D00E4D92
:103B3000A84202D00D4DA84207D14D6923F440534D
:103B400043EA05138D6943EA05134360C46149687C
:103B5000C1630262F0BD00008FFFFEFF002C014038
:103B60000034014000400140004401400048014051
:103B7000F0B5056A026A22F4805202624268C369A3
:103B8000194C1B4E23400C6823F4407343EA042471
:103B900025F400538D6843EA0533144DA84201D043
:103BA000B04206D1CF6823F4004343EA073323F43D
:103BB0008043A8420AD0B04208D00E4DA84205D09A
:103BC0000D4DA84202D00D4DA84207D14D6922F4F7
:103BD000404242EA85128D6942EA85124260C46120
:103BE000496801640362F0BDFF8FFFFE002C0140B5
:103BF00000340140004001400044014000480140C1
:103C000030B5056A026A22F4803202624268036DAE
:103C1000114C23400C681C4325F400330D8943EA02
:103C200005430E4DA8420BD00D4DA84208D00D4DB6
:103C3000A84205D00C4DA84202D00C4DA84204D198
:103C40004D6922F4803242EA0522426004654968E7
:103C50008164036230BD00008FFFFEFF002C014035
:103C60000034014000400140004401400048014050
:103C700030B5046A026A22F4801202624268036D5F
:103C8000114D24F400142B400D6843EA05230D89DF
:103C900044EA05540D4DA8420BD00D4DA84208D062
:103CA0000C4DA84205D00C4DA84202D00B4DA842A5
:103CB00004D14D6922F4802242EA852242600365E4
:103CC0004968C164046230BDFF8FFFFE002C0140D3
:103CD00000340140004001400044014000480140E0
:103CE00010B5036A046A24F001040462846924F0B4
:103CF000F00444EA021423F00A020A4384610262D7
:103D000010BD000070B5056A046A24F00104046265
:103D10008469124EB0420ED0B0F1804F0BD0104EDD
:103D2000B04208D00F4EB04205D00F4EB04202D084
:103D30000E4EB04203D124F00304144301E044F0DA
:103D400001041A0724F0F00444EA126225F00A0381
:103D500001F00A0119438261016270BD002C01402B
:103D600000040040000800400034014000400140D1
:103D700010B5036A046A24F010040462846923F015
:103D8000A00324F4704444EA023243EA0111826140
:103D9000016210BD30B5046A056A25F010050562A0
:103DA000856925F4407545EA022222F470454FF6F4
:103DB000FF7202EA033224F0A0032A43A02404EA9B
:103DC000011119438261016230BDFEE70FB4084B57
:103DD00010B504A902AA039800F0EEF8044602A95F
:103DE000002000F080FC204610BC5DF814FB0000B1
:103DF000E74600080907090E002804DB00F1E0206F
:103E000080F80014704700F00F0000F1E02080F807
:103E1000141D704702E008C8121F08C1002AFAD119
:103E200070477047002001E001C1121F002AFBD13A
:103E3000704700002DE9FF5F82B00021DDE904300A
:103E4000020DDDF840B0034318D044F61050A2F242
:103E5000FF3242431514119801281FD0A5EB0B0027
:103E6000401C5FEA000A4FF000064E4FDFF8389121
:103E7000B046504615D5CAF1000413E0119801244C
:103E80004AA3012801D16FEA0B010298119AC0E9F7
:103E90000031C0E9024206B0BDE8F09FCBF100005E
:103EA000DFE704460021404A491842EB0450CDE9BF
:103EB000001012E0E00707D032463B464046494634
:103EC000FCF7B9FA8046894632463B461046194609
:103ED000FCF7B1FA06460F466410002CEAD1DDE982
:103EE0000401DDE90023BAF1000F06DAFCF7A3FABA
:103EF00042464B46FCF79FFA05E0FCF70EFB4246B4
:103F00004B46FCF70AFB04460E460022284BFCF702
:103F10008BFB03D84FF0FF30014607E00022254B12
:103F200020463146FCF7E0F9FCF766FB102409E077
:103F3000002C0ADB0A220023FCF7A5F9039B303290
:103F40001A55641E50EA0102F2D1641C039AC4F1AE
:103F500011031444119A012A03D0012208430DD100
:103F60000AE0084304D000204FF0110B119072E7D3
:103F7000A3EB0B056D1E0DE05B4504DD4FF0000269
:103F800005F1010504E003DA4FF00002A5F1010597
:103F9000002AECD002981199C0E90231C0E900452D
:103FA00079E70000000014400000F03F30000000FE
:103FB0000000F0430000E03F2DE9FF4F95B09B4625
:103FC0008946064600250FE2252877D1002427469A
:103FD000F84A0121059400E0044316F8013F203B14
:103FE00001FA03F01042F7D130782A2811D06FF08F
:103FF0002F033078A0F13002092A16D8059A44F030
:10400000020402EB820203EB42021044761C05908C
:10401000EFE759F8042B0592002A03DA504244F4E2
:104020000054059044F00204761C30782E2816D1F6
:1040300016F8010F44F004042A280DD06FF02F0267
:104040003078A0F13003092B09D807EB870302EB86
:104050004303C718761CF3E759F8047B761C3078C5
:104060006C280FD006DC4C2817D068280DD06A28A1
:1040700014D104E0742810D07A280FD10DE044F454
:1040800000140AE044F4801401E044F4401472780F
:10409000824202D104F58014761C761C30786628A2
:1040A0000BD013DC582877D009DC002875D04528C0
:1040B000F6D04628F4D047281AD19DE118E06328AD
:1040C00035D0642879D0652812D195E1702873D055
:1040D00008DC6728F1D069286FD06E280DD06F28D2
:1040E00006D1B5E073282CD0752875D0782874D007
:1040F0005A46179990476D1C75E1C4F30250022887
:1041000009D003280DD0D9F8001004280DD00D6077
:1041100009F1040967E1D9F80010EA17C1E9005272
:10412000F6E7D9F800100D80F2E70D70F0E719F806
:10413000041B8DF8001000208DF80100EA460120D4
:1041400003E059F804AB4FF0FF3061074FF0000176
:1041500002D40DE008F101018846B9420FDA80452A
:10416000F8DB1AF808100029F4D108E008F1010181
:1041700088468142FADB1AF808100029F6D1059822
:104180005B46A0EB080721463846179A00F094FAE0
:10419000284400EB080507E04DE029E10DE01AF89E
:1041A000010B5A4617999047B8F10108F7D25B46C0
:1041B00021463846179A13E142E00A220092C4F3DE
:1041C00002524FF0000A022A08D059F804CB032A01
:1041D0004FEAEC710AD00DE029E02AE009F107016D
:1041E00021F00702F2E802C1914609E00FFA8CFCC7
:1041F0004FEAEC71042A03D14FFA8CFC4FEAEC71C0
:10420000002907DA0A460021DCF1000C61EB02010B
:104210002D2202E0220504D52B228DF80420012254
:1042200003E0E20701D02022F7E7904659E00A2197
:1042300002E010220DE010214FF0000A00910BE087
:1042400010224FF0000A44F004040827009203E013
:1042500008224FF0000A0092C4F30252022A05D04D
:1042600059F804CB0021032A08D009E009F107011D
:1042700021F00702F2E802C1914605E01FFA8CFC2A
:10428000042A01D10CF0FF0C4FF00008220728D5BA
:10429000702806D0009B83F0100353EA0A0305D070
:1042A0000EE040228DF80420012208E05CEA0102C1
:1042B00006D030228DF804208DF8050002229046A9
:1042C000009B83F0080353EA0A030AD15CEA010267
:1042D00001D1620705D530228DF804204FF0010886
:1042E0007F1E582804D034A003900EA802900DE041
:1042F00036A0F9E753466046009AFBF7C4FF8446B0
:104300000398825C0298401E029002705CEA0100F1
:10431000F0D1029806A9081A00F1200A600702D518
:1043200024F4803400E00127574502DDA7EB0A00A2
:1043300000E0002000EB0A01009005984144401A7B
:104340000590E00306D45B462146179A059800F0D5
:10435000B3F90544002706E001A85A46C05D179945
:1043600090476D1C7F1C4745F6DBE0030CD55B4690
:104370002146179A059800F09FF9054404E0302083
:104380005A46179990476D1C0099481E00900029C5
:10439000F5DC08E0029802995A460078491C02911F
:1043A000179990476D1CBAF10001AAF1010AF1DCDE
:1043B00065E10000092801003031323334353637E9
:1043C0003839616263646566000000003031323361
:1043D0003435363738394142434445460000000001
:1043E00000F058F90544761C307800287FF4ECADD5
:1043F00019B02846BDE8F08F620700D4062709F1FE
:10440000070222F0070CFCE80223E14603F0004813
:104410005FEA080C02D00FF2702C0DE05FEA045C3A
:1044200002D50FF2682C07E05FEAC47C02D00FF2DD
:10443000602C01E0AFF2700C4FF0FF3823F0004326
:10444000CDF850C065280CD006DC452809D0462898
:104450001DD047283DD13DE0662818D067287ED181
:1044600038E00021112F01DB112000E0781CCDE99C
:10447000000106A90EA8FFF7DDFCDDE90F010E9A89
:1044800003910021009207F1010A04914DE04FF0E1
:1044900000400097CDE9011006A90EA8FFF7CAFC5D
:1044A000DDE90F0203920E9B11990022DDF80CA0AA
:1044B0000093049211B9791C00EB010AB7EB0A00D2
:1044C00004D4C0F1FF3007F1010A0490AAEB070001
:1044D000019044E0012F00DA01270021112F01DDB6
:1044E000112000E03846CDE9000106A90EA8FFF72B
:1044F000A1FCDDE90F010E9A0391002104910092C5
:10450000BA4621070CD40399514500DA8A46BAF11C
:10451000010F05DD009AAAF10101515C302908D094
:10452000B84202DA10F1040F06DA0121CDE90110D8
:1045300015E0AAF10101E9E7002805DC049901442E
:104540000491AAEB000102E0411C514500DD8A46BE
:104550000499401A401C01904FF00040029020073F
:1045600004D40198504501DBCDF8048000208DF87B
:104570004F0002980DF14F07B0F1004F25D02B20CE
:104580000E9002984FF0020800280CDA4042029088
:104590002D200E9007E00A210298FBF75EFE3031D5
:1045A000029007F8011DB8F10001A8F10108F2DC42
:1045B00002980028EFD1791E0E980870307800F02C
:1045C000200040F0450007F8020D12A8C01B00F1C2
:1045D00007081498007800B1012000EB0A01019847
:1045E00001EBE07105984144401A401E0590E0033C
:1045F00006D45B462146179A059800F05DF80544FD
:104600001498007818B15A46179990476D1CE0032A
:1046100024D55B462146179A059800F04DF80544CD
:104620001CE00498002807DBDDE90301884203DD74
:104630000098405C179901E0179930205A4690473E
:10464000049805F10105401C04900198401E01905A
:1046500004D12E205A46179990476D1CBAF10001DB
:10466000AAF1010ADDDC05E017F8010B5A4617999B
:1046700090476D1CB8F10001A8F10108F4DC5B461D
:104680002146179A0598ABE62D0000002B0000008C
:10469000200000002DE9F041044600251E46174683
:1046A000880404D405E039462020B0476D1C641E00
:1046B000F9D52846BDE8F0812DE9F04104460025F2
:1046C0001E469046C80301D5302700E02027880405
:1046D00004D505E041463846B0476D1C641EF9D547
:1046E0002846BDE8F0810A68531C0B6010707047C3
:1046F00010B57F210448FCF787F9BDE8104001227E
:1047000002490148FCF732BD7C0000200400002073
:104710001B480078022832D01A48DFED1B0A9FEDB3
:104720001B1A008800EE100A1648B8EE400A60EE28
:10473000200A80EE810A10EE101A80ED010AB1F114
:104740007E5F02DCB2EE040A06E010EE101A104A98
:10475000914204DB9FED0F0A80ED020A09E09FED14
:104760000E1ADFED0E0A50EE010AC0ED020A90EDBE
:10477000020A0B49BCEEC00A10EE100A087070471E
:1047800014000020040000203333534000F07F4524
:10479000000040400000AA42000016420000DC4138
:1047A000600000200148FDF79BBD000010020020C2
:1047B00070B52A4D01212846FCF72CFF08B10121D4
:1047C00000E00021264C284661700221FCF722FF00
:1047D00000B10120607304212846FCF71BFF00B1E3
:1047E0000120607601214FF09040FCF713FF00B1EB
:1047F000012084F8250000200125014600EB40023D
:1048000014F8223023B1012B0DD0022B21D113E05B
:1048100004EB82035E7816B904F8225019E099700F
:104820001972596015E004EB82035E7846B90226DE
:1048300004F822609D700CE004EB82035E7816B1F0
:1048400004F82210EBE75A68521C5A60C82A00D3B9
:104850001D72401CC0B20428D0D370BD00040048B3
:10486000480100202DE9F04F5A490020DFF868A1E7
:104870000C790E78DFF864B1594A5A4D4FF00109AE
:104880004FF00A08034600BF00EB400705EB87071F
:10489000BF78012F0FD130B1012822D0022836D0A5
:1048A00003287CD156E0AB7017787F1CFFB21770DD
:1048B000022F01D9137072E0012F02D0022F03D012
:1048C0006DE081F803906AE0DFF81CC19AF800708F
:1048D0008CF80070DFF814C19BF800708CF8007041
:1048E0005DE0404FBB73177817B1012F0AD056E037
:1048F0000EBB3F4F0126D7F800C00CF1010CC7F8E2
:1049000000C04CE0CF7887F00107CF7047E0354F0B
:10491000BB761778012F42D1CF786FB19AF800C0DB
:104920000CF1010C0CF0FF0C8AF800C0BCF10A0F6E
:1049300035D98AF8009032E09BF800C00CF1010CE8
:104940000CF0FF0C8BF800C0BCF10A0F27D98BF8D4
:10495000009024E01778012F01D0EFB11FE0214F24
:1049600087F82630CF785FB19AF800C0ACF1010C1F
:104970001CF0FF0C8AF800C011D18AF800800EE00C
:104980009BF800C0ACF1010C1CF0FF0C8BF800C0D0
:1049900005D18BF8008002E024B1022C0BD0012C51
:1049A00005D00EE095F82C70012F0AD1012495F85E
:1049B00026702FB105E00B4C84F82630002400E06F
:1049C0000224401CC0B20428FFF45EAF0C710E70CC
:1049D000BDE8F08F100000205E0000205F00002086
:1049E0005C000020480100207800002079000020B1
:1049F0007400002008B5FEF7A1FA6420FCF7D4FC8F
:104A00000020ADF80000BDF80010074801814FF606
:104A1000FF71ADF80010BDF80010C180BDE808407E
:104A20000020FEF7E3B900005C00002010B5404C08
:104A3000207800282CD0012854D0022876D13DA11E
:104A40004248FFF7C3F941491820FEF735FA40A163
:104A50003E48A269FFF7BAF93C494820FEF72CFA14
:104A6000E068FBF7E7FB41EC100B3FA153EC102B88
:104A70003648FFF7ABF935496020FEF71DFA20698B
:104A8000FBF7D8FB41EC100B3CA153EC102B25E0BD
:104A900040A12E48FFF79AF92C491820FEF70CFA8E
:104AA000607808B1482200E04C2240A12748FFF777
:104AB0008DF926494820FEF7FFF9227941A12348C4
:104AC000FFF784F921496020FEF7F6F96069FBF7EA
:104AD000B1FB41EC100B41A153EC102B1B48FFF72D
:104AE00075F91DE043A11948FFF770F9174918201F
:104AF000FEF7E2F9A27845A11448FFF767F91349D8
:104B00004820FEF7D9F9E27846A11048FFF75EF990
:104B10000E496020FEF7D0F948A10C48FFF756F97E
:104B2000BDE8104009497820FEF7C6B910BD000065
:104B30005C000020202020202020202052454344DB
:104B40002020202020202020000000005C020020E7
:104B500020202020204E3D256420202020202020C1
:104B6000202020202000000020202020204D483D33
:104B7000252E3166202020202020200020202020EB
:104B8000204D4C3D252E3166202020202020202045
:104B900000000000202020202020202044415441FB
:104BA0002020202020202020000000002020202085
:104BB000204D3D2563202020202020202020202063
:104BC000200000002020202020503D2564252520A5
:104BD0002020202020202020200000002020202035
:104BE00020563D252E316620202020202020202008
:104BF0000000000020202020202020205041524191
:104C00002020202020202020000000002020202024
:104C100020523D25642020202020202020202020FC
:104C20002000000020202020204B3D256420202053
:104C300020202020202020202000000020202020D4
:104C40002020202020202020202020202020202064
:104C50000000000010B501224FF6FF710748FCF775
:104C6000DEFC074C012204212046FCF7D8FC20463C
:104C70000022BDE810400421FCF7D1BC0008004828
:104C8000000C00482DE9F041114E124F00244FF462
:104C900080753078E040C00705FA04F081B201D099
:104CA000002200E001223846FCF7B9FC641CE4B2A3
:104CB000082CEED3084C012204212046FCF7AFFC5F
:104CC0002046BDE8F04100220421FCF7A8BC00000A
:104CD0000300002000080048000C00480B48027840
:104CE0000B4801785AB121F001010A4A017012788B
:104CF000022A07D021F004010170FFF7C3BF41F081
:104D00000101F2E741F00401F6E700005C00002039
:104D10000300002014000020FCF794FCFEF782FD45
:104D2000FEF792FAFEF77AFAFEF73AFAFEF7F6FA8B
:104D3000FEF742FBFEF78CFBFFF7DAFCFFF732FDD4
:104D400000F01CF8FFF756FEFFF784FF0A4C002521
:104D5000207810B12570FFF769FE607810B165709A
:104D6000FFF7D6FCA07810B1A57000F037F8FFF778
:104D7000B5FFFFF777FDEBE70000002010B5042139
:104D80000648FDF75FFC054804214C38FDF7AEFEF0
:104D9000BDE810406420FCF707BB0000C401002000
:104DA0000D4B0122B3FBF2F2B2FBF0F0401E414387
:104DB0006422B1FBF2F1814200D9411E4FF08042E2
:104DC000D0629163506940F001005061106840F07A
:104DD000010010607047000000B4C4042D48F0EEDC
:104DE000000A2E4990ED080A9FED2E1A097820EE50
:104DF000200ADFED290A60EE200A00EE101A284989
:104E0000B8EE400A097860EE800A00EE101A2649D2
:104E1000B8EE400A20EE011A80EE810A81ED000A08
:104E20002249D1ED000A2249B4EEE00A0A780021B5
:104E3000F1EE10FA0BDD52B1D0ED020AB4EE600AC9
:104E4000F1EE10FA03D080ED020A01614170194BB6
:104E5000D3ED000AB4EEE00AF1EE10FA0BDD52B920
:104E6000D0ED030AB4EE600AF1EE10FA03D080ED43
:104E7000030A41618170104991ED000ABCEEC00A3D
:104E800010EE101A90ED070ABCEEC00A10EE100AE0
:104E9000FFF786BF10000020C3F5484078000020CF
:104EA000790000200000C842700000206800002047
:104EB0005D0000206C0000200C00002000000000BD
:104EC00000000000010203040607080900000000BA
:104ED00000000000000000000000000000000000D2
:104EE00000000000000000000000000000000000C2
:104EF0000000000000000000000000000000800131
:104F00008001800180018001800180018001800199
:104F1000800180018001800100000000800180018B
:104F20000000000000000000000000000000000081
:104F3000CC00CC00CC00CC00CC00CC0000000000A9
:104F40000000000000000000000000000000000061
:104F50000000000000000000000000000000000051
:104F60000000000000000000600C600C600C3006C7
:104F70003006FE1FFE1F300638071803FE1FFE1FF7
:104F8000180318038C018C018C01000000008000C4
:104F9000E003F80F9C0E8C1C8C188C009800F80114
:104FA000E007800E801C8C188C189C18B80CF00F31
:104FB000E00380008000000000000000000000000E
:104FC00000000E181B0C110C110611061103110321
:104FD0009B018E01C038C06C604460443044304452
:104FE0001844186C0C380000000000000000E001BC
:104FF000F0033807180618063003F001F000F80037
:105000009C310E33061E061C061C063FFC73F02165
:105010000000000000000000000000000000000090
:105020000C000C000C000C000C000C000000000038
:105030000000000000000000000000000000000070
:10504000000000000000000000000000000000025E
:1050500000038001C000C00060006000300030002C
:105060003000300030003000300030006000600060
:10507000C000C0008001000300020000000020000A
:105080006000C000800180010003000300060006EC
:1050900000060006000600060006000600030003E6
:1050A00080018001C00060002000000000000000BE
:1050B0000000000000000000C000C000D806F80793
:1050C000E00130033807000000000000000000008D
:1050D00000000000000000000000000000000000D0
:1050E00000000000000000008001800180018001BC
:1050F0008001FC3FFC3F8001800180018001800134
:10510000000000000000000000000000000000009F
:10511000000000000000000000000000000000008F
:1051200000000000000000000000000000008001FE
:10513000800100010001800000000000000000006C
:10514000000000000000000000000000000000005F
:1051500000000000E007E007000000000000000081
:10516000000000000000000000000000000000003F
:10517000000000000000000000000000000000002F
:105180000000000000000000000000000000C0005F
:10519000C000000000000000000000000000000C43
:1051A000000C000600060006000300030003800355
:1051B000800180018001C000C000C000600060006C
:1051C0000000000000000000000000000000E003FC
:1051D000F007380E180C0C180C180C180C180C18BA
:1051E0000C180C180C180C18180C380EF007E003EB
:1051F00000000000000000000000000000000001AE
:105200008001C001F00198018801800180018001C6
:105210008001800180018001800180018001800186
:105220000000000000000000000000000000E0039B
:10523000F80F180C0C180C1800180018000C0006B9
:1052400000038001C000600030001800FC1FFC1F3C
:105250000000000000000000000000000000E0016D
:10526000F807180E0C0C0C0C000C0006C003C0074D
:10527000000C001800180C180C18180CF807E003A4
:105280000000000000000000000000000000000C12
:10529000000E000F000F800DC00C600C600C300C75
:1052A000180C0C0CFC3FFC3F000C000C000C000C1C
:1052B0000000000000000000000000000000F80FE7
:1052C000F80F180018000C00EC03FC071C0E001C63
:1052D0000018001800180C181C0C180EF807E00332
:1052E0000000000000000000000000000000C007F7
:1052F000F00F381C181818000C00CC03EC0F3C0EF3
:105300001C1C0C180C180C18181C380EF007E003A5
:105310000000000000000000000000000000FC1F72
:10532000FC1F000C00060006000380038001C00182
:10533000C000E0006000600070003000300030000D
:105340000000000000000000000000000000E0037A
:10535000F007380E180C180C180C3806F007F00778
:10536000180C0C180C180C180C18380CF80FE0035B
:105370000000000000000000000000000000E0034A
:10538000F007380E1C0C0C180C180C181C1C381EBE
:10539000F81BE0190018000C000C1C0EF807F001B7
:1053A00000000000000000000000000000000000FD
:1053B00000000000000000008001800100000000EB
:1053C00000000000000000000000000080018001DB
:1053D00000000000000000000000000000000000CD
:1053E00000000000000000008001800100000000BB
:1053F00000000000000000000000000080018001AB
:10540000000100018000000000000000000000001A
:105410000000000000000000000000000010001C60
:10542000800FE003F8001800F800E003800F001C74
:10543000001000000000000000000000000000005C
:10544000000000000000000000000000F81F000045
:1054500000000000F81F0000000000000000000035
:10546000000000000000000000000000000000003C
:1054700000000000000000000000000008003800EC
:10548000F001C007001F0018001FC007F00138001E
:105490000800000000000000000000000000E00321
:1054A000F80F180C0C180C180018000C000600035C
:1054B0008001C000C000C00000000000C000C000AB
:1054C00000000000000000000000000000000000DC
:1054D000E00718180420C229224A1144094409444B
:1054E000094409221113E20C024004201818E007B5
:1054F0000000000000000000000000000000800329
:105500008003C006C006C006600C600C301830185E
:105510003018F83FF83F1C700C600C6006C006C0E5
:105520000000000000000000000000000000FC037C
:10553000FC0F0C0C0C180C180C180C0CFC07FC0FB6
:105540000C180C300C300C300C300C18FC1FFC0705
:105550000000000000000000000000000000C00784
:10556000F01F38381C300C7006600600060006007C
:1055700006000600060006600C701C30F01FE007F5
:105580000000000000000000000000000000FE031A
:10559000FE0F060E061806180630063006300630D6
:1055A00006300630063006180618060EFE0FFE03FB
:1055B0000000000000000000000000000000FC3FB0
:1055C000FC3F0C000C000C000C000C00FC1FFC1F2E
:1055D0000C000C000C000C000C000C00FC3FFC3F0D
:1055E0000000000000000000000000000000F83F84
:1055F000F83F18001800180018001800F81FF81FCE
:1056000018001800180018001800180018001800DA
:105610000000000000000000000000000000E00F9B
:10562000F83F3C780E6006E007C00300030003FE6D
:1056300003FE03C007C006C00EC03CF0F83FE00FF9
:1056400000000000000000000000000000000C301E
:105650000C300C300C300C300C300C30FC3FFC3F6C
:105660000C300C300C300C300C300C300C300C305A
:1056700000000000000000000000000000008001A9
:105680008001800180018001800180018001800112
:105690008001800180018001800180018001800102
:1056A00000000000000000000000000000000006F4
:1056B00000060006000600060006000600060006BA
:1056C000000600060006180618063807F003E00179
:1056D0000000000000000000000000000000063094
:1056E0000618060C060606038601C600660076004C
:1056F000DE008E0106030606060C0618063006605C
:105700000000000000000000000000000000180081
:1057100018001800180018001800180018001800C9
:10572000180018001800180018001800F81FF81FBB
:1057300000000000000000000000000000000EE07B
:105740001EF01EF01EF036D836D836D836D866CCC5
:1057500066CC66CCC6C6C6C6C6C6C6C686C386C323
:1057600000000000000000000000000000000C30FD
:105770001C303C303C306C306C30CC30CC308C3118
:105780000C330C330C360C360C3C0C3C0C380C3007
:105790000000000000000000000000000000E00722
:1057A000F81F1C380E70066003C003C003C003C09E
:1057B00003C003C003C006600E701C38F81FE0076A
:1057C0000000000000000000000000000000FC0FCE
:1057D000FC1F0C380C300C300C300C300C18FC1F3B
:1057E000FC070C000C000C000C000C000C000C0062
:1057F0000000000000000000000000000000E007C2
:10580000F81F1C380E70066003E003C003C003C01D
:1058100003C003C007E006630E3F1C3CF83FE0F7FF
:1058200000C0000000000000000000000000FE0FAB
:10583000FE1F06380630063006300638FE1FFE070B
:1058400006030606060C0618061806300630066023
:105850000000000000000000000000000000E00365
:10586000F80F1C0C0C180C180C001C00F803E00FAF
:10587000001E0038063006300E301C1CF80FE00702
:105880000000000000000000000000000000FE7F9B
:10589000FE7F800180018001800180018001800104
:1058A00080018001800180018001800180018001F0
:1058B00000000000000000000000000000000C30AC
:1058C0000C300C300C300C300C300C300C300C30F8
:1058D0000C300C300C300C300C301818F81FE0076E
:1058E0000000000000000000000000000000036055
:1058F0000630063006300C180C180C18180C180C52
:10590000380E30063006700760036003C001C00126
:105910000000000000000000000000000000036024
:10592000C361C361C361663366336633663366330E
:1059300066336C1B6C1B6C1B2C1A3C1E380E380E0D
:1059400000000000000000000000000000000FE068
:105950000C7018303018700C600EC0078003800384
:10596000C003E006700C301C18180C300E6007E005
:10597000000000000000000000000000000003C064
:1059800006600C301C383818300C6006E007C00385
:1059900080018001800180018001800180018001FF
:1059A0000000000000000000000000000000FC7F7C
:1059B000FC7F006000300018000C0006000380012E
:1059C000C0006000300018000C000600FE7FFE7F63
:1059D0000000000000000000000000000000E003E4
:1059E000E003600060006000600060006000600034
:1059F00060006000600060006000600060006000A7
:105A0000600060006000E003E00300000000300080
:105A10003000600060006000C000C000C000C00135
:105A200080018001800100030003000300060006DE
:105A30000000000000000000000000000000E00383
:105A4000E00300030003000300030003000300035E
:105A5000000300030003000300030003000300032E
:105A6000000300030003E003E00300000000000067
:105A7000C001C00160036003600330063006180CEB
:105A8000180C0000000000000000000000000000F2
:105A90000000000000000000000000000000000006
:105AA00000000000000000000000000000000000F6
:105AB0000000000000000000000000000000FFFFE8
:105AC000FFFF0000000000000000000000000C00CC
:105AD0000C000C000C000C000C000000000000008A
