:020000040800F2
:10000000A0050020ED0100080B220008E91B0008F4
:100010000922000899070008FB27000800000000DB
:100020000000000000000000000000002325000880
:100030009B070008000000000D220008252500088D
:10004000070200080702000807020008070200086C
:10005000070200080702000807020008070200085C
:10006000070200080702000807020008070200084C
:10007000070200080702000807020008070200083C
:10008000070200080000000007020008070200083D
:10009000070200080702000807020008070200081C
:1000A000070200080702000807020008070200080C
:1000B000ED250008F92500080526000807020008BC
:1000C00007020008070200080702000807020008EC
:1000D00007020008070200080702000807020008DC
:1000E00007020008070200080702000807020008CC
:1000F00007020008070200080702000800000000CD
:1001000000000000070200080000000007020008CD
:1001100007020008000000000702000807020008AC
:10012000070200080702000807020008070200088B
:10013000070200080000000000000000070200089D
:10014000070200080702000800000000000000008D
:10015000000000000000000000000000000000009F
:10016000000000000000000000000000070200087E
:10017000070200080000000000000000000000006E
:10018000000000000702000800000000000000005E
:10019000000000000000000000000000000000005F
:1001A000000000000000000007020008070200082D
:1001B000070200080702000807020008000000000C
:1001C000000000000702000800000000000000001E
:1001D0000702000807020008DFF80CD000F03CFA24
:1001E000004800471D3A0008A00500200648804747
:1001F00006480047FEE7FEE7FEE7FEE7FEE7FEE70C
:10020000FEE7FEE7FEE7FEE7DD250008D90100086E
:10021000D2B201E000F8012B491EFBD27047002248
:10022000F6E710B513460A4604461946FFF7F0FFF5
:10023000204610BD00F0004230F000400AD0C10D51
:1002400001F56071C0F3160042EA0151C20840078F
:100250001143704700200146704730B50B460146F8
:1002600000202022012409E021FA02F59D4205D355
:1002700003FA02F5491B04FA02F52844151EA2F1FF
:100280000102F1DC30BD2DE9F05F05460020924609
:100290009B4688460646814640241BE02846414648
:1002A0004746224600F0F9F953465A46C01A914192
:1002B00010D311461846224600F0E0F92D1A67EBDC
:1002C00001084F4622460120002100F0D7F917EB24
:1002D00000094E41201EA4F10104DFDC48463146EE
:1002E0002A464346BDE8F09F2DE9FE4F804681EA4D
:1002F0000300C00F0C46009021F0004123F00045A0
:10030000B8EB0200A94105D24046214690461C4662
:100310000B46024623F00040104347D0270DC7F399
:100320000A00C3F30A510290401A019040286BDA88
:10033000C3F3130040F4801B0098924620B10023C1
:10034000D2EB030A63EB0B0B01985946C0F1400254
:10035000504600F093F906460D4650465946019A1C
:1003600000F0ABF910EB08006141002487EA11525C
:1003700084EAE7731A4340D0009A62B3019A012AD3
:100380004FEA075215DC001B61EB02014FF00042FF
:1003900002EA0752CDE90042001C41F580113246C5
:1003A0002B4600F0ABF903B0BDE8F08F4046214684
:1003B000F9E7001B61EB0201001C41F580130018F6
:1003C0005B412018A2F5001747EB030140EAD57006
:1003D000B6196D4111E06D084FEA360645EAC07561
:1003E0004FEA0752001B61EB0201001C41F580112E
:1003F00049084FEA30000019514132462B4603B0FC
:10040000BDE8F04F00F06BB90098012240000023D6
:10041000D0EB020263EBE073009821464FEAE074F0
:10042000B8EB000061EB0401E9E783F000435BE710
:1004300081F0004158E72DE9FE4F81EA030404F002
:10044000004421F0004100944FF0000B23F00043E2
:1004500050EA01045ED052EA03045BD0C3F30A54AD
:10046000C1F30A552C44A4F2F3340194A0FB0254C6
:10047000C1F3130141F48011C3F3130343F4801358
:1004800001FB024400FB034E840A970A44EA8154AC
:1004900047EA8357A4FB076802958D0A05FB078589
:1004A0004FEA932C04FB0C542705029D4FEA065893
:1004B00047EA1637B5EB08056EEB070C870E920E70
:1004C00047EA811742EA8312A7FB0201B6EB0B0150
:1004D00064EB00042B0D43EA0C335E1844EB1C5014
:1004E000DA465146E7FB0201C5F313044FEA0B332A
:1004F00043EA14534FEA0432019C43EA0603A4F191
:100500000C040294009CCDE900B400F0F7F803B0AD
:10051000BDE8F08F00200146F9E72DE9F04D81EAB2
:10052000030404F0004B21F0004514464FF0000A8C
:1005300023F0004150EA050220D054EA01021DD008
:10054000C5F30A570246C5F31303C1F31300C1F301
:100550000A5640F4801543F48013A7EB0608101BDD
:10056000D64608F2FD3873EB050002D308F1010806
:1005700001E092185B41B8F1000F03DA0020014658
:10058000BDE8F08D00204FF48011064684460EE051
:10059000171B73EB050705D3121B63EB050306431B
:1005A0004CEA010C49084FEA300092185B4150EACE
:1005B0000107EDD152EA030012D082EA040083EA77
:1005C0000501084305D0101BAB4106D201220023D0
:1005D00006E000224FF0004302E06FF001025310EA
:1005E0001AEB06004CEB085110EB0A0041EB0B0133
:1005F000BDE8F04D00F073B8C1F30A52C1F3130126
:1006000040F2FF3341F480119A4202DA00200146A1
:10061000704740F233439A42A2F2334202DC524224
:1006200000F03BB800F02AB830B5041E71F10004A8
:1006300004DB4FF00044404264EB0101141E73F1EF
:10064000000405DB1C464FF00043524263EB0403F9
:10065000994208BF904230BD064C074D06E0E06865
:1006600040F0010394E8070098471034AC42F6D3F9
:10067000FFF7B6FDE04D0008004E0008202A04DB1D
:10068000203A00FA02F1002070479140C2F12003A5
:1006900020FA03F3194390407047202A04DB203AE4
:1006A00021FA02F00021704721FA02F3D040C2F192
:1006B00020029140084319467047202A06DBCB17D9
:1006C000203A41FA02F043EAE07306E041FA02F30D
:1006D000D040C2F12002914008431946704710B53E
:1006E000141E73F1000408DA401C41F10001921855
:1006F0005B411A4301D120F0010010BD2DE9F04DFE
:1007000092469B4611B1B1FA81F202E0B0FA80F252
:1007100020329046FFF7B2FF04460F4640EA0A0037
:1007200041EA0B0153465A46084313D0114653EA97
:10073000010019D0C8F140025046FFF7AEFF054650
:100740000E46504659464246FFF798FF084305D0EB
:10075000012004E020463946BDE8F08D0020054325
:1007600046EAE0762C4337430A986305E40AA0EB97
:1007700008000022FD0A44EA47540A3002D500204E
:100780000146E9E7010510196941DDE9084500194D
:100790006941BDE8F04DA2E7FEE77047002240F650
:1007A000B83306E00021491C89B29942FBD3521CA0
:1007B00092B28242F6D3704772B6FEE770B5044635
:1007C00000F03CF90546601C02D00448406804442F
:1007D00000F034F9401BA042FAD370BD3400002071
:1007E0002DE9F04FDFF82092002301260324A9F120
:1007F000040B85B00F2709F1040AABF1040EFAE0EF
:1008000006FA03F52A407CD091F804C00CF0030CE2
:10081000BCF1010F02D0BCF1020F26D1D0F808C004
:10082000CDF800C04FEA430C04FA0CF8CDF810C024
:10083000DDF800C02CEA080CCDF800C0D1F80C801F
:10084000DDF810C008FA0CF8DDF800C048EA0C0822
:10085000C0F80880D0F804C02CEA050C0D79C5F367
:1008600000159D4045EA0C0545600D79ED43AD0747
:100870000ED0C5684FEA430804FA08FC25EA0C05C7
:10088000D1F808C00CFA08FC4CEA050CC0F80CC002
:100890000D7905F00305022D16D1DD0800EB850C5E
:1008A000CDF808C0DCF820805D074FEAD56C07FA68
:1008B0000CF528EA05080D6905FA0CF5DDF808C005
:1008C00045EA0805CCF8205005684FEA430CCDF8FE
:1008D00008C004FA0CFC25EA0C0591F804C00CF0E1
:1008E0000308DDF808C008FA0CF848EA0508C0F863
:1008F00000804D6815F4403F7CD0444DD5F860C071
:1009000000E077E04CF0010CC5F860C02D6E23F0DC
:10091000030C05F0010500953D4D65440295AD6859
:100920004FEA837C4FEA1C7807FA08FC25EA0C059D
:10093000B0F1904F06D0DFF8DCC0604505D14FF034
:10094000010C20E04FF0000C1DE0DFF8CCC060454A
:1009500002D14FF0020C16E0DFF8C0C0604502D1B2
:100960004FF0030C0FE0DFF8B8C0604502D14FF044
:10097000040C08E0DFF8ACC0604502D14FF0050C74
:1009800001E04FF0060C0CFA08FC4CEA050C029D45
:10099000C5F808C0D9F80050CC46D1F8048095437A
:1009A0005FEAC82800D51543CCF80050DAF80050AB
:1009B000D446D1F8048095435FEA882800D51543D2
:1009C000CCF80050DBF80050DC46D1F804809543A9
:1009D0005FEA883800D51543CCF80050DEF80050A7
:1009E000F446D1F8048095435FEAC83800D5154332
:1009F000CCF800505B1C0A6832FA03F57FF400AFB4
:100A000005B0BDE8F08F000008040140001002406E
:100A1000000001400004004800080048000C0048A5
:100A200000100048001400480069084000D0012070
:100A300070470AB1816170478162704701488068E0
:100A40007047000034000020024881684268114469
:100A5000816070473400002010B50024032000F0AE
:100A600073F80F2000F008F808B1012401E000F04D
:100A700025F8204610BD000070B50E4E0546002436
:100A8000706898B14FF47A71B1FBF0F00A490968C7
:100A9000B1FBF0F000F0F8FB40B9102D06D20022B7
:100AA0002946501E00F030F8356000E00124204651
:100AB00070BD000034000020400000200A4882B0D1
:100AC000016E41F001010166016E01F0010100912A
:100AD000816D41F080518165806D00F08050009003
:100AE00002B000F0A1B8000000100240002809DBAD
:100AF00000F01F02012191404009800000F1E02038
:100B0000C0F8001170470000F0B40E4B1B680C4693
:100B1000C3F30223C3F10705042D00D90425191DD1
:100B2000072901D2002300E0DB1E012606FA05F1A9
:100B3000491E214099409E40761E16403143F0BC2C
:100B400001F070BE0CED00E0064900F007020868F5
:100B50004FF6FF03184040EA0220034A10430860A2
:100B6000704700000CED00E00000FA052B492C4B0B
:100B70000A6832214A432B4940B1B0F5007F08682A
:100B800029D020F4C06040F480602CE00868C0F3F5
:100B90004120022804D051F8800F20F4807022E018
:100BA000D1F8800020F48070C1F88000086820F43B
:100BB000C06040F400700860B2FBF3F0401C00E03D
:100BC000401E4A69520501D50028F9D148694005FF
:100BD0000AD503207047C0F34120022806D051F8FF
:100BE000800F40F48070086000207047D1F88000CA
:100BF00040F48070C1F88000086820F4C06040F4C0
:100C000000700860B2FBF3F0401C00E0401E4A692F
:100C10005205DBD50028F9D1D8E7000040000020BC
:100C200040420F00007000400248816841F480415A
:100C300081607047007000402DE9F0470E460500C6
:100C40004FF0000725D0DFF8AC81D8F8000000F0A5
:100C50000F00B0420CD2D8F8001021F00F01314340
:100C6000C8F80010D8F8000000F00F00B04210D112
:100C70002968614CC80741F2883A5AD06868DFF8A1
:100C80007C91032808D0022820682DD04005002838
:100C90002CDB0120BDE8F08720688001F9D5E068F1
:100CA00000F00302E068C0F30310401C032A19D0CF
:100CB000534A00BFB2FBF0F0E268C2F30622504391
:100CC000E268C2F34162521C5200B0FBF2F04845A8
:100CD00017D9A06810F0F00F0CD0880711D5A868BC
:100CE00040B10EE0474AE5E78003D0E700F092F814
:100CF000484506D9A06820F0F00040F08000A060D0
:100D00008027A068696820F003000843A060FFF70F
:100D100095FE814606E000BFFFF790FEA0EB0901BB
:100D200051453AD8A068696800F00C00B0EB810F1B
:100D3000F2D12868810714D5400703D5A06840F494
:100D4000E060A0602878000705D5A06820F4605016
:100D500040F4E060A060A068A96820F0F0000843BB
:100D600004E0802F03D1A06820F0F000A060D8F844
:100D70000010404601F00F01B14216D9016821F080
:100D80000F0131430160FFF759FE074607E000BF3E
:100D9000FFF754FEC11B514501D903207AE7D8F86B
:100DA000000000F00F00B042F2D12878400705D5CE
:100DB000A068E96820F4E0600843A0602878000794
:100DC00006D5A068296920F4605040EAC100A060FF
:100DD00000F020F8A1680C4AC1F30311515C01F046
:100DE0001F01C8400949086009480068BDE8F0478C
:100DF000FFF742BE002002400010024000B4C404CD
:100E00000024F40000366E01003C00084000002081
:100E100034000020184910B58868C0F381021748D3
:100E2000012A0BD08A68164BC2F38102022A06D02F
:100E30008A68C2F38102032A03D0002010BD18463D
:100E400010BDCA6802F00304CA68C2F30312521C40
:100E5000032C02D0B0FBF2F001E0B3FBF2F0CA6861
:100E6000C968C2F306225043C1F34161491C4900DD
:100E7000B0FBF1F010BD0000001002400024F400AF
:100E800000366E012DE9F84304007AD02078F84D41
:100E9000C00747D0A868E96800F00C0001F0030122
:100EA0000C2802D0082817D001E0032914D060686C
:100EB000B0F5803F17D0B0F5A02F286817D020F4E8
:100EC00080302860286820F4802028606068E0B1C5
:100ED000FFF7B4FD064614E02868800322D5606859
:100EE0000028D2D01EE0286840F48030EDE740F4BE
:100EF00080202860F7E700BFFFF7A0FD801B642873
:100F000070D828688003F7D50CE0FFF797FD0646F8
:100F100005E000BFFFF792FD801B6428F0D8286829
:100F20008003F7D4207880074CD5A868E96800F0E2
:100F30000C0001F003010C2802D004280DD001E0C0
:100F400002290AD0E068002828682BD040F480707D
:100F50002860FFF773FD064619E02868400502D5B2
:100F6000E068002891D06868217C20F0FE4040EACB
:100F700001606860BF480068FFF77EFD002800D16F
:100F800020E072E1FFF75AFD801B0228B8D82868DC
:100F90004005F7D56868217C20F0FE4040EA0160FA
:100FA00068600FE020F480702860FFF747FD064678
:100FB00005E000BFFFF742FD801B0228A0D828688B
:100FC0004005F7D42078000729D560690028D5F8B6
:100FD000940013D040F00100C5F89400FFF72EFDF7
:100FE000064606E090E000BFFFF728FD801B0228C0
:100FF00086D8D5F894008007F6D510E020F00100DF
:10100000C5F89400FFF71AFD064604E0FFF716FD49
:10101000801B022878D8D5F894008007F6D4207871
:10102000400761D5A86D0026C00008D4A86D40F027
:101030008050A865A86D012600F0805000908E4871
:101040000168C90511D40168804641F480710160CE
:10105000FFF7F4FC074604E0FFF7F0FCC01B022892
:1010600052D8D8F80000C005F6D5A068012815D0E0
:101070000528D5F8900016D020F00100C5F89000A2
:10108000D5F8900020F00400C5F89000A06841F267
:101090008838B8B1FFF7D2FC07460EE0D5F89000CB
:1010A00040F00100F0E740F00400C5F89000F5E7DB
:1010B000FFF7C4FCC11B414526D8D5F89000800736
:1010C000F6D50CE0FFF7BAFC074604E0FFF7B6FCE4
:1010D000C11B414518D8D5F890008007F6D41EB141
:1010E000A86D20F08050A8652078800629D5A069D9
:1010F0000028D5F8980013D040F00100C5F89800FA
:10110000FFF79CFC064606E075E000BFFFF796FC83
:10111000801B02286FD8D5F898008007F6D510E01C
:1011200020F00100C5F89800FFF788FC064604E0AF
:10113000FFF784FC801B02285DD8D5F89800800753
:10114000F6D4E069F0B3A968C1F3810103295DD049
:101150000228286820F08070286003D0FFF76EFC1A
:1011600004464BE0FFF76AFC064604E0FFF766FC26
:10117000801B02283FD828688001F7D4F4E90801D1
:101180006FF00F0202EB01110843218A5204490853
:1011900002EB4151A26841EA02210843217D4FF050
:1011A0007E42490802EB41610843217B40EAC1606D
:1011B000E968324A11400843E860286840F08070CE
:1011C000286000E05EE0E86840F08070E860FFF7CB
:1011D00035FC044605E000BFFFF730FC001B022889
:1011E00009D828688001F7D54CE000BFFFF726FC3E
:1011F000001B022802D90320BDE8F883286880017B
:10120000F4D4E8681E490840E8603BE00128F3D0C8
:10121000E868226A00F00301914226D1616A00F079
:10122000F0020901103991421FD1A26A00F4FE4177
:10123000B1EB022F19D194F82C2000F07841B1EBDA
:10124000C26F12D1218E00F4C00249084905A1F5F0
:101250000011914209D194F8341000F0C06049089F
:101260004906A1F1007181420CD00120C4E70000C1
:101270000010024034000020007000400C809F01EC
:10128000FCFFEEFE0020B7E710B5401EB0F1807FF6
:1012900001D3012010BD4FF0E02460610F216017E1
:1012A00001F0C0FA0020A06107202061002010BDDD
:1012B000704770477047704770477047F0B590F8B7
:1012C0003C20012A3AD0012580F83C50022280F8C7
:1012D0003D2003685A689C68194E1A4FB34201D0EA
:1012E000BB4204D122F4700C4A6842EA0C02DFF8D7
:1012F00058C002EA0C02D1F800C04CEA020CC3F854
:1013000004C00268B2420DD0B2F1804F0AD00F4B38
:101310009A4207D00E4B9A4204D0BA4202D00D4BEB
:101320009A4204D1896824F080031943916080F8BF
:101330003D50002180F83C100846F0BD0220F0BD71
:10134000002C0140003401408FFFFFFD00040040ED
:101350000008004000400140704710B5040003D071
:1013600094F83D0010B107E0012010BD002084F882
:101370003C00204600F022F8022084F83D00211DA8
:10138000206801F045F9012084F8480084F83E0007
:1013900084F83F0084F8400084F8410084F842005B
:1013A00084F8430084F8440084F8450084F846003B
:1013B00084F8470084F83D00002010BD10B586B0C9
:1013C000044614216846FEF72AFF226800233048AD
:1013D0000221B2F1804F25D02E4CA24245D1826D20
:1013E00042F002028265826D02F002020592C26C36
:1013F00042F00202C264C06C00F0020005901020AE
:101400008DE80B00CDE9033169462348FFF7E8F981
:10141000002211461D20FFF777FB1D20FFF766FB1A
:1014200006B010BD826D42F001028265826D02F04D
:1014300001020592C26C42F00102C264C06C00F06D
:10144000010005904FF400408DE80B000120CDE92C
:10145000033069464FF09040FFF7C2F90022114671
:101460001C20FFF751FB1C20D8E70C498A42D7D13A
:10147000816D41F004018165806D002200F004005F
:10148000059011461E20FFF73FFB1E20C6E7000017
:101490000010024000040040000400480008004022
:1014A00090F83D10012901D001207047022180F8F9
:1014B0003D100168CA6842F00102CA600068104924
:1014C00088420ED0B0F1804F0BD00E49884208D030
:1014D0000D49884205D00D49884202D00C49884206
:1014E00007D181680B4A1140062906D0B1F5803F2B
:1014F00003D0016841F00101016000207047000045
:10150000002C01400004004000080040003401406D
:10151000004001400700010070B5044690F83C000F
:101520000025012814D0012684F83C60022084F8AC
:101530003D0022689068364B184020F47F40906050
:10154000086870282ED010DC10F00F0F03D021E0B7
:101550004FF0020070BD4FEA2012072A1AD2DFE8CE
:1015600002F0525252524A3840002A4BC21A984254
:1015700049D009DCB0F5805F0DD0B0F5005F1CD01C
:10158000B0F1101F06D13EE0102A3CD0202A3AD0FC
:10159000502A38D0012584F83D60002084F83C00B2
:1015A000284670BDCB68D1E90121206801F09BF885
:1015B0002068816841F0770109E0CB68D1E9012119
:1015C000206801F090F82068816841F480418160D2
:1015D000E1E7CA684968206801F09AF8502120685C
:1015E00006E0CA684968206801F0DAF860212068DE
:1015F00001F084F8CFE7CA684968206801F088F8EC
:1016000040212068F4E7226801461046F0E7000018
:1016100088FFCEFF200010002DE9F04705462DED94
:10162000048B4FF0000900689FED378A374EDFEDDD
:10163000388A384F9FED389ADFF8E080384CB0F1A7
:10164000804F28D10021374800F0B8FA38B100EEB9
:10165000100AB8EE400AC8EE000AC4ED030AE068BA
:10166000B04201DDC4ED038AE068B84201DA84EDDE
:10167000039A98ED000AD4ED030A2A49B8EEC00A8D
:1016800030EE800A84ED030A0968C1F82490002135
:10169000244800F00FF92449286888422FD12148B6
:1016A00000214C3000F08AFA38B100EE100AB8EE92
:1016B000400AC8EE000AC4ED040A2069B04201DD08
:1016C000C4ED048A2069B84201DA84ED049A98EDE9
:1016D000000AD4ED040A1349B8EEC00A4C3130EECA
:1016E000800A84ED040A0968C1F824900D4800219D
:1016F000BDEC048B4C30BDE8F04700F0DBB8BDEC2E
:10170000048BBDE8F08700000024F44A00409C46AA
:1017100000409C460000C8430000C843540000201D
:1017200004000020A8000020000400402DE9F04142
:10173000054690F83C0000260C46012810D00120F8
:1017400085F83C0072B1042A1CD0082A2CD00C2A3F
:1017500050D00126002085F83C003046BDE8F081DD
:101760000220FBE7D4E90012E368286800F0E2FFFA
:101770002868816921F00C01816128688169A2686B
:1017800011430FE0D4E90012E368286801F01AF869
:101790002868816921F44061816128688169A268B3
:1017A00041EA02218161D5E72868D4E9002C277B32
:1017B000036A016A21F480710162C16923F4206324
:1017C00021F0030141EA0C0121F0F00C39074FF43C
:1017D00020674CEA116107EA02221A43C1610262E2
:1017E0002868C16921F00C01C1612868C169A2683B
:1017F00011432BE02868D4E90021E768036AD0F898
:1018000020C02CF4805CC0F820C0D0F81CC023F4A9
:1018100020432CF4407C4CEA012121F4704C4FF61B
:10182000FF7101EA07314FF4204741EA0C0107EA52
:1018300002321A43C16102622868C16921F4406121
:10184000C1612868C169A26841EA0221C16181E7DA
:1018500010B5040003D094F83D0010B107E001205A
:1018600010BD002084F83C00204600F022F8022041
:1018700084F83D00211D206800F0CAFE012084F894
:10188000480084F83E0084F83F0084F8400084F863
:10189000410084F8420084F8430084F8440084F84E
:1018A000450084F8460084F8470084F83D00002095
:1018B00010BD704730B50446002571B1042911D020
:1018C000082914D00C2917D0102918D094F84300F7
:1018D00094F84720012817D114E094F83E0094F8BA
:1018E0004420F7E794F83F0094F84520F2E794F895
:1018F000400094F84620EDE794F84100E8E794F8BA
:101900004200E5E7012A01D0012030BD022079B173
:10191000042916D008291DD00C2949D010294AD0F5
:1019200084F8430084F847000C2947D001253DE0A6
:1019300084F83E0084F844002068C26842F0020245
:1019400010E084F83F0084F845002068C26842F047
:10195000040207E084F8400084F846002068C2686A
:1019600042F00802C2600122206800F0AFFE164972
:10197000206888420ED0B0F1804F0BD013498842C6
:1019800008D01349884205D01249884202D0124932
:10199000884207D18168114A1140062906D0B1F565
:1019A000803F03D0016841F001010160284630BD4D
:1019B00084F84100B6E784F84200B3E72068C268C3
:1019C00042F01002CEE70000002C0140000400406D
:1019D00000080040003401400040014007000100C1
:1019E0002DE9F04104460068C66805694FF000071C
:1019F000A90713D5B10711D5F91E01610120207780
:101A0000206880698007204602D0FFF705FE04E0C9
:101A100000F0B7F8204600F0B5F82777680716D52C
:101A2000700714D521686FF0040008610220207748
:101A30002068806910F4407F204602D0FFF7ECFD5B
:101A400004E000F09EF8204600F09CF82777280775
:101A500015D5300713D521686FF008000861042000
:101A600020772068C0698007204602D0FFF7D4FDA8
:101A700004E000F086F8204600F084F82777E806B6
:101A800016D5F00614D521686FF010000861082003
:101A900020772068C06910F4407F204602D0FFF70D
:101AA000BBFD04E000F06DF8204600F06BF82777EE
:101AB000E80708D0F00706D021686FF00100086140
:101AC000204600F061F8280601D4A80408D53006A5
:101AD00006D521686FF4025008612046FFF7E9FB44
:101AE000E80508D5300606D521686FF480700861D6
:101AF0002046FFF7DDFB680608D5700606D521688D
:101B00006FF040000861204600F06DF8A80608D587
:101B1000B00606D521686FF0200008612046FFF767
:101B2000C9FBE80208D5F00206D521686FF48010E1
:101B300008612046FFF7C0FBA80208D5B00206D511
:101B400021686FF4001008612046FFF7B4FB6802BB
:101B500008D5700206D521686FF480000861204620
:101B6000FFF7ABFB28020AD5300208D521686FF4D5
:101B7000000008612046BDE8F041FFF7EDBBBDE87D
:101B8000F08170477047000010B50068094988422D
:101B90000FD101F0CBFA08488168491C81600278B6
:101BA000002A06D1B1F5967F03D3012101700021EF
:101BB000816010BD000800400400002002460020A3
:101BC00041B1042909D008290AD00C2901D1106893
:101BD000006C70471068406B70471068806B7047EE
:101BE0001068C06B70477047FEE7000000B585B015
:101BF00014216846FEF713FB4FF6FF70009000209B
:101C00000321CDE90201019069460248FEF7E8FD93
:101C100005B000BD0008004800B585B01421684635
:101C2000FEF7FDFA4FF6FF700090012001900320AF
:101C300003900020029069460248FEF7D1FD05B0EE
:101C400000BD00000008004870B50024064621468B
:101C5000204600F0FBF800F037F94FF49635304697
:101C600000F000F9641CAC42F9D370BD70B586B0C9
:101C700014216846FEF7D3FA1E48C16C41F00401F6
:101C8000C164C16C01F004010591C16C41F0010116
:101C9000C164C16C01F001010591C16C41F0020108
:101CA000C164C06C032500F0020005904FF4487039
:101CB0000124002603958DE8510069460E48FEF781
:101CC0008FFD200203958DE851004FF09044694646
:101CD0002046FEF785FDFFF79FFFA06940F4807066
:101CE000A06105481830016841F40871016006B030
:101CF00070BD00000010024000040048203AD2B23B
:101D0000034B02EB420203EB021200F019B8000091
:101D1000103C0008F0B50E460746002540F23F147F
:101D200007E021463846FFF7E9FF103C6D1CA4B2DE
:101D3000761C3278002A01D0142DF2D3F0BD0000B9
:101D40002DE9F04791468A460026044600F07EF8C9
:101D5000DFF84080012700BF00F0B6F85FF0000513
:101D600039F8160007FA05F10842404601D180888B
:101D700000E0408800F076F86D1C102DF0D3641C54
:101D8000E4B25146204600F061F8761C182EE3D3E9
:101D9000BDE8F0874400002010B5FFF767FF002082
:101DA00000F014F8084CE080E088A0F502413039DA
:101DB00006D000F0B5FA002000F008F8E08010BD71
:101DC00000F025FAF7E700004400002070B51D4937
:101DD0000A6842F400720A600A6842F480720A607B
:101DE000184C103C226842F020022260164A106013
:101DF000086840F02000086000BF00BF00BF2068F6
:101E000040F020002060206840F480702060FFF7E0
:101E1000EDFE4FF09041886A40F48070886200BF08
:101E200000BF00BF0848001F006885B2886940F401
:101E300080708861FFF7F0FE206840F40070206039
:101E4000284670BD280400481408004810B50C4608
:101E50000146202000F06AF82146BDE8104021200C
:101E600000F064B818B5164B1968164A009111684D
:101E700041F400711160134910390C6844F4807406
:101E80000C600C6844F020040C601860106840F08E
:101E90002000106000BF00BF00BF086840F02000B5
:101EA0000860086840F48070086000BF00BF00BF91
:101EB000086840F4007008600098186018BD0000C1
:101EC0001408004828040048164A08B51068164946
:101ED0000090086840F400700860086840F4807062
:101EE000086011481038036843F020030360222380
:101EF00013600B6843F020030B6000BF00BF00BFFE
:101F0000016841F020010160016841F480710160C5
:101F100000BF00BF00BF016841F40071016000987C
:101F2000106008BD140800482804004838B51A4C51
:101F300022681A4B00921A6842F400721A601A68FA
:101F400042F480721A60154A103A156845F020056F
:101F500015602060186840F02000186000BF00BFC6
:101F600000BF106840F020001060106840F48070DE
:101F700010602160186840F02000186000BF00BFAA
:101F800000BF106840F020001060106840F48070BE
:101F900010600098206038BD1408004828040048EC
:101FA000F0B587B014216846FEF739F92D48C16CA9
:101FB00041F00401C164C16C01F004010591C16CE0
:101FC00041F02001C164C16C01F020010591C16C98
:101FD00041F00101C164C16C01F001010591C16CC6
:101FE00041F00201C164C16C01F002010591C16CB4
:101FF00041F00801C164C06C1B4E00F008004FF4B2
:102000007F440590012221463046FEF712FD174F0E
:10201000002204213846FEF70CFD0125CDE90045DC
:1020200000240294694630460394FEF7D9FBCDE9BB
:10203000005469464FF090400294FEF7D1FB072010
:10204000CDE9000469460A480294FEF7C9FB042062
:102050000090CDE90154694638460394FEF7C0FB71
:1020600007B0F0BD0010024000080048000C004816
:102070000004004810B58CB0002405942148049455
:102080000694079408940A94099400940194029485
:102090004FF08041039401600921C0E90114611EE1
:1020A000C0E903148461FFF758F908B1FEF784FB17
:1020B0004FF48050049004A91248FFF72DFA08B19C
:1020C000FEF77AFB0F48FFF7C3FB08B1FEF774FB7E
:1020D000089408A90B480A94FFF7F0F808B1FEF736
:1020E0006BFB0120CDE900400294002269460548BF
:1020F0000394FFF71BFB002801D0FEF75DFB0CB03B
:1021000010BD0000A800002010B58CB0002405947C
:10211000224804940694079408940A94099400941D
:10212000019402941C49039401600921C0E901143F
:102130004FF6FF71C0E903148461FFF70EF908B18F
:10214000FEF73AFB4FF48050049004A91348FFF7C0
:10215000E3F908B1FEF730FB1048FFF779FB08B14F
:10216000FEF72AFB089408A90C480A94FFF7A6F882
:1021700008B1FEF721FB0120CDE9004002940022C6
:10218000694606480394FFF7D1FA002801D0FEF70C
:1021900013FB0CB010BD000000040040F400002050
:1021A00010B588B000241748009401940294039459
:1021B000049405941249069401604F21C0E901146A
:1021C00042F20F71C0E903148461FFF7C6F808B149
:1021D000FEF7F2FA4FF48050009069460948FFF785
:1021E0009BF908B1FEF7E8FA049404A9054806949F
:1021F000FFF764F8002801D0FEF7DEFA08B010BD42
:102200000008004040010020FEE7FEE7704730B5BF
:1022100001210020FFF78AFE4FF47A70FEF7BEFA24
:1022200000210120FFF782FE41F290711020FFF79C
:102230007DFE4FF41C516020FFF778FE01216120E4
:10224000FFF774FE02214620FFF770FE48F21001EE
:102250001320FFF76BFE48F2FE011220FFF766FE27
:102260004FF4A0610220FFF761FE41F2300103202C
:10227000FFF75CFE40F2033421463020FFF756FEA4
:1022800021463120FFF752FE21463220FFF74EFE55
:10229000E51E29463320FFF749FE03213420FFF7CE
:1022A00045FE21463520FFF741FE14213620FFF779
:1022B0003DFE21463720FFF739FE21463820FFF743
:1022C00035FE21463920FFF731FE29463A20FFF737
:1022D0002DFE03213B20FFF729FE21463C20FFF77E
:1022E00025FE4FF4A0513D20FFF720FE4FF4007172
:1022F0009220FFF71BFE21469320FFF717FE40F6C2
:102300000D019020FFF712FE41F218010320FFF7A4
:102310000DFEBDE8304040F273110720FFF706BE06
:1023200010B543F20801E320FFF700FE1221E72079
:10233000FFF7FCFD41F23121EF20FFF7F7FD00210F
:102340000120FFF7F3FD4FF4E0610220FFF7EEFDFF
:1023500041F230010320FFF7E9FD00210420FFF7DF
:10236000E5FD40F207210820FFF7E0FD00210920EC
:10237000FFF7DCFD00210A20FFF7D8FD00210C202B
:10238000FFF7D4FD00210D20FFF7D0FD00210F2025
:10239000FFF7CCFD00211020FFF7C8FD0721112019
:1023A000FFF7C4FD00211220FFF7C0FD002113201C
:1023B000FFF7BCFDC820FEF701FA41F29061102042
:1023C000FFF7B4FD40F227211120FFF7AFFD3220C7
:1023D000FEF7F4F91D211220FFF7A8FD3220FEF7C9
:1023E000EDF94FF400611320FFF7A0FD142129201F
:1023F000FFF79CFD0B212B20FFF798FD3220FEF705
:10240000DDF900212020FFF791FD00212120FFF7B9
:102410008DFD07213020FFF789FD40F20771312043
:10242000FFF784FD06213220FFF780FD40F20471A2
:102430003520FFF77BFD41F604713620FFF776FD6E
:1024400004213720FFF772FD00213820FFF76EFDD1
:1024500040F206713920FFF769FD40F201713C201E
:10246000FFF764FD0F213D20FFF760FD00215020A4
:10247000FFF75CFDEF215120FFF758FD00215220AE
:10248000FFF754FD40F23F115320FFF74FFD4FF48B
:102490001C516020FFF74AFD01216120FFF746FD36
:1024A00000216A20FFF742FD00218020FFF73EFD5A
:1024B00000218120FFF73AFD00218220FFF736FD41
:1024C00000218320FFF732FD00218420FFF72EFD3D
:1024D00000218520FFF72AFD10219020FFF726FD1F
:1024E00000219220FFF722FD03219320FFF71EFD1C
:1024F0004FF488719520FFF719FD00219720FFF711
:1025000015FD00219820FFF711FD41F2180103206D
:10251000FFF70CFDBDE8104040F273110720FFF7F4
:1025200005BD704710B5FEF78FFA0E480023012253
:102530000168491C01601E2902D30B4903600A701F
:102540004168491C4160642902D3084943600A700C
:102550008168491C8160642902D383600448027049
:1025600010BD000028000020000000200100002015
:102570000200002010B594B038216846FDF74FFEE8
:1025800014210EA8FDF74BFE4FF40070FEF7EEFA93
:10259000012000900004019002200324CDE90704EB
:1025A0001421CDE90A100C900D9009946846FEF7AD
:1025B00069FC08B172B6FEE70F20CDE90E040020D9
:1025C00010901190129002210EA8FEF735FB002802
:1025D00001D072B6FEE714B010BD000002480168D9
:1025E00041F470010160704788ED00E00148FFF799
:1025F000F7B90000A80000200148FFF7F1B900007A
:10260000F40000200148FFF7EBB900004001002072
:102610002DE9F0430268264B264D274E274C4FF0FC
:102620008049984207D0484505D0A84203D0B0421F
:1026300001D0A04203D122F070074A683A43204FEC
:10264000DFF880C0DFF8808098420DD048450BD07D
:10265000A84209D0B04207D0A04205D0B84203D06A
:10266000604501D0404503D122F44075CA682A4331
:102670004D6922F080022A4302608A68C2620A68B9
:102680008262984207D0A04205D0B84203D060458C
:1026900001D0404501D1096901630121416101690E
:1026A000C90703D0016921F001010161BDE8F08390
:1026B000002C0140000400400008004000340140AC
:1026C00000400140004401400048014010B501F0C5
:1026D0001F030121046A99408C430462016A9A40F5
:1026E0001143016210BD10B5846842EA032224F44C
:1026F0007F440A432243826010BD00008268034B7E
:102700001A400A4342F00701816070478FFFCFFFF4
:1027100010B5036A046A24F001040462846924F099
:10272000F00444EA021423F00A020A4384610262BC
:1027300010BD000070B5056A046A24F0010404624B
:102740008469124EB0420ED0B0F1804F0BD0104EC3
:10275000B04208D00F4EB04205D00F4EB04202D06A
:102760000E4EB04203D124F00304144301E044F0C0
:1027700001041A0724F0F00444EA126225F00A0367
:1027800001F00A0119438261016270BD002C014011
:1027900000040040000800400034014000400140B7
:1027A00010B5036A046A24F010040462846923F0FB
:1027B000A00324F4704444EA023243EA0111826126
:1027C000016210BD30B5046A056A25F01005056286
:1027D000856925F4407545EA022222F470454FF6DA
:1027E000FF7202EA033224F0A0032A43A02404EA81
:1027F000011119438261016230BDFEE70FB4084B3D
:1028000010B504A902AA039800F0EEF8044602A944
:10281000002000F080FC204610BC5DF814FB000096
:10282000173100080907090E002804DB00F1E02039
:1028300080F80014704700F00F0000F1E02080F8ED
:10284000141D704702E008C8121F08C1002AFAD1FF
:1028500070477047002001E001C1121F002AFBD120
:10286000704700002DE9FF5F82B00021DDE90430F0
:10287000020DDDF840B0034318D044F61050A2F228
:10288000FF3242431514119801281FD0A5EB0B000D
:10289000401C5FEA000A4FF000064E4FDFF8389107
:1028A000B046504615D5CAF1000413E01198012432
:1028B0004AA3012801D16FEA0B010298119AC0E9DD
:1028C0000031C0E9024206B0BDE8F09FCBF1000044
:1028D000DFE704460021404A491842EB0450CDE9A5
:1028E000001012E0E00707D032463B46404649461A
:1028F000FDF7A1FD8046894632463B461046194603
:10290000FDF799FD06460F466410002CEAD1DDE97B
:102910000401DDE90023BAF1000F06DAFDF78BFDB3
:1029200042464B46FDF787FD05E0FDF7F6FD4246C2
:102930004B46FDF7F2FD04460E460022284BFDF7FC
:1029400073FE03D84FF0FF30014607E00022254B0D
:1029500020463146FDF7C8FCFDF74EFE102409E085
:10296000002C0ADB0A220023FDF78DFC039B30328A
:102970001A55641E50EA0102F2D1641C039AC4F194
:1029800011031444119A012A03D0012208430DD1E6
:102990000AE0084304D000204FF0110B119072E7B9
:1029A000A3EB0B056D1E0DE05B4504DD4FF000024F
:1029B00005F1010504E003DA4FF00002A5F101057D
:1029C000002AECD002981199C0E90231C0E9004513
:1029D00079E70000000014400000F03F30000000E4
:1029E0000000F0430000E03F2DE9FF4F95B09B460B
:1029F0008946064600250FE2252877D10024274680
:102A0000F84A0121059400E0044316F8013F203BF9
:102A100001FA03F01042F7D130782A2811D06FF074
:102A20002F033078A0F13002092A16D8059A44F015
:102A3000020402EB820203EB42021044761C059072
:102A4000EFE759F8042B0592002A03DA504244F4C8
:102A50000054059044F00204761C30782E2816D1DC
:102A600016F8010F44F004042A280DD06FF02F024D
:102A70003078A0F13003092B09D807EB870302EB6C
:102A80004303C718761CF3E759F8047B761C3078AB
:102A90006C280FD006DC4C2817D068280DD06A2887
:102AA00014D104E0742810D07A280FD10DE044F43A
:102AB00000140AE044F4801401E044F440147278F5
:102AC000824202D104F58014761C761C3078662888
:102AD0000BD013DC582877D009DC002875D04528A6
:102AE000F6D04628F4D047281AD19DE118E0632893
:102AF00035D0642879D0652812D195E1702873D03B
:102B000008DC6728F1D069286FD06E280DD06F28B7
:102B100006D1B5E073282CD0752875D0782874D0EC
:102B20005A46179990476D1C75E1C4F3025002286C
:102B300009D003280DD0D9F8001004280DD00D605D
:102B400009F1040967E1D9F80010EA17C1E9005258
:102B5000F6E7D9F800100D80F2E70D70F0E719F8EC
:102B6000041B8DF8001000208DF80100EA460120BA
:102B700003E059F804AB4FF0FF3061074FF000015C
:102B800002D40DE008F101018846B9420FDA804510
:102B9000F8DB1AF808100029F4D108E008F1010167
:102BA00088468142FADB1AF808100029F6D1059808
:102BB0005B46A0EB080721463846179A00F094FAC6
:102BC000284400EB080507E04DE029E10DE01AF884
:102BD000010B5A4617999047B8F10108F7D25B46A6
:102BE00021463846179A13E142E00A220092C4F3C4
:102BF00002524FF0000A022A08D059F804CB032AE7
:102C00004FEAEC710AD00DE029E02AE009F1070152
:102C100021F00702F2E802C1914609E00FFA8CFCAC
:102C20004FEAEC71042A03D14FFA8CFC4FEAEC71A5
:102C3000002907DA0A460021DCF1000C61EB0201F1
:102C40002D2202E0220504D52B228DF8042001223A
:102C500003E0E20701D02022F7E7904659E00A217D
:102C600002E010220DE010214FF0000A00910BE06D
:102C700010224FF0000A44F004040827009203E0F9
:102C800008224FF0000A0092C4F30252022A05D033
:102C900059F804CB0021032A08D009E009F1070103
:102CA00021F00702F2E802C1914605E01FFA8CFC10
:102CB000042A01D10CF0FF0C4FF00008220728D5A0
:102CC000702806D0009B83F0100353EA0A0305D056
:102CD0000EE040228DF80420012208E05CEA0102A7
:102CE00006D030228DF804208DF80500022290468F
:102CF000009B83F0080353EA0A030AD15CEA01024D
:102D000001D1620705D530228DF804204FF001086B
:102D10007F1E582804D034A003900EA802900DE026
:102D200036A0F9E753466046009AFDF7ACFA8446B0
:102D30000398825C0298401E029002705CEA0100D7
:102D4000F0D1029806A9081A00F1200A600702D5FE
:102D500024F4803400E00127574502DDA7EB0A0088
:102D600000E0002000EB0A01009005984144401A61
:102D70000590E00306D45B462146179A059800F0BB
:102D8000B3F90544002706E001A85A46C05D17992B
:102D900090476D1C7F1C4745F6DBE0030CD55B4676
:102DA0002146179A059800F09FF9054404E0302069
:102DB0005A46179990476D1C0099481E00900029AB
:102DC000F5DC08E0029802995A460078491C029105
:102DD000179990476D1CBAF10001AAF1010AF1DCC4
:102DE00065E10000092801003031323334353637CF
:102DF0003839616263646566000000003031323347
:102E000034353637383941424344454600000000E6
:102E100000F058F90544761C307800287FF4ECADBA
:102E200019B02846BDE8F08F620700D4062709F1E3
:102E3000070222F0070CFCE80223E14603F00048F9
:102E40005FEA080C02D00FF2702C0DE05FEA045C20
:102E500002D50FF2682C07E05FEAC47C02D00FF2C3
:102E6000602C01E0AFF2700C4FF0FF3823F000430C
:102E7000CDF850C065280CD006DC452809D046287E
:102E80001DD047283DD13DE0662818D067287ED167
:102E900038E00021112F01DB112000E0781CCDE982
:102EA000000106A90EA8FFF7DDFCDDE90F010E9A6F
:102EB00003910021009207F1010A04914DE04FF0C7
:102EC00000400097CDE9011006A90EA8FFF7CAFC43
:102ED000DDE90F0203920E9B11990022DDF80CA090
:102EE0000093049211B9791C00EB010AB7EB0A00B8
:102EF00004D4C0F1FF3007F1010A0490AAEB0700E7
:102F0000019044E0012F00DA01270021112F01DD9B
:102F1000112000E03846CDE9000106A90EA8FFF710
:102F2000A1FCDDE90F010E9A0391002104910092AA
:102F3000BA4621070CD40399514500DA8A46BAF102
:102F4000010F05DD009AAAF10101515C302908D07A
:102F5000B84202DA10F1040F06DA0121CDE90110BE
:102F600015E0AAF10101E9E7002805DC0499014414
:102F70000491AAEB000102E0411C514500DD8A46A4
:102F80000499401A401C01904FF000400290200725
:102F900004D40198504501DBCDF8048000208DF861
:102FA0004F0002980DF14F07B0F1004F25D02B20B4
:102FB0000E9002984FF0020800280CDA404202906E
:102FC0002D200E9007E00A210298FDF746F93031D6
:102FD000029007F8011DB8F10001A8F10108F2DC28
:102FE00002980028EFD1791E0E980870307800F012
:102FF000200040F0450007F8020D12A8C01B00F1A8
:1030000007081498007800B1012000EB0A0101982C
:1030100001EBE07105984144401A401E0590E00321
:1030200006D45B462146179A059800F05DF80544E2
:103030001498007818B15A46179990476D1CE00310
:1030400024D55B462146179A059800F04DF80544B3
:103050001CE00498002807DBDDE90301884203DD5A
:103060000098405C179901E0179930205A46904724
:10307000049805F10105401C04900198401E019040
:1030800004D12E205A46179990476D1CBAF10001C1
:10309000AAF1010ADDDC05E017F8010B5A46179981
:1030A00090476D1CB8F10001A8F10108F4DC5B4603
:1030B0002146179A0598ABE62D0000002B00000072
:1030C000200000002DE9F041044600251E46174669
:1030D000880404D405E039462020B0476D1C641EE6
:1030E000F9D52846BDE8F0812DE9F04104460025D8
:1030F0001E469046C80301D5302700E020278804EB
:1031000004D505E041463846B0476D1C641EF9D52C
:103110002846BDE8F0810A68531C0B6010707047A8
:103120000148FEF7BDB900004001002070B52A4DEE
:1031300001212846FDF778FC08B1012100E00021BB
:10314000264C284661700221FDF76EFC00B101207B
:10315000607304212846FDF767FC00B1012060760A
:1031600001214FF09040FDF75FFC00B1012084F891
:10317000250000200125014600EB400214F8223012
:1031800023B1012B0DD0022B21D113E004EB8203DC
:103190005E7816B904F8225019E0997059601972D6
:1031A00015E004EB82035E7846B9022604F822603B
:1031B0009D700CE004EB82035E7816B104F82210D7
:1031C000EBE75A68521C5A60642A00D31D72401CF7
:1031D000C0B20428D0D370BD00040048780000209D
:1031E0002DE9F04F7D4A814E002094787C4DDFF828
:1031F000F4A1DFF8F4B1DFF8F8E196F820707D4B28
:103200004FF47A794FEA000100EB400C06EB8C0C8E
:103210009CF802C0BCF1010F23D130B1012839D094
:10322000022874D003281CD19BE0B17093F800C031
:10323000BCF1010F15D192F801C0BCF1000F06D00E
:10324000BCF1010F0ED0BCF1020F0AD117E0D5F886
:1032500000C00CF1640CC5F800C0CC4501DDC5F818
:10326000009095E0DAF800C042F210780CF1640C9E
:10327000CAF800C0C44501DDCAF8008088E0DBF868
:10328000008008F16408CBF80080C84501DDCBF868
:1032900000907DE0DFF854C18CF80E1093F800C068
:1032A000BCF1010F74D192F801C0BCF1000F06D03F
:1032B000BCF1010F11D0BCF1020F69D118E0D5F8B3
:1032C00000C0ACF1640CC5F800C0BCF1640F5FDA5B
:1032D0004FF0640CC5F800C05AE0DAF80080A8F19D
:1032E0006408CAF80080C84552DACAF800904FE076
:1032F000DBF80080A8F16408CBF8008018F57A7F2D
:1033000046DADFF8F480CBF8008041E0FFE793F87D
:1033100000C0BCF1010F06D0BCF1000F14D0BCF10D
:10332000020F1AD034E0DFF8C4C08CF81A1092F8FB
:1033300001C00CF1010C0CF0FF0C82F801C0BCF1D3
:10334000020F25D9517023E0DFF8A0C08CF81A10C5
:103350009EF8008088F001081FE0012F18D1012499
:1033600034E0DFF888C08CF8261093F800C00CF128
:10337000010C0CF0FF0C83F800C0BCF1020F01D966
:10338000197008E0BCF1000F05D0BCF1010FD9D0D5
:10339000E4B12FB11AE04FF001088EF80080F7E792
:1033A00093F800C00024BCF1020F0FD1DFF84CC02D
:1033B000CCF80010DFF848C0CCF80010DFF844C0AB
:1033C000CCF80010DFF840C0CCF80010401CC0B2B0
:1033D0000428FFF419AF9470BDE8F08F04000020BA
:1033E0004C000020500000205400002078000020F5
:1033F000450000204400002018FCFFFF7000002062
:1034000074000020680000206C00002008B5FEF762
:10341000C3FC6420FDF7D2F90020ADF80000BDF830
:103420000010074881804FF6FF71ADF80010BDF81D
:1034300000104180BDE808400020FEF705BC0000F8
:103440004400002070B5B04C2DED028B2078002890
:1034500033D001287ED002287DD1ACA1B148FFF73E
:10346000CDF9B0491820FEF755FCAFA1AD48626A0E
:10347000FFF7C4F9AB494820FEF74CFCB0A1A948BE
:10348000A26AFFF7BBF9A7496020FEF743FCB2A18F
:10349000A448E26AFFF7B2F9A2497820FEF73AFCA5
:1034A000B3A1A048226BFFF7A9F9BDEC028B9020D5
:1034B000BDE870409B49FEF72DBCB3A19948FFF7CA
:1034C0009DF998491820FEF725FC6178B448B54E5F
:1034D0009FEDB58AB54D002964D090ED000A10EE3D
:1034E000100AA84210DDC0EE080AC4ED050A10EE6D
:1034F000900AFCF79FFE41EC100BADA153EC102B92
:103500008848FFF77BF91CE010EE100AA8420FDC98
:10351000B5EEC00AF1EE10FA0ADB84ED050ABCEE46
:10352000C00AA8A17F4810EE102AFFF767F908E04B
:10353000B5EEC00AF1EE10FA07D2A7A17948FFF75D
:103540005DF978494820FEF7E5FB96ED000A10EE9C
:10355000100A01E0B5E0D4E0A8420DDDC0EE080A93
:10356000C4ED060A10EE900AFCF764FE41EC100B65
:103570009EA153EC102B76E010EE100AA84276DCE8
:10358000B5EEC00AF1EE10FA71DB84ED060ABCEE6E
:10359000C00A9BA110EE102A78E09EA16148FFF7B7
:1035A0002DF976E0D0ED000A9FED9F0AF5EEC00AF6
:1035B000F1EE10FA03D080EE201A84ED071AD6ED52
:1035C000000AF5EEC00AF1EE10FA03D080EE201AE0
:1035D00084ED081A94ED070A10EE100AA84210DDD7
:1035E000C0EE080AC4ED070A10EE900AFCF722FEAE
:1035F00041EC100B8DA153EC102B4A48FFF7FEF85D
:103600001AE010EE100AA8420DDCB5EEC00AF1EE89
:1036100010FA08DBBCEEC00A8AA1424810EE102A5C
:10362000FFF7ECF808E0B5EEC00AF1EE10FA07D2A9
:1036300069A13C48FFF7E2F83A494820FEF76AFBE7
:1036400094ED080A10EE100AA84211DDC0EE080A37
:10365000C4ED080A10EE900AFCF7ECFD41EC100BEB
:103660007DA153EC102B2F48FFF7C8F811E021E0A3
:1036700010EE100AA8421DDCB5EEC00AF1EE10FAF9
:1036800018DBBCEEC00A7AA110EE102A2548FFF71D
:10369000B5F824496020FEF73DFB7AA12148FFF7E9
:1036A000ADF820497820FEF735FB76A11D48FFF7DD
:1036B000A5F8FAE6B5EEC00AF1EE10FAFFF46DAF28
:1036C000EBE776A11748FFF799F816491820FEF79F
:1036D00021FB78A11348A268FFF790F81149482010
:1036E000FEF718FB78A10F48E268FFF787F80D494D
:1036F0006020FEF70FFB79A10A482269FFF77EF8E8
:10370000CFE7BDEC028B70BD4400002020202020BC
:10371000202020205245434420202020202020200B
:10372000000000008C01002020202020204E444179
:103730003D25642020202020202020202000000083
:1037400020202020204E44423D256420202020209F
:10375000202020202000000020202020204E484152
:103760003D25642020202020202020202000000053
:1037700020202020204E48423D256420202020206B
:103780002020202020000000202020202020202099
:10379000444154412020202020202020000000000F
:1037A000100000201400002000007A4400007A4439
:1037B0002020202020413D252E32664B487A2020B3
:1037C000202020002020202020413D2564487A2010
:1037D00020202020202020002020202020413D4E9D
:1037E000554C4C202020202020202000202020206C
:1037F00020423D252E32664B487A20202020200092
:103800002020202020423D2564487A2020202020AE
:10381000202020002020202020423D4E554C4C20CE
:103820002020202020202000002474492020202057
:1038300020413D252E32666D53202020202020205F
:10384000000000002020202020413D2564755320E9
:1038500020202020202020002020202020423D2544
:103860002E32666D532020202020202000000000F2
:103870002020202020423D25647553202020202038
:103880002020200020202020202020202020202058
:1038900020202020202020200000000020202020A8
:1038A0002020202050415241202020202020202074
:1038B00000000000202020202050443D2564487A4C
:1038C0002020202020200000202020202050483DC3
:1038D0002564487A2020202020200000202020205D
:1038E0002050583D2564487A2020202020200000C8
:1038F00010B501224FF6FF710748FDF79AF8074C03
:10390000012204212046FDF794F820460022BDE85C
:1039100010400421FDF78DB800080048000C004855
:103920002DE9F041114E124F00244FF4807530788C
:10393000E040C00705FA04F081B201D0002200E0A7
:1039400001223846FDF775F8641CE4B2082CEED36A
:10395000084C012204212046FDF76BF82046BDE803
:10396000F04100220421FDF764B8000003000020AC
:1039700000080048000C00482048027820480178E0
:10398000A2B121F001011F4A0170D2ED000A1E4AC6
:1039900092ED000A1D4AB8EEC01A70EEC10A10EE90
:1039A000903A934205DB41F0020104E041F001014D
:1039B000E9E721F00201164B0170B8EEC00AD3ED21
:1039C000000A30EEC00A10EE103A934202DB41F0DA
:1039D000040101E021F004010E4A01701268032A7B
:1039E00003D20D4A1268032A02D341F0800101E09C
:1039F00021F080010170FFF793BF00004400002018
:103A00000300002010000020500000200000A04013
:103A100014000020680000206C000020FDF71CF856
:103A2000FEF7A8FDFEF7BCFAFEF724FBFEF76CFBE1
:103A3000FEF7B6FBFFF774FB00F01AF8FFF7E6FCA1
:103A4000FFF756FF094C0025207810B12570FFF7CD
:103A500093FF607810B1657000F018F8A07810B18D
:103A6000A570FFF7EFFCFFF7BBFBEDE700000020C0
:103A700010B500210448FDF71DFF03480021BDE8F3
:103A800010404C30FDF716BFA800002030B5534A57
:103A90005148012392ED000A0546C478F8EEC00AA9
:103AA0004F4995ED031A0022F4B370EEC10A10EEEF
:103AB000904A8C4200DDC270474DB8EEC00A0479CE
:103AC000D5ED040A8CB330EE600A10EE103A8B424A
:103AD00000DD027190ED050AB4EEC01AF1EE10FAA5
:103AE00001DD80ED051A90ED060AF4EEC00AF1EE54
:103AF00010FA01DDC0ED060AB5EEC01AF1EE10FABB
:103B000008DB90ED070AB4EEC01AF1EE10FA01D20C
:103B100080ED071AF5EEC00AF1EE10FA0BDB90ED1E
:103B2000080AF4EEC00A01E03EE049E0F1EE10FAC6
:103B300001D2C0ED080A0178002934D090ED050AC1
:103B4000D0ED070A274970EE600A91ED000A264978
:103B5000B8EEC01A70EEC10A10EE903A8B4203DB49
:103B6000224B1C68641C1C60D0ED060A90ED081AFC
:103B7000B8EEC00A70EEC10A30EEC00A10EE103A7C
:103B80008B4203DB1A490B685B1C0B60BFEE000A1B
:103B9000DFED180A80ED050AC0ED070A80ED060A80
:103BA000C0ED080A027030BD71EE600A10EE904A56
:103BB0008C4281DD104C25686D1C2560C3707BE74D
:103BC00030EEC00A10EE104A8C4283DD0B490C68BF
:103BD000641C0C6003717DE704000020500000208D
:103BE000000020414C0000200000A04068000020A0
:103BF0006C00002000401C47700000207400002072
:103C0000000000000000000001020304060708098C
:103C100000000000000000000000000000000000A4
:103C20000000000000000000000000000000000094
:103C30000000000000000000000000000000000084
:103C400000008001800180018001800180018001ED
:103C5000800180018001800180018001000000005E
:103C60008001800100000000000000000000000052
:103C700000000000CC00CC00CC00CC00CC00CC007C
:103C80000000000000000000000000000000000034
:103C90000000000000000000000000000000000024
:103CA000000000000000000000000000600C600C3C
:103CB000600C30063006FE1FFE1F30063807180362
:103CC000FE1FFE1F180318038C018C018C010000DD
:103CD00000008000E003F80F9C0E8C1C8C188C00F8
:103CE0009800F801E007800E801C8C188C189C1836
:103CF000B80CF00FE003800080000000000000001E
:103D00000000000000000E181B0C110C110611061B
:103D1000110311039B018E01C038C06C60446044E4
:103D2000304430441844186C0C3800000000000087
:103D30000000E001F0033807180618063003F00110
:103D4000F000F8009C310E33061E061C061C063FD0
:103D5000FC73F021000000000000000000000000E3
:103D6000000000000C000C000C000C000C000C000B
:103D70000000000000000000000000000000000043
:103D80000000000000000000000000000000000033
:103D90000000000200038001C000C000600060005D
:103DA0003000300030003000300030003000300093
:103DB00060006000C000C00080010003000200003D
:103DC000000020006000C0008001800100030003AB
:103DD00000060006000600060006000600060006B3
:103DE0000003000380018001C0006000200000008B
:103DF000000000000000000000000000C000C00043
:103E0000D806F807E0013003380700000000000082
:103E100000000000000000000000000000000000A2
:103E20000000000000000000000000008001800190
:103E3000800180018001FC3FFC3F80018001800106
:103E40008001800100000000000000000000000070
:103E50000000000000000000000000000000000062
:103E60000000000000000000000000000000000052
:103E700000008001800100010001800000000000BE
:103E80000000000000000000000000000000000032
:103E90000000000000000000E007E0070000000054
:103EA0000000000000000000000000000000000012
:103EB0000000000000000000000000000000000002
:103EC00000000000000000000000000000000000F2
:103ED0000000C000C0000000000000000000000062
:103EE0000000000C000C00060006000600030003A2
:103EF00000038003800180018001C000C000C00079
:103F000060006000000000000000000000000000F1
:103F10000000E003F007380E180C0C180C180C18F1
:103F20000C180C180C180C180C180C18180C380E4F
:103F3000F007E003000000000000000000000000A7
:103F4000000000018001C001F0019801880180019A
:103F50008001800180018001800180018001800159
:103F6000800180010000000000000000000000004F
:103F70000000E003F80F180C0C180C1800180018BB
:103F8000000C000600038001C00060003000180033
:103F9000FC1FFC1F000000000000000000000000EB
:103FA0000000E001F807180E0C0C0C0C000C0006C9
:103FB000C003C007000C001800180C180C18180CCF
:103FC000F807E0030000000000000000000000000F
:103FD0000000000C000E000F000F800DC00C600CE4
:103FE000600C300C180C0C0CFC3FFC3F000C000C5F
:103FF000000C000C000000000000000000000000A9
:104000000000F80FF80F180018000C00EC03FC0774
:104010001C0E001C0018001800180C181C0C180EA0
:10402000F807E003000000000000000000000000AE
:104030000000C007F00F381C181818000C00CC0343
:10404000EC0F3C0E1C1C0C180C180C18181C380E0D
:10405000F007E00300000000000000000000000086
:104060000000FC1FFC1F000C00060006000380037C
:104070008001C001C000E0006000600070003000FE
:1040800030003000000000000000000000000000D0
:104090000000E003F007380E180C180C180C380656
:1040A000F007F007180C0C180C180C180C18380C2A
:1040B000F80FE00300000000000000000000000016
:1040C0000000E003F007380E1C0C0C180C180C183C
:1040D0001C1C381EF81BE0190018000C000C1C0EEC
:1040E000F807F001000000000000000000000000E0
:1040F00000000000000000000000000080018001BE
:1041000000000000000000000000000000000000AF
:10411000800180010000000000000000000000009D
:10412000000000000000000000000000800180018D
:10413000000000000000000000000000000000007F
:1041400080018001000100018000000000000000EB
:10415000000000000000000000000000000000005F
:104160000010001C800FE003F8001800F800E003C6
:10417000800F001C00100000000000000000000084
:10418000000000000000000000000000000000002F
:10419000F81F000000000000F81F000000000000F1
:1041A000000000000000000000000000000000000F
:1041B00000000000000000000000000000000000FF
:1041C00008003800F001C007001F0018001FC007DA
:1041D000F0013800080000000000000000000000AE
:1041E0000000E003F80F180C0C180C180018000C55
:1041F000000600038001C000C000C00000000000F5
:10420000C000C0000000000000000000000000002E
:1042100000000000E00718180420C229224A1144B7
:1042200009440944094409221113E20C0240042004
:104230001818E00700000000000000000000000067
:10424000000080038003C006C006C006600C600C3E
:10425000301830183018F83FF83F1C700C600C60B4
:1042600006C006C0000000000000000000000000C2
:104270000000FC03FC0F0C0C0C180C180C180C0C98
:10428000FC07FC0F0C180C300C300C300C300C18E8
:10429000FC1FFC0700000000000000000000000000
:1042A0000000C007F01F38381C300C700660060094
:1042B0000600060006000600060006600C701C30B2
:1042C000F01FE007000000000000000000000000F8
:1042D0000000FE03FE0F060E061806180630063014
:1042E0000630063006300630063006180618060E70
:1042F000FE0FFE03000000000000000000000000B0
:104300000000FC3FFC3F0C000C000C000C000C00FB
:10431000FC1FFC1F0C000C000C000C000C000C001F
:10432000FC3FFC3F00000000000000000000000017
:104330000000F83FF83F1800180018001800180097
:10434000F81FF81F180018001800180018001800AF
:10435000180018000000000000000000000000002D
:104360000000E00FF83F3C780E6006E007C0030055
:10437000030003FE03FE03C007C006C00EC03CF0EE
:10438000F83FE00F00000000000000000000000007
:1043900000000C300C300C300C300C300C300C3079
:1043A000FC3FFC3F0C300C300C300C300C300C302F
:1043B0000C300C3000000000000000000000000085
:1043C0000000800180018001800180018001800166
:1043D00080018001800180018001800180018001D5
:1043E00080018001000000000000000000000000CB
:1043F0000000000600060006000600060006000693
:104400000006000600060006000618061806380713
:10441000F003E001000000000000000000000000C8
:10442000000006300618060C060606038601C600C4
:1044300066007600DE008E0106030606060C0618EE
:1044400006300660000000000000000000000000D0
:1044500000001800180018001800180018001800B4
:10446000180018001800180018001800180018008C
:10447000F81FF81F0000000000000000000000000E
:1044800000000EE01EF01EF01EF036D836D836D8EA
:1044900036D866CC66CC66CCC6C6C6C6C6C6C6C648
:1044A00086C386C30000000000000000000000007A
:1044B00000000C301C303C303C306C306C30CC3068
:1044C000CC308C310C330C330C360C360C3C0C3CA1
:1044D0000C380C300000000000000000000000005C
:1044E0000000E007F81F1C380E70066003C003C010
:1044F00003C003C003C003C003C006600E701C38B5
:10450000F81FE007000000000000000000000000AD
:104510000000FC0FFC1F0C380C300C300C300C3041
:104520000C18FC1FFC070C000C000C000C000C000D
:104530000C000C0000000000000000000000000063
:104540000000E007F81F1C380E70066003E003C08F
:1045500003C003C003C003C007E006630E3F1C3C5A
:10456000F83FE0F700C0000000000000000000007D
:104570000000FE0FFE1F06380630063006300638F3
:10458000FE1FFE0706030606060C06180618063070
:10459000063006600000000000000000000000007F
:1045A0000000E003F80F1C0C0C180C180C001C0089
:1045B000F803E00F001E0038063006300E301C1CD9
:1045C000F80FE007000000000000000000000000FD
:1045D0000000FE7FFE7F800180018001800180015C
:1045E00080018001800180018001800180018001C3
:1045F00080018001000000000000000000000000B9
:1046000000000C300C300C300C300C300C300C3006
:104610000C300C300C300C300C300C300C301818C6
:10462000F81FE0070000000000000000000000008C
:10463000000003600630063006300C180C180C1809
:10464000180C180C380E3006300670076003600333
:10465000C001C001000000000000000000000000D8
:1046600000000360C361C361C361663366336633B0
:104670006633663366336C1B6C1B6C1B2C1A3C1E3A
:10468000380E380E0000000000000000000000009E
:1046900000000FE00C7018303018700C600EC0076E
:1046A00080038003C003E006700C301C18180C3027
:1046B0000E6007E0000000000000000000000000A5
:1046C000000003C006600C301C383818300C60063F
:1046D000E007C0038001800180018001800180012A
:1046E00080018001000000000000000000000000C8
:1046F0000000FC7FFC7F006000300018000C00060A
:1047000000038001C0006000300018000C000600AB
:10471000FE7FFE7F0000000000000000000000009F
:104720000000E003E00360006000600060006000E3
:104730006000600060006000600060006000600079
:1047400060006000600060006000E003E0030000C3
:10475000000030003000600060006000C000C00059
:10476000C000C0018001800180010003000300033C
:10477000000600060000000000000000000000002D
:104780000000E003E0030003000300030003000354
:104790000003000300030003000300030003000301
:1047A00000030003000300030003E003E003000034
:1047B00000000000C001C001600360036003300618
:1047C0003006180C180C000000000000000000006B
:1047D00000000000000000000000000000000000D9
:1047E00000000000000000000000000000000000C9
:1047F00000000000000000000000000000000000B9
:104800000000FFFFFFFF00000000000000000000AC
:1048100000000C000C000C000C000C000C00000050
:104820000000000000000000000000000000000088
:104830000000000000000000000000000000000078
:10484000000000000000000000000000F003F80776
:104850001C0C0C0C000FF00FF80C0C0C0C0C1C0FAB
:10486000F80FF01800000000000000000000000039
:10487000000018001800180018001800D803F80FDE
:10488000380C181818181818181818181818380C80
:10489000F80FD80300000000000000000000000036
:1048A000000000000000000000000000C003F0074E
:1048B000300E180C1800180018001800180C300ED4
:1048C000F007C0030000000000000000000000002E
:1048D000000000180018001800180018C01BF01F76
:1048E000301C181818181818181818181818301C10
:1048F000F01FC01B000000000000000000000000CE
:10490000000000000000000000000000C003F00FE5
:10491000300C1818F81FF81F180018003818301C31
:10492000F00FC007000000000000000000000000C1
:104930000000800FC00FC000C000C000F007F007EB
:10494000C000C000C000C000C000C000C000C00067
:10495000C000C000000000000000000000000000D7
:10496000000000000000000000000000E00DF80F53
:10497000180E0C0C0C0C0C0C0C0C0C0C0C0C180E5B
:10498000F80FE00D000C0C0C1C06F807F0010000FD
:10499000000018001800180018001800D807F80FB9
:1049A000381C181818181818181818181818181863
:1049B0001818181800000000000000000000000097
:1049C0000000C000C000000000000000C000C000E7
:1049D000C000C000C000C000C000C000C000C000D7
:1049E000C000C00000000000000000000000000047
:1049F0000000C000C000000000000000C000C000B7
:104A0000C000C000C000C000C000C000C000C000A6
:104A1000C000C000C000C000C000F8007800000066
:104A200000000C000C000C000C000C000C0C0C0620
:104A30000C038C01CC006C00FC009C018C030C036B
:104A40000C060C0C0000000000000000000000003C
:104A50000000C000C000C000C000C000C000C00016
:104A6000C000C000C000C000C000C000C000C00046
:104A7000C000C000000000000000000000000000B6
:104A80000000000000000000000000007C3CFF7EF1
:104A9000C7E383C183C183C183C183C183C183C190
:104AA00083C183C10000000000000000000000007E
:104AB0000000000000000000000000009807F80F50
:104AC000381C181818181818181818181818181842
:104AD0001818181800000000000000000000000076
:104AE000000000000000000000000000C003F00F04
:104AF000300C181818181818181818181818300C1E
:104B0000F00FC003000000000000000000000000E3
:104B1000000000000000000000000000D803F80FB3
:104B2000380C181818181818181818181818380CDD
:104B3000F80FD8031800180018001800180000001B
:104B4000000000000000000000000000C01BF01F7B
:104B5000301C181818181818181818181818301C9D
:104B6000F01FC01B001800180018001800180000E3
:104B7000000000000000000000000000B007F0038B
:104B80007000300030003000300030003000300065
:104B900030003000000000000000000000000000B5
:104BA000000000000000000000000000E003F0032F
:104BB000380E180C3800F003C007000C180C380E23
:104BC000F007E0030000000000000000000000000B
:104BD000000000008000C000C000C000F007F00727
:104BE000C000C000C000C000C000C000C000C000C5
:104BF000C007800700000000000000000000000067
:104C00000000000000000000000000001818181844
:104C10001818181818181818181818181818381CF0
:104C2000F01FE0190000000000000000000000007C
:104C30000000000000000000000000000C18180C2C
:104C4000180C180C30063006300660036003600351
:104C5000C001C001000000000000000000000000D2
:104C6000000000000000000000000000C141C14140
:104C7000C3616363636363633636363636361C1C42
:104C80001C1C1C1C000000000000000000000000B4
:104C90000000000000000000000000001C38381C6C
:104CA000300C600660036003600360036006300C34
:104CB000381C1C380000000000000000000000004C
:104CC0000000000000000000000000001830301854
:104CD00030187018600C600CE00CC006C006800331
:104CE0008003800380018001C001F000700000009B
:104CF000000000000000000000000000FC1FFC1F7E
:104D0000000C000600038001C000600030001800A5
:104D1000FC1FFC1F0000000000000000000000005D
:104D2000000000038001C000C000C000C000C0003F
:104D3000C00060006000300060004000C000C000A3
:104D4000C000C000C000C0008001000300000000DF
:104D500000008001800180018001800180018001CC
:104D6000800180018001800180018001800180013B
:104D700080018001800180018001800180010000AC
:104D800000006000C000C00180018001800180013E
:104D90008001000300030006000300018001800180
:104DA0008001800180018001C000600000000000DF
:104DB00000000000000000000000000000000000F3
:104DC000F010F81F080F00000000000000000000B5
:104DD00000000000000000000000000000000000D3
:104DE000004E000800000020780000004428000861
:104DF000784E00087800002028050000542800089C
:104E000000000000000000010100000000000000A0
:104E10000000000000000000000000000000000092
:104E20000000000000000000000000000000000082
:104E30000000000010000000010000000000000061
:104E40000024F40000010000FFFF0000E803000060
:104E500088130000000000000000000000000000B7
:104E60000000000000000000000000000000000042
:084E700000000000000000003A
:04000005080001D915
:00000001FF
